:100000000C94CF010C94EE010C94EE010C94EE01D3
:100010000C94EE010C94720B0C94EE010C94EE0116
:100020000C94EE010C94EE010C94EE010C94120968
:100030000C94EE010C94EE010C949F0B0C94C70BE6
:100040000C94EE010C94EE010C94EE010C94EE0174
:100050000C94EE010C94EE010C94EE010C94EE0164
:100060000C94EE010C94EE010C94EE010C94EE0154
:100070000C94EE010C94EE010C94EE010C94EE0144
:100080000C94EE010C94EE010C94EE010C94EE0134
:100090000C94EE010C94EE010C94EE010C94EE0124
:1000A0000C94EE010C94EE010C94EE010C94EE0114
:1000B0000C94EE010C94EE010C94EE010C94EE0104
:1000C0000C94EE010C94EE010C94EE010C94EE01F4
:1000D0000C94EE010C9496190C94EE010C94EE0124
:1000E0000C94EE010C94EE010C94EE010C94EE01D4
:1000F0000C94EE0100060F060F060F060F060F0602
:100100000A060F060506FB05BA050F068D0514063F
:10011000920597059C05A105A605AB05B005B5059B
:100120000F060F060F060F060F060F060F06E70550
:100130000F06EC05F605D305F105BF05CE050F0644
:100140000F060F06D805C905C405DD050F060F0605
:10015000E205410651066106710681069106A10677
:10016000B106050815082508360846085608660829
:10017000084AD73B3BCE016E84BCBFFDC12F3D6C0E
:1001800074319ABD56833DDA3D00C77F11BED9E474
:10019000BB4C3E916BAAAABE000000803F05A84C54
:1001A000CDB2D44EB93836A9020C50B99186880820
:1001B0003CA6AAAA2ABE000000803F0664EC1B3CB5
:1001C00004BC163E3BE5B93CC93C37C29E5A3D666D
:1001D0000498083EEA69AAAA3E000000803F07632F
:1001E0004236B79BD8A71A39685618AEBAAB558CA9
:1001F0001D3CB7CC5763BD6DEDFD753EF6177231F2
:10020000BF000000803F08000000BE922449123E5B
:10021000ABAAAA2ABECDCCCC4C3E00000080BEAB1F
:10022000AAAAAA3E00000000BF000000803F000014
:10023000000000084178D3BB4387D1133D190E3C21
:10024000C3BD4282AD2B3E68EC8276BED98FE1A958
:100250003E4C80EFFFBE01C4FF7F3F000000000066
:100260006E616E00696E66004E414E494E495459AA
:10027000494E46CDCCCC3D0AD7233C17B7D1387771
:10028000CC2B329595E6241FB14F0A000020410087
:1002900000C84200401C4620BCBE4CCA1B0E5AAED1
:1002A000C59D7400407A10F35A00A0724E180900E0
:1002B00010A5D4E80000E87648170000E40B5402CB
:1002C0000000CA9A3B000000E1F505000080969806
:1002D00000000040420F000000A086010000001056
:1002E0002700000000E80300000000640000000098
:1002F000000A00000000000100000000002C76D879
:1003000088DC674F0823DFC1DFAE59E1B1B796E55E
:10031000E3E453C63AE651997696E8E6C28426EBC2
:10032000898C9B62ED407C6FFCEFBC9C9F40F2BAD5
:10033000A56FA5F490055A2AF75C936B6CF9676D6D
:10034000C11BFCE0E40D47FEF520E6B500D0ED90C2
:100350002E0300943577050080841E080000204E8F
:100360000A000000C80C333333330F986E12831128
:1003700041EF8D2114893BE65516CFFEE6DB18D1FF
:10038000844B381BF77C1D901DA4BBE424203284D1
:10039000725E228100C9F124ECA1E53D2700112401
:1003A0001FBECFEFCDBFDFE7DEBF11E4A0E0B0E4BA
:1003B000E0EEF4E500E00BBF02C007900D92A23E14
:1003C000B107D9F725E4A2EEB1E401C01D92A73C24
:1003D000B207E1F70E94630B0C946E2A0C940000A4
:1003E000E0E0F4E08081806E8083E0E2F4E08081F0
:1003F0008C608083E0E4F4E0808185608083E4E0C9
:10040000F4E08081806E8083E4E2F4E080818C609F
:100410008083E0E6F9E08081816280830895AF9275
:10042000BF92CF92DF92EF92FF920F931F93CF93E1
:10043000DF93182FB62EE901813471F4E4E0F4E083
:10044000208181E090E002C0880F991F6A95E2F751
:1004500080958223808310C0823409F070C0E4E26A
:10046000F4E0208181E090E002C0880F991F6A9536
:10047000E2F780958223808340936409C12CD12CBC
:10048000760112C08FEFC81AD80AE80AF80AC70125
:10049000B6010E941E1E20E030E543EC57E40E94A6
:1004A000361F18160CF44DC080916309882354F749
:1004B000E3E6F9E080818F77808380E01DC01092B1
:1004C000640911C08FEFC81AD80AE80AF80AC701F0
:1004D000B6010E941E1E20E030E543EC57E40E9466
:1004E000361F181684F18091630988235CF7809188
:1004F000640988838A2D2196AA24A394A80E8017C4
:10050000F0F2113471F4E4E0F4E0208181E090E055
:1005100002C0880F991FBA94E2F7822B808382E091
:1005200013C0E4E2F4E0208181E090E002C0880F93
:10053000991FBA94E2F7822B808382E005C080E0A5
:1005400003C081E001C081E0DF91CF911F910F9145
:10055000FF90EF90DF90CF90BF90AF900895CF9233
:10056000DF92EF92FF921F93CF93DF93813479F460
:10057000A4E0B4E09C91E1E0F0E0062E02C0EE0FB2
:10058000FF1F0A94E2F7E095E923EC9311C082344F
:1005900009F062C0A4E2B4E09C91E1E0F0E0062E34
:1005A00002C0EE0FFF1F0A94E2F7E095E923EC93F7
:1005B000122FD62FC82F40936409C12CD12C76015D
:1005C00011C08FEFC81AD80AE80AF80AC701B601A5
:1005D0000E941E1E20E030E543EC57E40E94361FC7
:1005E0001816E4F19091630999235CF7109364095C
:1005F00011C08FEFC81AD80AE80AF80AC701B60175
:100600000E941E1E20E030E543EC57E40E94361F96
:10061000181634F19091630999235CF7C13471F491
:10062000E4E0F4E0208181E090E002C0880F991FAF
:10063000DA95E2F7822B808382E013C0E4E2F4E0F3
:10064000208181E090E002C0880F991FDA95E2F7DF
:10065000822B808382E005C080E003C081E001C07E
:1006600081E0DF91CF911F91FF90EF90DF90CF90CD
:100670000895E0E0F9E080818C60808389E18093D7
:100680000609E3E0F9E0808183618083E5E0F9E039
:10069000808181608083E2E1F4E0808188608083F2
:1006A000E3E1F4E08081886080830895AF92BF9297
:1006B000CF92DF92EF92FF920F931F93CF93DF932E
:1006C000B62EEA01122F880F80930709C12CD12C76
:1006D000760112C08FEFC81AD80AE80AF80AC701D3
:1006E000B6010E941E1E20E034E244E759E40E9455
:1006F000361F18160CF454C08091050986FFEACF06
:100700008091050984FD4EC0B092080911C08FEF99
:10071000C81AD80AE80AF80AC701B6010E941E1EC4
:1007200020E034E244E759E40E94361F1816E4F151
:100730008091050986FFEBCF8091050984FD36C0C5
:1007400080E023C05E018FEFA81AB80A88818093E9
:10075000080911C08FEFC81AD80AE80AF80AC701B9
:10076000B6010E941E1E20E034E244E759E40E94D4
:10077000361F1816ECF08091050986FFEBCF90919B
:100780000509802F94FD16C0E50101E0080F8117CF
:10079000C8F2E4E0F9E080818360808384E00BC0EC
:1007A00083E009C080E007C083E005C081E003C0AA
:1007B00083E001C082E0DF91CF911F910F91FF9004
:1007C000EF90DF90CF90BF90AF9008950F931F935D
:1007D000CF93DF931F92CDB7DEB7198201E09E0160
:1007E0002F5F3F4F42E465E081E40E940F02182F23
:1007F000127020E841E865E081E40E94AF0218230E
:1008000024EE46E865E081E40E94AF02182320EC64
:1008100047E865E081E40E94AF02182320E048E841
:1008200065E081E40E94AF02182325E041E865E01D
:1008300081E40E94AF02182321E149E865E081E4E8
:100840000E94AF02182381E0123009F080E00F907F
:10085000DF91CF911F910F910895EF92FF920F9327
:100860001F93CF93DF93CDB7DEB72597CDBFDEBF04
:10087000198201E09E012F5F3F4F43E165E081E473
:100880000E940F021981812F90E00E94AC257C010B
:10089000143060F11D829E012B5F3F4F40E165E007
:1008A00081E40E940F022D814DE865E081E40E9401
:1008B000AF020981970140E065E081E40E940F02E8
:1008C000F7018081853391F48181823379F48281CB
:1008D0008A8383818B831C82CE0102960E94292801
:1008E000182FC7010E944426812F04C0C7010E940F
:1008F000442680E02596CDBFDEBFDF91CF911F91CA
:100900000F91FF90EF9008950F931F93CF93DF9374
:10091000CDB7DEB7CB57D109CDBFDEBF19821A8262
:100920001B821C8240E44D831E8258E05F835887FF
:10093000598790E29A8790E69B871C8692E09D8774
:1009400027E02E879F8795E0E6E0F0E4DE015096F1
:1009500001900D929A95E1F76EE36D8B31E43E8B39
:100960003F8B688F92E4998F9FE79A8F4B8F79E73F
:100970007C8F29E42D8F2E8F1FE41F8F05E0EBE085
:10098000F0E4DE01909601900D920A95E1F705E002
:10099000E0E1F0E4DE01959601900D920A95E1F711
:1009A0001AA72BA72CA77DA775E0E5E1F0E4DE01EF
:1009B0009E9601900D927A95E1F776E0EAE1F0E4F7
:1009C000DE01D39601900D927A95E1F775E0E0E2B1
:1009D000F0E4DE01D99601900D927A95E1F775E089
:1009E000E5E2F0E4DE01DE9601900D927A95E1F702
:1009F00075E0EAE2F0E4DE01AD5BBF4F01900D92DD
:100A00007A95E1F777E0EFE2F0E4DE01A85BBF4F13
:100A100001900D927A95E1F775E0E6E3F0E4DE01EE
:100A2000A15BBF4F01900D927A95E1F765969FAF5C
:100A3000659766965FAF669767965FAF67976896AC
:100A40009FAF689769969FAF69976A962FAF6A972D
:100A50006B962FAF6B976C962FAF6C976D969FAF81
:100A60006D976E964FAF6E976F964FAF6F97A0963C
:100A70004FAFA097A1966FAFA197A2963FAFA29755
:100A8000A3963FAFA397A4966FAFA49725E0EBE39F
:100A9000F0E4DE01AC59BF4F01900D922A95E1F7C9
:100AA00027E0E0E4F0E4DE01A759BF4F01900D928A
:100AB0002A95E1F74CE1E1964FAFE19722E2E29609
:100AC0002FAFE297E3963FAFE397E4962FAFE4971B
:100AD000E5969FAFE59751E1E6965FAFE697E7961B
:100AE0005FAFE79751E0E8965FAFE897E9969FAF71
:100AF000E997EA963FAFEA97EB962FAFEB97EC9624
:100B00004FAFEC9790E0FC01B497EF32F10508F09D
:100B100086C0E658FF4F0C944D2524E0AE014B5E95
:100B20005F4F86C024E0AE01445E5F4F81C025E088
:100B3000AE01405E5F4F7CC025E0AE014B5D5F4F74
:100B400077C024E0AE01465D5F4F72C025E0AE0184
:100B5000425D5F4F6DC026E0AE014D5C5F4F68C0E7
:100B600025E0AE01475C5F4F63C025E0AE01425C0B
:100B70005F4F5EC023E0AE014C5F5F4F59C025E080
:100B8000AE014D5B5F4F54C027E0AE01485B5F4F45
:100B90004FC025E0AE01415B5F4F4AC024E0AE018B
:100BA0004C5A5F4F45C024E0AE01485A5F4F40C0E9
:100BB00024E0AE01445A5F4F3BC024E0AE01405AEE
:100BC0005F4F36C025E0AE014C595F4F31C027E082
:100BD000AE0147595F4F2CC024E0AE0140595F4F32
:100BE00027C024E0AE014C585F4F22C024E0AE0184
:100BF00048585F4F1DC023E0AE01495F5F4F18C0EA
:100C000025E0AE01405F5F4F13C023E0AE01465FB9
:100C10005F4F0EC023E0AE01435F5F4F09C023E08A
:100C2000AE014F5F5F4F04C023E0AE01475E5F4FF0
:100C300060E48CE30E94560391E0843009F090E078
:100C4000892FC558DF4FCDBFDEBFDF91CF911F91F8
:100C50000F910895FF920F931F93CF93DF93CDB71A
:100C6000DEB76E97CDBFDEBF01E0F12C8F2D90E097
:100C70008830910508F084C0FC01E755FF4F0C94C3
:100C80004D2580EB8E8F21E0AE01425E5F4F60E824
:100C90008CE30E94560391E0843009F090E0092330
:100CA0006FC081EB8D8F21E0AE01435E5F4F60E846
:100CB0008CE30E94560391E0843009F090E0092310
:100CC0005FC082EB8C8F21E0AE01445E5F4F60E835
:100CD0008CE30E94560391E0843009F090E00923F0
:100CE0004FC083EB8B8F21E0AE01455E5F4F60E824
:100CF0008CE30E94560391E0843009F090E00923D0
:100D00003FC084EB8A8F21E0AE01465E5F4F60E812
:100D10008CE30E94560391E0843009F090E00923AF
:100D20002FC085EB898F21E0AE01475E5F4F60E801
:100D30008CE30E94560391E0843009F090E009238F
:100D40001FC086EB888F21E0AE01485E5F4F60E8F0
:100D50008CE30E94560391E0843009F090E009236F
:100D60000FC087EB8F8B21E0AE01495E5F4F60E8DB
:100D70008CE30E94560391E0843009F090E009234F
:100D8000F39488E08F1580F11D8A21E0AE014B5E5F
:100D90005F4F60E88CE30E94560391E0843009F0D5
:100DA00090E0092380E18E8B21E0AE014A5E5F4F27
:100DB00060E88CE30E94560391E0843009F090E0F3
:100DC000092310E00EC0AE014F5F5F4F84E1FA01CE
:100DD00011928A95E9F724E160E48CE30E945603BE
:100DE0001F5F173080F342CF802F6E96CDBFDEBFDE
:100DF000DF91CF911F910F91FF9008951F93CF9393
:100E0000DF93CDB7DEB72797CDBFDEBF88EA8983F2
:100E10008FE38A8322E0AE014F5F5F4F60E08CE397
:100E20000E94560311E0843009F010E083ED8983BD
:100E30001A8222E0AE014F5F5F4F60E08CE30E94B8
:100E4000560391E0843009F090E0192380E48B830D
:100E500021E0AE014D5F5F4F60E88CE30E945603D6
:100E600091E0843009F090E0192380EA8C8321E03E
:100E7000AE014C5F5F4F60E88CE30E94560391E047
:100E8000843009F090E0192380EC8D8321E0AE01DD
:100E90004B5F5F4F60E88CE30E94560391E0843023
:100EA00009F090E019238AED898382E08A8322E0A9
:100EB000AE014F5F5F4F60E08CE30E94560391E00C
:100EC000843009F090E0192381E889838FE78A83D1
:100ED00022E0AE014F5F5F4F60E08CE30E9456035B
:100EE00091E0843009F090E0192384EA8E8321E0B8
:100EF000AE014A5F5F4F60E88CE30E94560391E0C9
:100F0000843009F090E0192386EA8F8321E0AE0156
:100F1000495F5F4F60E88CE30E94560391E08430A4
:100F200009F090E0192385ED898380E88A8322E027
:100F3000AE014F5F5F4F60E08CE30E94560391E08B
:100F4000843009F090E019238DE8898384E18A8355
:100F500022E0AE014F5F5F4F60E08CE30E945603DA
:100F600091E0843009F090E019238FEA898321E031
:100F7000AE014F5F5F4F60E88CE30E94560391E043
:100F8000843009F090E019230E942A0681232796D5
:100F9000CDBFDEBFDF91CF911F910895DF92EF9219
:100FA000FF920F931F93CF93DF93CDB7DEB72A97AE
:100FB000CDBFDEBF082F7B01D42E198621E0AE0104
:100FC000475F5F4F60E88CE30E94560311E0843076
:100FD00009F010E080E18A8721E0AE01465F5F4FB3
:100FE00060E88CE30E94560391E0843009F090E0C1
:100FF0001923802F90E0FC013197E730F10508F0CC
:1010000075C0EF54FF4F0C944D2581EB888721E08C
:10101000AE01485F5F4F60E88CE30E94560391E0A9
:10102000843009F090E019231FC082EB8F8321E008
:10103000AE01495F5F4F60E88CE30E94560391E088
:10104000843009F090E019230FC083EB8E8321E0F8
:10105000AE014A5F5F4F60E88CE30E94560391E067
:10106000843009F090E0192300E05CC084EB8D83AC
:1010700021E0AE014B5F5F4F60E88CE30E945603B6
:1010800091E0843009F090E01923EECF85EB8C835A
:1010900021E0AE014C5F5F4F60E88CE30E94560395
:1010A00091E0843009F090E01923DECF86EB8B834A
:1010B00021E0AE014D5F5F4F60E88CE30E94560374
:1010C00091E0843009F090E01923CECF87EB8A833A
:1010D00021E0AE014E5F5F4F60E88CE30E94560353
:1010E00091E0843009F090E01923BECF80EB898332
:1010F00021E0AE014F5F5F4F60E88CE30E94560332
:1011000091E0843009F090E01923AECFF701E00FB1
:10111000F11D80810E948404182380E20E948404CF
:1011200018230F5FD01690F7812F2A96CDBFDEBF10
:10113000DF91CF911F910F91FF90EF90DF90089575
:101140000F931F93CF93DF93CDB7DEB72897CDBF13
:10115000DEBF8C018091E2419091E341892BA1F0A7
:101160001BC0292F30E06EE1629FA001639F500DEC
:1011700011244854544F220F331FF901EE51FE4BF6
:10118000408351839F5F01C090E0953650F3E0E6C5
:10119000F4E0808181608083DE01119688E0FD01AA
:1011A00011928A95E9F720E01FC0C801820F911DB6
:1011B000DC01EC91E53608F0E4E6DC01EC93822FEB
:1011C00090E0F0E0EE0FFF1FEE51FE4B40815181A9
:1011D000FC01EE0FFF1F81E090E08C0F9D1FE80FD8
:1011E000F91F408351832F5F2430F8F289819A815F
:1011F0008093280A9093290A1092200A1092210ABB
:10120000E4E6F4E0808181608083E0E0FAE08081C0
:10121000816080832896CDBFDEBFDF91CF911F9183
:101220000F9108951F920F920FB60F9211240BB6D3
:101230000F928F93EF93FF93E4E6F4E080818E7F2B
:101240008083EBE0FAE0808180618083E0E0FAE077
:1012500080818E7F8083FF91EF918F910F900BBEE5
:101260000F900FBE0F901F9018956F927F928F92E4
:101270009F92AF92BF92CF92DF92EF92FF920F9325
:101280001F93CF93DF93CDB7DEB7A397CDBFDEBF5C
:10129000182F8091BF44882391F01092BF448DE0B5
:1012A00093E40E94F912811105C0809590910C433E
:1012B000892303C090910C43892B80930C43809128
:1012C00071438330B0F0109271438DE093E40E943B
:1012D0002F0C811106C0880F809590910C438923B3
:1012E00006C090E0880F991F90910C43892B809342
:1012F0000C43809172438230E0F0109272438DE093
:1013000093E40E94010F811108C0880F880F880F95
:10131000809590910C4389230AC090E0880F991F13
:10132000880F991F880F991F90910C43892B8093E8
:101330000C4380916E438823C9F010926E438DE078
:1013400093E40E94F20C811107C0880F880F8095EA
:1013500090910C43892308C090E0880F991F880F53
:10136000991F90910C43892B80930C43809170437B
:10137000883030F0109270438DE093E40E94C219DF
:1013800080916D43882329F110926D4380EB92E4A4
:101390000E942D048093AC4295E09E012F5F3F4F49
:1013A0007901F901292F11922A95E9F71F928F935C
:1013B00026ED31E43F932F931F929F93FF92EF927C
:1013C0000E94D629482FB70183E00E94CE07CDBFE7
:1013D000DEBF80916F43823308F472C015FF70C086
:1013E00010926F430F2EFAE07F2EF02D5E019AE1EE
:1013F000A90EB11CF501272D11922A95E9F76E016E
:1014000030E1C30ED11CF601272D11922A95E9F780
:101410000F2EFFE06F2EF02DCE0101964C01FC0146
:10142000262D11922A95E9F70DE013E4F80184A125
:1014300095A126A137A13F932F939F938F930F2EB2
:10144000F9EDEF2EF1E4FF2EF02DFF92EF921F92B7
:101450007F92BF92AF920E94D629482FB50180E0BB
:101460000E94CE07F80180A591A522A533A53F9340
:101470002F939F938F93FF92EF921F927F92DF9211
:10148000CF920E94D629482FB60181E00E94CE0754
:10149000F80184A595A526A537A53F932F939F9383
:1014A0008F93FF92EF921F926F929F928F920E9462
:1014B000D629482FB40182E00E94CE07CDBFDEBFFF
:1014C00080917343823030F0109273438CEA92E43F
:1014D0000E94A008A396CDBFDEBFDF91CF911F91E0
:1014E0000F91FF90EF90DF90CF90BF90AF909F90C3
:1014F0008F907F906F9008955F926F927F928F92FE
:101500009F92AF92BF92CF92DF92EF92FF920F9392
:101510001F93CF93DF93CDB7DEB72897CDBFDEBF44
:10152000522E632E742E852E962EB72FF82FE92F6C
:1015300019821A821B821C821D821E821F821886BB
:1015400029813A814B815C816D817E818F81988573
:10155000A1E00E94882529833A834B835C836D83B5
:101560007E838F839887A52CB62CC72CD82CE92C8A
:10157000FB2E0F2F1E2F0E94942510F32896CDBF0F
:10158000DEBFDF91CF911F910F91FF90EF90DF9021
:10159000CF90BF90AF909F908F907F906F905F9013
:1015A0000895FF920F931F93CF93DF938091400094
:1015B00080FF0AC020EA36E841E050E060E070E0D9
:1015C00080E090E00E947C0A94E288ED84BF9093D2
:1015D00068008091650081FFFCCF0E94CB17082F27
:1015E0000E94F0010E9439030E94E603F82E0E9437
:1015F000CE0EC82F0E94BF0CD82F0E94DB0B182FD5
:101600000E94FE06612F70E0660F771F4D2F50E09D
:10161000440F551F440F551F2C2F30E0220F331F4E
:10162000220F331F220F331F90E1F99EF001112486
:10163000A0E28A9FC0011124602B462B242B2E2B65
:10164000282BE0E4F1E0808185608083E2E4F1E032
:1016500080818260808380E090E880934C01909349
:101660004D01E0E0FAE0808186608083EAE0FAE004
:10167000808180618083E0E0FBE080818360808303
:10168000E5E0FBE080818160808380E69AEE8093D4
:101690000C0B90930D0BE0E1FBE080818360808375
:1016A000E5E1FBE08081816080838DE591EE8093B0
:1016B0001C0B90931D0B7894822FDF91CF911F917B
:1016C0000F91FF900895CF930E94D10AC82F8F7178
:1016D0008F3121F48C2F0E943509FCCF80E090E0FF
:1016E000CF9108951F920F920FB60F9211248F93EE
:1016F0009F93AF93BF938091694390916A43A09168
:101700006B43B0916C430196A11DB11D8093694359
:1017100090936A43A0936B43B0936C4380916D4365
:101720008F5F80936D4382E080934301BF91AF91BF
:101730009F918F910F900FBE0F901F9018951F9241
:101740000F920FB60F9211248F93809173438F5F86
:101750008093734380916F438F5F80936F43809139
:1017600071438F5F80937143809170438F5F80934B
:101770007043809172438F5F8093724381E08093C6
:10178000060B8F910F900FBE0F901F9018951F9210
:101790000F920FB60F9211248F9380916E438F5F3B
:1017A00080936E4381E08093160B8F910F900FBE54
:1017B0000F901F9018950F931F93CF93DF931F9255
:1017C000CDB7DEB7198201E09E012F5F3F4F4FE892
:1017D00067E081E40E940F02182F127027E04EE0AC
:1017E00067E081E40E94AF0218232CE540E167E046
:1017F00081E40E94AF02182322E141E167E081E425
:101800000E94AF028123823011F080E001C081E0AC
:101810000F90DF91CF911F910F9108950E941E1E8E
:101820002AE037ED43E252E40E94761D20E836EECE
:1018300045EC57E40E94761D2FE135ED42E45EE36E
:101840000E94B01F20E030E040E85FE30E948D1C62
:1018500024EC3AE24DE257EC0E94431F0895EF92C8
:10186000FF920F931F93CF93DF93CDB7DEB72797E8
:10187000CDBFDEBF7C0119821A821B8203E09E016C
:101880002F5F3F4F48EA67E081E40E940F028230F9
:1018900009F068C08B8190E0A0E0B0E0DC019927FE
:1018A00088272A8130E0322F2227820F931FA11D23
:1018B000B11D2981820F911DA11DB11DE091BE4472
:1018C00021E02E0F2093BE44F0E0EE0FFF1FEE0F3D
:1018D000FF1FE258FB4B80839183A283B3832031A7
:1018E00008F442C01C821D821E821F8280E019C043
:1018F000E82FF0E0EE0FFF1FEE0FFF1FE258FB4B4B
:1019000000811181228133814C815D816E817F81D3
:10191000400F511F621F731F4C835D836E837F8353
:101920008F5F803128F38C819D81AE81BF81689467
:1019300013F8B695A795979587951694D1F78C834C
:101940009D83AE83BF836C817D818E819F810E9448
:101950000E0CF70160AB71AB82AB93AB1092BE443F
:1019600081E003C080E001C081E02796CDBFDEBFEB
:10197000DF91CF911F910F91FF90EF9008950F93FA
:101980001F93CF93DF931F92CDB7DEB7198201E08B
:101990009E012F5F3F4F4FE866E081E40E940F02F7
:1019A000182F127020E540E166E081E40E94AF024A
:1019B000182324E541E166E081E40E94AF02182388
:1019C00028EC47E166E081E40E94AF028123823087
:1019D00011F080E001C081E00F90DF91CF911F9165
:1019E0000F9108958F929F92AF92BF92EF92FF92C4
:1019F0000F931F93CF93DF93CDB7DEB7AA97CDBFD9
:101A0000DEBF7C019E012F5F3F4F8CE0D9011D920C
:101A10008A95E9F70CE042EA66E081E40E940F0251
:101A2000823009F0AAC160E043C070917D44862FE6
:101A300090E0AC01440F551FFA01379621E030E0E9
:101A40002C0F3D1FE20FF31F208130E0322F2227A1
:101A5000FC013396EE0FFF1FA1E0B0E0AC0FBD1FFD
:101A6000EA0FFB1FE0812E0F311D880F991F880F91
:101A7000991F880F991F870F911D880F991FFC01CF
:101A8000E35BFB4B20833183FA013196EA0FFB1FA6
:101A9000208130E0322F2227FD01E40FF51F408125
:101AA000240F311DFC01E35EFB4B208331836F5F0C
:101AB000633008F4BACF80917D448F5F80937D447A
:101AC000883008F45CC110927D448CE0FE01799668
:101AD000DF01282F1D922A95E9F73C97DF011D921F
:101AE0008A95E9F730E074C0832F90E0FC01EE0F97
:101AF000FF1FEE0FFF1F41E050E04C0F5D1FE40F92
:101B0000F51F808C918CA28CB38C880F991F880F45
:101B1000991F880F991F820F911D880F991FDC0153
:101B2000A35BBB4B4D915C91052E000C660B770BB4
:101B3000480D591D6A1D7B1D408F518F628F738F19
:101B40004485558566857785DC01A35EBB4B8D9109
:101B50009C91092E000CAA0BBB0B840F951FA61F8E
:101B6000B71F84879587A687B7872F5F01C020E0BE
:101B7000283008F4B9CFE32FF0E0EE0FFF1FEE0F8F
:101B8000FF1F81E090E08C0F9D1FE80FF91F808DF3
:101B9000918DA28DB38D689412F8B595A795979500
:101BA00087951694D1F7808F918FA28FB38F8485FC
:101BB0009585A685B785689412F8B595A7959795EC
:101BC00087951694D1F784879587A687B7873F5F57
:101BD000333068F28091694390916A43A0916B43DE
:101BE000B0916C43892B8A2B8B2BD1F48D859E85EC
:101BF000AF85B889E7E1F4E49195819591098083F7
:101C0000918389899A89AB89BC89828393838D89E1
:101C10009E89AF89B88D919581959109848395832B
:101C20008D859E85AF85B889E7E1F4E42081318117
:101C3000919581959109821B930B8DA39EA3898910
:101C40009A89AB89BC8922813381821B930B8FA334
:101C500098A78D899E89AF89B88D2481358191950A
:101C600081959109821B930B89A79AA710E037C031
:101C7000A12EB12CF501EE0FFF1FA1E0B0E0AC0FDB
:101C8000BD1FEA0FFB1F64A175A1072E000C880B76
:101C9000990B0E94201E20E030E04AEF53E40E949E
:101CA000431F20E030E040E058E30E94431F2BED4B
:101CB0003FE049E450E40E94431F20E030E044E369
:101CC00053E40E94761DAA0CBB1CAA0CBB1CF70196
:101CD000EA0DFB1D60837183828393831F5F133042
:101CE00038F2698D7A8D8B8D9C8D0E94201E9B0110
:101CF000AC010E948E1C20E030E040E058E30E94DE
:101D0000431FF70164877587868797878D8D9E8D22
:101D1000AF8DB8A19C01AD0166277727CB01621B6F
:101D2000730B840B950B0E94201E9B01AC010E943B
:101D30008E1C20E030E040E058E30E94431FD701B2
:101D400050966D937D938D939C93539769A17AA13F
:101D50008BA19CA10E94201E9B01AC010E948E1CA5
:101D600020E030E040E058E30E94431FF701648B1D
:101D7000758B868B978B81E003C080E001C081E08A
:101D8000AA96CDBFDEBFDF91CF911F910F91FF903B
:101D9000EF90BF90AF909F908F9008950F931F93F7
:101DA000CF93DF931F92CDB7DEB7198224E342E6CB
:101DB00063E082E40E94AF02182F127001E09E01DE
:101DC0002F5F3F4F4FEC63E082E40E940F02182325
:101DD0002CE840E663E082E40E94AF02182321E091
:101DE00041E663E082E40E94AF028123823011F079
:101DF00080E001C081E00F90DF91CF911F910F91A2
:101E000008954F925F926F927F928F929F92AF92BE
:101E1000BF92EF92FF920F931F93CF93DF93CDB7B3
:101E2000DEB76297CDBFDEBF7C019E012F5F3F4FC3
:101E300086E0D9011D928A95E9F706E048EE63E055
:101E400082E40E940F02823009F0F2C160E02CC0EF
:101E500070911644862F90E0AC01440F551FFA0193
:101E6000319621E030E02C0F3D1FE20FF31F20815F
:101E700030E0322F2227E1E0F0E0EC0FFD1FE40F0D
:101E8000F51F4081240F311DFC01E295F295F07F92
:101E9000FE27E07FFE27E70FF11DEE0FFF1FEA543C
:101EA000FC4B208331836F5F633090F28091164446
:101EB0008F5F80931644803108F4BCC110921644A1
:101EC000FE0137968CE0DF011D928A95E9F730E03C
:101ED00019C1832F90E0DC01AA0FBB1FAA0FBB1F03
:101EE000E1E0F0E0EC0FFD1FAE0FBF1F16968D90E6
:101EF0009D90AD90BC901997FC01E295F295F07F12
:101F0000FE27E07FFE27E20FF11DEE0FFF1FEA54D0
:101F1000FC4B40815181052E000C660B770B480D60
:101F2000591D6A1D7B1D16964D935D936D937C9391
:101F300019972F5F01C020E0203158F2832F90E0E5
:101F4000FC01EE0FFF1FEE0FFF1F41E050E04C0FB2
:101F50005D1FE40FF51F4681578160857185689488
:101F600013F875956795579547951694D1F746835D
:101F70005783608771874680578060847184FC0135
:101F8000EE0FFF1FE055FC4B408151814A01052EA9
:101F9000000CAA08BB0884149504A604B7040CF02E
:101FA0004EC0FC01EE0FFF1FEE0FFF1F61E070E05F
:101FB0006C0F7D1FE60FF71F468157816085718585
:101FC000FC01EE0FFF1FE055FC4B40835183DA010B
:101FD000552324F4AA27BB27A41BB50BFC01EE0F45
:101FE000FF1FE655FC4B0190F081E02D5F01FF23C0
:101FF00024F4AA24BB24AE1ABF0AAA15BB0554F4C4
:10200000E41BF50BDC01AA0FBB1FAC55BC4BED93D9
:10201000FC9309C04E1B5F0BFC01EE0FFF1FEC553C
:10202000FC4B40835183880F991FFC01EC55FC4BFE
:1020300080819181959587958083918362C0FC0111
:10204000EE0FFF1FEE0FFF1FA1E0B0E0AC0FBD1FB2
:10205000EA0FFB1F4680578060847184FC01EE0FFD
:10206000FF1FE655FC4B80809180092C000CAA08CC
:10207000BB08481459046A047B040CF042C0FC01FC
:10208000EE0FFF1FEE0FFF1FEA0FFB1F86809780EA
:10209000A084B184F401DC01AA0FBB1FA655BC4B80
:1020A0008D929C92BA01552324F466277727641BEE
:1020B000750BD401FF2324F4AA27BB27A819B9095B
:1020C0006A177B0754F4841A950AFC01EE0FFF1F70
:1020D000EC55FC4B8082918209C048195909FC01DA
:1020E000EE0FFF1FEC55FC4B40835183880F991F67
:1020F000FC01EC55FC4B80819181959587958083FF
:1021000091833F5F333008F416CF809169439091FB
:102110006A43A0916B43B0916C430397A105B1054D
:1021200008F48AC08B859C85AD85BE8504EA13E4DE
:10213000F80182809380092C000CAA08BB08BC011E
:10214000CD01681979098A099B090E94201E2B017B
:102150003C01C501B4010E94201E9B01AC010E94FC
:102160008E1C9B01AC01C301B2010E94761DD701F8
:1021700058966D937D938D939C935B978F819885F3
:10218000A985BA85F80180809180092C000CAA08E5
:10219000BB08BC01CD01681979098A099B090E9415
:1021A000201E2B013C0177FA709477F87094C501DA
:1021B000B4010E94201E9B01AC010E948E1C9B0159
:1021C000AC01C301B2010E94761DD7015C966D93EC
:1021D0007D938D939C935F978F859889A989BA8900
:1021E000F80184809580092C000CAA08BB08BC016A
:1021F000CD01681979098A099B090E94201E2B01CB
:102200003C01C501B4010E94201E9B01AC010E944B
:102210008E1C9B01AC01C301B2010E94761DD70147
:1022200090966D937D938D939C93939781E005C0D9
:1022300080E003C081E001C081E06296CDBFDEBFD7
:10224000DF91CF911F910F91FF90EF90BF90AF90D2
:102250009F908F907F906F905F904F9008954F92D6
:102260005F926F927F928F929F92AF92BF92CF9226
:10227000DF92EF92FF920F931F93CF93DF93CDB72F
:10228000DEB76897CDBFDEBF29013A01ED86FE8635
:102290000F87188B86010E94201E20E03BE147EB50
:1022A0005AE40E94761D2BED3FE049E450E40E9481
:1022B000431F20E030E044E353E40E94761D4B01CD
:1022C0005C01C301B2010E94201E20E03BE147EB0C
:1022D0005AE40E94761D2BED3FE049E450E40E9451
:1022E000431F20E030E044E353E40E94761D6B017D
:1022F0007C01C501B4010E9400206D837E838F8321
:10230000988720E030E040E050E40E94B01F28E1D0
:1023100036EF4BE358E30E94431F2B013C01A3011E
:10232000920160E070E080E89FE30E948D1C0E94B3
:102330000E209B01AC0162E375EA82EC9AE40E94F4
:10234000761D69837A838B839C832D853E854F859B
:1023500058890E948E1C2B013C01C501B4010E94CA
:10236000711D6D8B7E8B8F8B988F9B01AC01C30190
:10237000B2010E94431F4B015C01C701B6010E94DC
:10238000711D698B7A8B8B8B9C8B9B01AC01C5017A
:10239000B4010E94431F69877A878B879C87C70196
:1023A000B6010E9400202B013C019B01AC01C5013C
:1023B000B4010E94431F6B017C0120E13DEF4FE718
:1023C0005FE369817A818B819C810E94431F9B011D
:1023D000AC016D857E858F8598890E948E1C9B013E
:1023E000AC016D817E818F8198850E94431F4B01D6
:1023F0005C0180918043811117C091E0980F909308
:102400008043E4E7F3E429853A854B855C852083A6
:10241000318342835383C482D582E682F7828086E9
:102420009186A286B386D1C0E4E7F3E420813181AE
:102430004281538169857A858B859C850E948D1C9C
:1024400069837A838B839C8320917843309179438D
:1024500040917A4350917B43C701B6010E948D1C85
:1024600069877A878B879C8720917C4330917D4355
:1024700040917E4350917F43C501B4010E948D1C61
:102480004B015C012D813E814F81588550586989EF
:102490007A898B899C890E94431F9B01AC016981C9
:1024A0007A818B819C810E94431F6B017C01A30177
:1024B00092016D817E818F8198850E94431F9B01CF
:1024C000AC0169857A858B859C850E94431F9B01A1
:1024D000AC01C701B6010E948D1C6B017C01A501F6
:1024E00094016D897E898F89988D0E94431F9B017D
:1024F000AC01C701B6010E948E1C6B017C01A301D7
:102500009201505869817A818B819C810E94431F7E
:102510004B015C0129853A854B855C8569897A89FF
:102520008B899C890E94431F9B01AC01C501B401AA
:102530000E948E1C4B015C01F801608171818281D7
:10254000938126E636E646E65FE30E94431F2B01B1
:102550003C0120ED3CEC4CEC5DE3C701B6010E9470
:10256000431F9B01AC01C301B2010E948E1CF80104
:10257000608371838283938364817581868197816F
:1025800026E636E646E65FE30E94431F6B017C01C8
:1025900020ED3CEC4CEC5DE3C501B4010E94431F0F
:1025A0009B01AC01C701B6010E948E1CF801648337
:1025B0007583868397838D859E85AF85B889B0584E
:1025C00080879187A287B38781E06896CDBFDEBF01
:1025D000DF91CF911F910F91FF90EF90DF90CF90FF
:1025E000BF90AF909F908F907F906F905F904F9033
:1025F00008952F923F924F925F926F927F928F92A7
:102600009F92AF92BF92CF92DF92EF92FF920F9381
:102610001F93CF93DF93CDB7DEB7CC58D109CDBF91
:10262000DEBF4C018DE0E7E4F0E4DE01119601909D
:102630000D928A95E1F7FE013E9684E6DF011D9238
:102640008A95E9F7712C612C9FEF40E0E0E0392F8B
:102650003EC08E2F90E0DC01AF53BB4B2C91243257
:1026600011F43E2F26C0DC01AF53BB4B2C912A3214
:1026700081F43F3F71F0932F6E2FA1E0AE0FB0E0D9
:10268000AF53BB4B7C90EE5FF0E0EF53FB4B6080B1
:1026900024C0DC01AF53BB4B2C912C3251F43F3F93
:1026A00041F0A1E0B0E0AC0FBD1FA40FB11DEC9351
:1026B0004F5F3F3F59F0DC01AF53BB4B2C91AEE075
:1026C000B0E0AC0FBD1FA80FB91F2C93EF5F809136
:1026D000C044E813BECF932F6FEF1092C0449F3FCA
:1026E00009F416C46F3F09F415C4E92F092E000C34
:1026F000FF0B31962EE030E02C0F3D1FE20FF31F51
:1027000080819E5F09C0EEE0F0E0EC0FFD1FE20F5C
:10271000F31F208182279F5F292F30E0462F062E4E
:10272000000C550B4217530774F7FE01EE58FF4F8C
:10273000108211821282282F082E000C330B3F9337
:102740008F938FED91E49F938F931F9283E08F93EC
:10275000FF93EF930E94D629CDBFDEBF813051F4A5
:10276000E3968FADE397E4968FAFE49780E3E3962B
:102770008FAFE397E3968FADE3978711CDC3E496D0
:102780008FADE4978611CAC32B81022E000C330B48
:102790008A81082E000C990BA901481B590B413066
:1027A000510551F00196EEE0F0E0EC0FFD1FE80F4F
:1027B000F91F80818093A3434D858C85082E000CE2
:1027C000990B042E000C550B481B590B4130510539
:1027D00051F00196EEE0F0E0EC0FFD1FE80FF91F5D
:1027E00080818093A2438091A343813409F098C3F0
:1027F0008091A243813409F095C36C80062C000CB3
:102800007708C301821B930B019709F496C0F90165
:1028100031966EE070E06C0F7D1FE60FF71F808130
:10282000C158DF4F8883CF57D040F9013296E60F69
:10283000F71F8081C058DF4F8883C058D040CF57E2
:10284000DF4F1882C158D040F9013396E60FF71FC9
:102850008081EC968FAFEC97F9013496E60FF71F65
:102860008081ED968FAFED97EE961FAEEE97F90152
:102870003696E60FF71F8081E6968FAFE697F9014F
:102880003796E60FF71F8081E7968FAFE797F9013C
:102890003896E60FF71F8081E8968FAFE897F90129
:1028A0003996E60FF71F8081E9968FAFE997265F8B
:1028B0003F4FFB01E20FF31F8081EA968FAFEA974B
:1028C000EB961FAEEB97E091A1434E2E512CCE011B
:1028D00081589F4F0E9447289B01AC01ACE3B0E0B8
:1028E0000E9456256B017C01CE0185589F4F0E94A6
:1028F0004728A7019601260F371F481F591F60EA76
:1029000076E881E090E00E943D256B017C01CE01DC
:102910008B589F4F0E944728DC01CB018C0D9D1DD9
:10292000AE1DBF1DF201EE0FFF1FEE0FFF1FEF5692
:10293000FC4B80839183A283B383ED810E2E000C28
:10294000FF0BCF0186199709019791F18091A1435F
:10295000082F10E0D801AA0FBB1FAA0FBB1FAF564C
:10296000BC4B6D917D918D919C91D30111962EE080
:1029700030E02C0F3D1FA20FB31F2C912E3429F4F1
:1029800021E030E040E050E003C02FEF3FEFA9012D
:10299000D801AA0FBB1FAA0FBB1F8D010F561C4BDE
:1029A0000E943D25D8016D937D938D939C93139741
:1029B0006E80062C000C7708C3018E1B9F0B0197BD
:1029C00009F49CC0DF0111962EE030E02C0F3D1F72
:1029D000A20FB31F8C91EC968FAFEC97DF0112968C
:1029E000A20FB31F8C91ED968FAFED97DF01139679
:1029F000A20FB31F8C91EE968FAFEE97EF961FAE9E
:102A0000EF97DF011496A20FB31F8C91C158DF4FCF
:102A10008883CF57D040DF011596A20FB31F8C914A
:102A2000C058DF4F8883C058D040CF57DF4F18823F
:102A3000C158D040DF011796A20FB31F8C91E696C4
:102A40008FAFE697DF011896A20FB31F8C91E79620
:102A50008FAFE797DF011996A20FB31F8C91E8960D
:102A60008FAFE897DF011A96A20FB31F8C91E996FA
:102A70008FAFE9973B96E20FF31F8081EA968FAF05
:102A8000EA97EB961FAEEB97E091A1434E2E512CA7
:102A9000CE0185589F4F0E9447289B01AC01ACE3B3
:102AA000B0E00E9456256B017C01CE0181589F4FFA
:102AB0000E944728A7019601260F371F481F591F5C
:102AC00060EA76E881E090E00E943D256B017C01A0
:102AD000CE018B589F4F0E944728DC01CB018C0D03
:102AE0009D1DAE1DBF1DF201EE0FFF1FEE0FFF1F5C
:102AF000EF57FC4B80839183A283B3832F80422CBA
:102B0000022C000C5508C20186199709019779F12A
:102B10008091A143A82FB0E0FD01EE0FFF1FEE0F43
:102B2000FF1FEF57FC4B6081718182819381F3011C
:102B300031964EE050E04C0F5D1FE40FF51F2081F1
:102B4000273521F42FEF3FEFA90104C021E030E049
:102B500040E050E0FD01EE0FFF1FEE0FFF1FEF57AB
:102B6000FC4B0E943D25608371838283938338846C
:102B7000632C032C000C7708C30184199509019775
:102B800009F44DC0432D4219FE01EB58FF4F86E07A
:102B9000DF011D928A95E9F720E015C0822F90E0B1
:102BA000F2013196E80FF91F6EE070E06C0F7D1FA7
:102BB000E60FF71F3081E5E7F0E0EC0FFD1FE80FAF
:102BC000F91F30832F5F241748F3240174E5470E63
:102BD000511CD2016D917D918D919C9126E636E636
:102BE00046E65FE30E94431F6B017C01BE0165580E
:102BF0007F4FCE018B589F4F0E94CD262DEC3CEC91
:102C00004CEC5DE30E94431F9B01AC01C701B60180
:102C10000E948E1CF20160837183828393833985C5
:102C2000832F032E000C990B86199709019749F100
:102C3000331920E015C0822F90E0F3013196E80FA0
:102C4000F91F4EE050E04C0F5D1FE40FF51F40816F
:102C5000E5E7F0E0EC0FFD1FE80FF91F40832F5F61
:102C6000231748F3BE0165587F4FCE018B589F4F05
:102C70000E94CD26F401E85AFF4F6083718382835E
:102C800093838091A1438F5F8093A143843008F4A4
:102C90004BC11092A143612CCB57DF4F1882C5580E
:102CA000D040CA57DF4F1882C658D040C957DF4FAF
:102CB0001882C758D040C857DF4F1882C858D04034
:102CC000C757DF4F1882C958D040C657DF4F188208
:102CD000CA58D040412C512C712CB0E0A0E0CE5706
:102CE000DF4F1882C258D040CD57DF4F1882C358EB
:102CF000D040CC57DF4F1882C458D040212C312C03
:102D0000AAC0E62DF0E0BF01660F771F660F771FA0
:102D1000C557DF4F68837983CB58D040CB018F569E
:102D20009C4BFC0160817181828193816B017C01EC
:102D3000FF0CCC08DC2C7601262F372F482F592F7B
:102D40006C2D7C2D8C2D9C2DA72CBB2ECA2ECE57E6
:102D5000DF4FD880C258D040CD57DF4FE880C358EE
:102D6000D040CC57DF4FF880C458D040022D132DEF
:102D70000E947F25722EB32FA42FCE57DF4F58838A
:102D8000C258D040CD57DF4F6883C358D040CC578E
:102D9000DF4F7883C458D040282E392EC557DF4FD7
:102DA000E881F981CB58D040EF57FC4B60817181AD
:102DB000828193816B017C01FF0CCC08DC2C7601B5
:102DC000262F372F482F592F6C2D7C2D8C2D9C2D85
:102DD000CB57DF4FA880C558D040CA57DF4FB880C7
:102DE000C658D040C957DF4FC880C758D040C857D1
:102DF000DF4FD880C858D040C757DF4FE880C95848
:102E0000D040C657DF4FF880CA58D040042D152D4A
:102E10000E947F25CB57DF4F2883C558D040CA5723
:102E2000DF4F3883C658D040C957DF4F4883C75853
:102E3000D040C857DF4F5883C858D040C757DF4FDE
:102E40006883C958D040C657DF4F7883CA58D040EE
:102E5000482E592E6394F3E0F61508F052CF272D33
:102E60003B2F4A2FCE57DF4F5881C258D040CD5705
:102E7000DF4F6881C358D040CC57DF4F7881C458AA
:102E8000D040822D932D02E00E946125622E732E88
:102E9000B42FA52FCB57DF4F2881C558D040CA5734
:102EA000DF4F3881C658D040C957DF4F4881C758D7
:102EB000D040C857DF4F5881C858D040C757DF4F60
:102EC0006881C958D040C657DF4F7881CA58D04072
:102ED000842D952D0E946125F401E05CFF4F208335
:102EE000318342835383662D772D8B2F9A2F34960F
:102EF00060827182B283A3836401A4E3CA0ED11CF1
:102F0000F401E0A8F1A802A913A90E942F110DC095
:102F100080E00BC080E009C080E007C080E005C011
:102F200080E003C080E001C080E0C457DF4FCDBF28
:102F3000DEBFDF91CF911F910F91FF90EF90DF9057
:102F4000CF90BF90AF909F908F907F906F905F9049
:102F50004F903F902F900895FC0190E00FC09F018B
:102F60002F5F3F4F8081809362088091640886FFC5
:102F7000FCCF80E4809364089F5FF901961778F393
:102F800028EE33E040E050E060E070E080E090E068
:102F90000E947C0A0895CF93DF93CDB7DEB7C25865
:102FA000D140CDBFDEBF84EC99E080936808909358
:102FB0006908E0E2F4E0808181608083E5E6F8E082
:102FC000808180688083E6E6F8E08081806C808381
:102FD0002AE030E040E050E060E070E080E090E027
:102FE0000E947C0A8091610882FF0AC080ED90E017
:102FF000809368089093690884E08093610816C004
:103000008CE1E4E5F0E4DE01A959BE4F01900D9298
:103010008A95E1F76CE1CE0189599E4F0E94AC1769
:1030200080ED90E0809368089093690820EA36E884
:1030300041E050E060E070E080E090E00E947C0AB7
:1030400080E1E0E7F0E4DE01119601900D928A95AF
:10305000E1F760E1CE0101960E94AC1780E1E0E863
:10306000F0E4DE01519601900D928A95E1F760E15E
:10307000CE0141960E94AC1780E1E0E9F0E4DE0168
:10308000919601900D928A95E1F760E1CE018196CB
:103090000E94AC1780E1E0EAF0E4DE01D1960190F5
:1030A0000D928A95E1F760E1CE01C1960E94AC17BE
:1030B00080E1E0EBF0E4DE01AF5BBF4F01900D92E9
:1030C0008A95E1F760E1CE018F5B9F4F0E94AC17BC
:1030D00080E1E0ECF0E4DE01AF5ABF4F01900D92C9
:1030E0008A95E1F760E1CE018F5A9F4F0E94AC179D
:1030F00080E1E0EDF0E4DE01AF59BF4F01900D92A9
:103100008A95E1F760E1CE018F599F4F0E94AC177D
:1031100080E1E0EEF0E4DE01AF58BF4F01900D9288
:103120008A95E1F760E1CE018F589F4F0E94AC175E
:1031300080E1E0EFF0E4DE01AF57BF4F01900D9268
:103140008A95E1F760E1CE018F579F4F0E94AC173F
:1031500080E1E0E0F1E4DE01AF56BF4F01900D9257
:103160008A95E1F760E1CE018F569F4F0E94AC1720
:1031700080E1E0E1F1E4DE01AF55BF4F01900D9237
:103180008A95E1F760E1CE018F559F4F0E94AC1701
:1031900080E1E0E2F1E4DE01AF54BF4F01900D9217
:1031A0008A95E1F760E1CE018F549F4F0E94AC17E2
:1031B00080E1E0E3F1E4DE01AF53BF4F01900D92F7
:1031C0008A95E1F760E1CE018F539F4F0E94AC17C3
:1031D00080E1E0E4F1E4DE01AF52BF4F01900D92D7
:1031E0008A95E1F760E1CE018F529F4F0E94AC17A4
:1031F00080E1E0E5F1E4DE01AF51BF4F01900D92B7
:103200008A95E1F760E1CE018F519F4F0E94AC1784
:1032100080E1E0E6F1E4DE01AF50BF4F01900D9296
:103220008A95E1F760E1CE018F509F4F0E94AC1765
:1032300080E1E0E7F1E4DE01AF5FBE4F01900D9267
:103240008A95E1F760E1CE018F5F9E4F0E94AC1737
:1032500080E1E0E8F1E4DE01AF5EBE4F01900D9247
:103260008A95E1F760E1CE018F5E9E4F0E94AC1718
:103270008EE0E0E9F1E4DE01AF5DBE4F01900D921A
:103280008A95E1F76EE0CE018F5D9E4F0E94AC17EC
:103290008EE0EEE9F1E4DE01A15DBE4F01900D92FA
:1032A0008A95E1F76EE0CE01815D9E4F0E94AC17DA
:1032B0008EE0ECEAF1E4DE01A35CBE4F01900D92DA
:1032C0008A95E1F76EE0CE01835C9E4F0E94AC17B9
:1032D0008EE0EAEBF1E4DE01A55BBE4F01900D92BA
:1032E0008A95E1F76EE0CE01855B9E4F0E94AC1798
:1032F0008EE0E8ECF1E4DE01A75ABE4F01900D929A
:103300008A95E1F76EE0CE01875A9E4F0E94AC1776
:10331000809161088695869591E089278170CE57C6
:10332000DE4FCDBFDEBFDF91CF9108951F920F9288
:103330000FB60F9211240BB60F928F939F93EF93BA
:10334000FF9311C0809160088A3019F491E0909346
:10335000BF44E091C04491E09E0F9093C044F0E0E0
:10336000EF53FB4B80838091640888235CF3FF91CB
:10337000EF919F918F910F900BBE0F900FBE0F900A
:103380001F9018954F925F926F927F928F929F92AB
:10339000AF92BF92CF92DF92EF92FF92CF93DF93E3
:1033A000CDB7DEB7AA97CDBFDEBF89A79AA7DC014C
:1033B00054968D909D90AD90BC9057975096CD901F
:1033C000DD90ED90FC905397A5019401C701B601E3
:1033D0000E940D1D698B7A8B8B8B9C8B9B01AC01A2
:1033E0000E947720882361F0A9A5BAA594962D9113
:1033F0003D914D915C919797298B3A8B4B8B5C8BD0
:1034000020E030E040E050E4C701B6010E94B01F68
:103410006B017C0120E030E040E050E4C501B401E4
:103420000E94B01F4B015C01A5019401C701B601C8
:103430000E948E1C0E940E209B01AC01E9A5FAA5FA
:1034400084859585A685B785BC01CD0190580E94DD
:103450000D1D6D8B7E8B8F8B988F9B01AC010E9415
:103460007720882361F0A9A5BAA598962D913D9162
:103470004D915C919B972D8B3E8B4F8B588FA9A5BF
:10348000BAA598962D913D914D915C919B9729837A
:103490003A834B835C83CA01B9010E94711D698F15
:1034A0007A8F8B8F9C8FE9A5FAA5208D318D428D67
:1034B000538D0E94431F2B013C01A9A5BAA59496E8
:1034C0002D913D914D915C9197972D833E834F8334
:1034D0005887CA01B9010E94002069877A878B87C3
:1034E0009C8769817A818B819C810E9400206B017D
:1034F0007C019B01AC0169857A858B859C850E9446
:10350000431FE9A5FAA5848C958CA68CB78CA501E0
:1035100094010E94431F9B01AC01C301B2010E94B0
:103520008E1C2B013C016D817E818F8198850E94CC
:10353000711D6D877E878F87988B9B01AC01C701BA
:10354000B6010E94431FA9A5BAA59096CD90DD9023
:10355000ED90FC909397A70196010E94431F9B0159
:10356000AC01C301B2010E948E1C2B013C012D85D0
:103570003E854F855889C501B4010E94431F4B0108
:103580005C01A701960169857A858B859C850E94DF
:10359000431F9B01AC01C501B4010E948D1CA30116
:1035A00092010E940D1D2B013C0177FA709477F86F
:1035B0007094A3019201C301B2010E947720882375
:1035C00031F0E9A5FAA544A455A466A477A420E0A7
:1035D00030E0A901C301B2010E946C1D181654F01D
:1035E0002BED3FE049EC50E4C301B2010E948E1C78
:1035F0002B013C01A9A5BAA59C968D909D90AD90FC
:10360000BC909F9769817A818B819C810E94E81D83
:103610009B01772324F422273327261B370BB9017C
:10362000330F880B990B0E94201E2BED3FE049ECD5
:103630005FE30E948D1C0E94E81D9B01772324F408
:1036400022273327261B370BB901330F880B990B21
:103650000E94201E23EC38EB42EB5DE30E94361FF4
:1036600018160CF0CAC0E9A5FAA5C080D180E28086
:10367000F38069817A818B819C810E9452206D8FB9
:103680007E8F8F8F98A39B01AC0169857A858B858E
:103690009C850E94431FA9A5BAA514962D913D9122
:1036A0004D915C91179729A33AA34BA35CA30E9469
:1036B000431F9B01AC01C701B6010E948E1C6DA384
:1036C0007EA38FA398A72D8D3E8D4F8D58A16D851C
:1036D0007E858F8598890E94431FE9A5FAA5C0843D
:1036E000D184E284F384A70196010E94431F9B01C9
:1036F000AC016DA17EA18FA198A50E948E1C2AE02D
:1037000037ED43E25DE30E94431F9B01AC016D81F5
:103710007E818F8198850E948E1C6D837E838F832E
:10372000988729A13AA14BA15CA16D857E858F85E3
:1037300098890E94431F6D8F7E8F8F8F98A3A7015A
:10374000960169857A858B859C850E94431F9B0124
:10375000AC016D8D7E8D8F8D98A10E948D1C2AE00D
:1037600037ED43E25DE30E94431F9B01AC01698199
:103770007A818B819C810E948E1C69837A838B83E2
:103780009C83298D3A8D4B8D5C8D69857A858B85DF
:103790009C850E94761D9B01AC0169A17AA18BA139
:1037A0009CA10E94431F69877A878B879C87298DFC
:1037B0003A8D4B8D5C8D6D857E858F8598890E94B5
:1037C000761D9B01AC01C701B6010E94431F9B01FE
:1037D000AC0169857A858B859C850E948E1C2AE0C8
:1037E00037ED43E25DE30E94431F9B01AC01C5013D
:1037F000B4010E948E1C4B015C012D813E814F81E2
:10380000588569897A898B899C890E948D1C2DEC49
:103810003CEC4CE45DE30E94431F9B01AC016D81D5
:103820007E818F8198850E948E1CA9A5BAA5949649
:103830006D937D938D939C93979729813A814B81CA
:103840005C816D897E898F89988D0E948D1C2DECFD
:103850003CEC4CE45DE30E94431F9B01AC01698199
:103860007A818B819C810E948E1CE9A5FAA560A7B4
:1038700071A782A793A7A5019401C301B2010E9479
:103880008D1C6B017C010E94E81D9B01772324F4B1
:1038900022273327261B370BB901330F880B990BCF
:1038A0000E94201E2BED3FE049E450E40E94361FA9
:1038B00018168CF02DEC3CEC4CE45DE3C701B6012E
:1038C0000E94431F9B01AC01C501B4010E948E1CE4
:1038D000362F272F04C0342D252D862D972D432FCD
:1038E000522F682F792FA9A5BAA59C964D935D9369
:1038F0006D937C939F97AA96CDBFDEBFDF91CF914A
:10390000FF90EF90DF90CF90BF90AF909F908F90FF
:103910007F906F905F904F9008955058BB27AA27D3
:103920000E94A51C0C94E81E0E94AF1E38F00E9455
:10393000B61E20F039F49F3F19F426F40C94851E2E
:103940000EF4E095E7FB0C947F1EE92F0E940D1FFB
:1039500058F3BA17620773078407950720F079F4C4
:10396000A6F50C942F1F0EF4E0950B2EBA2FA02D68
:103970000B01B90190010C01CA01A0011124FF271C
:10398000591B99F0593F50F4503E68F11A16F04017
:10399000A22F232F342F4427585FF3CF4695379516
:1039A0002795A795F0405395C9F77EF41F16BA0BDB
:1039B000620B730B840BBAF09150A1F0FF0FBB1F89
:1039C000661F771F881FC2F70EC0BA0F621F731FD2
:1039D000841F48F4879577956795B795F7959E3F2F
:1039E00008F0B0CF9395880F08F09927EE0F9795C0
:1039F000879508950E94AF1E60F080E891E009F479
:103A00009EEF0E94B61E28F040E851E071F45EEF90
:103A10000CC00C94851E0C942F1FE92FE0780E9497
:103A20000D1F40F3092E052AB1F326173707480763
:103A3000590738F00E2E07F8E02569F0E025E0641C
:103A40000AC0EF6307F8009407FADB01B9019D0192
:103A5000DC01CA01AD01EF930E948D1D0E94E81E9A
:103A60000E943D1D5F91552339F02BED3FE049E465
:103A700050FD49EC0C948E1C0895DF93DD27B92F7F
:103A8000BF7740E85FE31616170648075B0718F490
:103A9000D92F0E943B1F9F938F937F936F930E9418
:103AA0004E20E0E7F1E00E94881E0E94E81E2F9160
:103AB0003F914F915F910E94561FDD2351F0905826
:103AC000A2EA2AED3FE049EC5FE3D0785D270E944F
:103AD000A51CDF910C94E81E0E945B1E08F481E097
:103AE00008950E94BF1EE3950C94F91E0E948A1D42
:103AF0000C94E81E0E94B61E58F00E94AF1E40F0C3
:103B000029F45F3F29F00C947F1E51110C94301F53
:103B10000C94851E0E940D1F68F39923B1F3552361
:103B200091F3951B550BBB27AA27621773078407D0
:103B300038F09F5F5F4F220F331F441FAA1FA9F366
:103B400035D00E2E3AF0E0E832D091505040E69554
:103B5000001CCAF72BD0FE2F29D0660F771F881FB5
:103B6000BB1F261737074807AB07B0E809F0BB0BA8
:103B7000802DBF01FF2793585F4F3AF09E3F5105BC
:103B800078F00C947F1E0C94301F5F3FE4F3983E56
:103B9000D4F3869577956795B795F7959F5FC9F7A5
:103BA000880F911D9695879597F90895E1E0660F26
:103BB000771F881FBB1F621773078407BA0720F09F
:103BC000621B730B840BBA0BEE1F88F7E095089508
:103BD0000E94EF1D6894B1110C94301F08950E944B
:103BE000151F88F09F5798F0B92F9927B751B0F05B
:103BF000E1F0660F771F881F991F1AF0BA95C9F771
:103C000014C0B13091F00E942F1FB1E008950C94C0
:103C10002F1F672F782F8827B85F39F0B93FCCF373
:103C2000869577956795B395D9F73EF490958095ED
:103C3000709561957F4F8F4F9F4F0895E89409C00D
:103C400097FB3EF490958095709561957F4F8F4FCF
:103C50009F4F9923A9F0F92F96E9BB279395F695E5
:103C6000879577956795B795F111F8CFFAF4BB0F63
:103C700011F460FF1BC06F5F7F4F8F4F9F4F16C0C7
:103C8000882311F096E911C0772321F09EE8872F51
:103C9000762F05C0662371F096E8862F70E060E00D
:103CA0002AF09A95660F771F881FDAF7880F969586
:103CB000879597F90895990F0008550FAA0BE0E82A
:103CC000FEEF16161706E807F907C0F012161306DE
:103CD000E407F50798F0621B730B840B950B39F41E
:103CE0000A2661F0232B242B252B21F408950A2684
:103CF00009F4A140A6958FEF811D811D089597F9C4
:103D00009F6780E870E060E008959FEF80EC089581
:103D1000DF93CF931F930F93FF92EF92DF927B017C
:103D20008C01689406C0DA2EEF010E94561FFE0136
:103D3000E894A5912591359145915591A6F3EF0110
:103D40000E94A51CFE019701A801DA9469F7DF9093
:103D5000EF90FF900F911F91CF91DF910895002474
:103D60000A941616170618060906089500240A94E0
:103D7000121613061406050608950C94851E0E945B
:103D8000151FD8F3E894E0E0BB279F57F0F02AED29
:103D90003FE049EC06C0EE0FBB0F661F771F881F80
:103DA00028F0B23A62077307840728F0B25A620B10
:103DB000730B840BE3959A9572F7803830F49A95DB
:103DC000BB0F661F771F881FD2F790480C94B8204E
:103DD000092E0394000C11F4882352F0BB0F40F419
:103DE000BF2B11F460FF04C06F5F7F4F8F4F9F4F59
:103DF0000895EF93E0FF07C0A2EA2AED3FE049EC07
:103E00005FEB0E94A51C0E94E81E0F90039401FC2A
:103E10009058EDE9F1E00C94CB2057FD9058440FF9
:103E2000551F59F05F3F71F04795880F97FB991F19
:103E300061F09F3F79F087950895121613061406D6
:103E4000551FF2CF4695F1DF08C016161706180663
:103E5000991FF1CF86957105610508940895E8943E
:103E6000BB2766277727CB0197F908950E945B1E31
:103E700008F48FEF08959B01AC0160E070E080E8EA
:103E80009FE30C94761D0E94561F0C94E81E0E941E
:103E9000AF1E38F00E94B61E20F0952311F00C944E
:103EA0007F1E0C94851E11240C94301F0E940D1F40
:103EB00070F3959FC1F3950F50E0551F629FF0017D
:103EC000729FBB27F00DB11D639FAA27F00DB11D96
:103ED000AA1F649F6627B00DA11D661F829F22271F
:103EE000B00DA11D621F739FB00DA11D621F839FA6
:103EF000A00D611D221F749F3327A00D611D231F7C
:103F0000849F600D211D822F762F6A2F11249F57C9
:103F100050409AF0F1F088234AF0EE0FFF1FBB1FCC
:103F2000661F771F881F91505040A9F79E3F51058B
:103F300080F00C947F1E0C94301F5F3FE4F3983E9A
:103F4000D4F3869577956795B795F795E7959F5F35
:103F5000C1F7FE2B880F911D9695879597F90895C7
:103F6000FA01EE0FFF1F309621053105A1F1611511
:103F7000710561F48038BFE39B0749F1689490387C
:103F8000810561F08038BFEF9B0741F099234AF526
:103F9000FF3FE1053105210519F1E8940894E79503
:103FA000D901AA2329F4AB2FBE2FF85FD0F310C09C
:103FB000FF5F70F4A695E0F7F73950F019F0FF3A7B
:103FC00038F49F779F930DD00F9007FC9058089579
:103FD00046F00C94851E60E070E080E89FE3089551
:103FE0004FE79F775F934F933F932F930E94212139
:103FF0002F913F914F915F910E94431F0C94842019
:104000009F930E94BF1E0F9007FCEE5F0C94F91E59
:1040100019F416F40C94851E0C94B6200E94151FFA
:10402000B8F39923C9F3B6F39F57550B87FF0E9446
:10403000C4200024A0E640EA900180585695979548
:1040400028F4805C660F771F881F20F0261737073B
:10405000480730F4621B730B840B202931294A2B4B
:10406000A69517940794202531254A2758F7660FFF
:10407000771F881F20F026173707480730F4620B98
:10408000730B840B200D311D411DA09581F7B901E3
:10409000842F9158880F9695879508959B01AC01C0
:1040A0000C94431FDF93D92F0E94BF1EE695D7952E
:1040B0002AED3FE049E45FE3B33A62077307840700
:1040C0009507D7953AF0A2EA49EC90680E94A51CA2
:1040D0000E94E81EEBEBF1E00E94CB20DD0F13F015
:1040E0000E943B1FDD0F0BF49058DF9108950E9452
:1040F0005B1E880B990B089529F416F00C947F1E13
:104100000C942F1F0C94851E0E94151FA8F396383F
:10411000A0F707F80F92E8942BE33AEA48EB5FE741
:104120000E94591F0F920F920F924DB75EB70F92D8
:104130000E946921EEEDF1E00E94881E4F915F918F
:10414000EF91FF91E595EE1FFF1F49F0FE57E068E4
:104150004427EE0F441FFA95E1F74195550B0E9455
:10416000E3200F9007FE0C943B1F08959F3F31F012
:10417000915020F4879577956795B795880F911D95
:104180009695879597F9089591505040660F771F3F
:10419000881FD2F708959F938F937F936F93FF9318
:1041A000EF939B01AC010E94431FEF91FF910E948E
:1041B000881E2F913F914F915F910C94431F0C9457
:1041C0007F1E0C94B6200E94151FD8F39923C9F3C3
:1041D000940F511DA3F39150504094F059F088234F
:1041E00032F0660F771F881F91505040C1F79E3FF5
:1041F00051052CF7880F911D9695879597F908958D
:104200005F3FACF0983E9CF0BB278695779567950D
:10421000B79508F4B1609395C1F7BB0F58F711F447
:1042200060FFE8CF6F5F7F4F8F4F9F4FE3CF0C94BE
:10423000301F16F00C94B6200C94851E68940C94D4
:104240007F1E0E94151FA8F39923C1F3AEF3DF93DD
:10425000CF931F930F93FF92C92FDD2788232AF056
:104260002197660F771F881FDAF720E030E040E8DB
:104270005FEB9FE3883920F0803E38F021968F77FE
:104280000E948E1CE6E0F2E004C00E948E1CE3E374
:10429000F2E00E94881E8B01BE01EC01FB2E6F57DD
:1042A00071097595771F880B990B0E94201E28E1D4
:1042B00032E741E35FE30E94561FAF2D9801AE0144
:1042C000FF900F911F91CF91DF910E94A51C0C943C
:1042D000E81EFA01DC01AA0FBB1F9B01AC01BF570E
:1042E00028F4222733274427507820C0B75190F470
:1042F000AB2F0024469537952795011CA395D2F343
:10430000002071F0220F331F441FB395DAF30ED053
:104310000C948D1C61307105A0E88A07B94630F411
:104320009B01AC016627772788279078309621F08B
:10433000208331834283538308952F923F924F927B
:104340005F926F927F928F929F92AF92BF92CF9225
:10435000DF92EF92FF920F931F93CF93DF93CDB72E
:10436000DEB76097CDBFDEBF7C011B016A01FC0197
:1043700016821782838181FF44C39E012F5F3F4FC6
:104380003901F7019381F10193FD859193FF8191AB
:104390001F01882309F431C3853239F493FD8591D7
:1043A00093FF81911F01853239F4B70190E00E949B
:1043B0009A2956016501E5CF10E0512C912CFFE1BF
:1043C000F915D8F08B3279F038F4803279F08332F5
:1043D000A1F4F92DF0612EC08D3261F0803369F4C3
:1043E000292D21602DC0392D3260932E892D8460B6
:1043F000982E2AC0E92DE86015C097FC2DC020ED4D
:10440000280F2A3088F496FE06C03AE0139F200D4C
:104410001124122F19C08AE0589E200D1124522E0B
:10442000E92DE0629E2E10C08E3231F496FCE5C27A
:10443000F92DF0649F2E08C08C3621F4292D2068B8
:10444000922E02C0883641F4F10193FD859193FFCD
:1044500081911F018111B3CF9BEB980F933020F412
:10446000992D9061805E07C09BE9980F933008F00A
:1044700066C1992D9F7E96FF16E09F73992E853613
:1044800019F49064992E08C0863621F4392F3068CB
:10449000932E02C01111115097FE07C01C3350F427
:1044A00044244394410E27E00BC0183038F027E035
:1044B00017E005C027E09CE3492E02C0212F412CC4
:1044C000560184E0A80EB11CF601608171818281E1
:1044D0009381042DA3010E946E286C01F981FC8751
:1044E000F0FF02C0F3FF06C091FC06C092FE06C0BA
:1044F00000E205C00DE203C00BE201C000E08C85C4
:104500008C7019F001115AC29BC297FE10C04C0C5E
:10451000FC85F4FF04C08A81813309F44A941414A1
:1045200074F528E0241578F588E0482E2CC096FC18
:104530002AC0812F90E08C159D059CF03CEFC3169E
:104540003FEFD30674F0892D8068982E0AC0E2E010
:10455000F0E0EC0FFD1FE10FF11D8081803319F4B5
:1045600011501111F4CF97FE0EC044244394410E14
:10457000812F90E0C816D9062CF41C1904C04424DD
:10458000439401C010E097FE06C01C141D0434F4CF
:10459000C601019605C085E090E002C081E090E090
:1045A00001110196112331F0212F30E02F5F3F4F91
:1045B000820F931F252D30E08217930714F4581AA9
:1045C00001C0512C892D897049F4552039F0B7016B
:1045D00080E290E00E949A295A94F7CF002329F0B4
:1045E000B701802F90E00E949A2993FC09C05520C2
:1045F00039F0B70180E390E00E949A295A94F7CFEE
:1046000097FE4CC04601D7FE02C0812C912CC601FA
:1046100088199909F301E80FF91FED87FE879601C4
:10462000241931092F87388B012F10E0119501953E
:1046300011093FEF8316930629F4B7018EE290E04B
:104640000E949A29C814D9044CF08F85988988153E
:10465000990524F4ED85FE85818101C080E3F1E0B8
:104660008F1A91082D853E852F5F3F4F2D873E87FE
:10467000801691062CF0B70190E00E949A29D9CFBC
:10468000C814D90441F49A81963320F4953319F46F
:104690003C8534FF81E3B70190E04EC08A818133CD
:1046A00019F09C859F7E9C87B70190E00E949A2913
:1046B000111105C094FC18C085E690E017C0B70141
:1046C0008EE290E00E949A291E5F82E001E0080FCE
:1046D000F301E80FF11D8081B70190E00E949A2953
:1046E000802F0113F3CFE6CF85E490E0B7010E945D
:1046F0009A29D7FC06C0C114D10441F4EC85E4FF2B
:1047000005C0D194C194D1088DE201C08BE2B701FC
:1047100090E00E949A2980E32AE0C216D1042CF08E
:104720008F5FFAE0CF1AD108F7CFB70190E00E946F
:104730009A29B701C601C0960E949A2954C18336AE
:1047400031F0833779F0833509F056C020C0560127
:1047500032E0A30EB11CF6018081898301E010E0F4
:10476000630112C05601F2E0AF0EB11CF601C08029
:10477000D18096FE03C0612F70E002C06FEF7FEF23
:10478000C6010E9472298C01F92DFF7714C05601D1
:1047900022E0A20EB11CF601C080D18096FE03C0BB
:1047A000612F70E002C06FEF7FEFC6010E946729A2
:1047B0008C01F92DF0689F2EF3FD1AC0852D90E035
:1047C00008171907A8F4B70180E290E00E949A291F
:1047D0005A94F4CFF60197FC859197FE81916F0171
:1047E000B70190E00E949A2951105A940150110982
:1047F0000115110579F7F7C0843611F0893661F596
:10480000560197FE09C024E0A20EB11CF60160819A
:104810007181828193810AC0F2E0AF0EB11CF60172
:1048200060817181072E000C880B990BF92DFF76A2
:104830009F2E97FF09C090958095709561957F4F49
:104840008F4F9F4FF0689F2E2AE030E0A3010E9417
:104850000D2AC82EC6183FC0092D853721F40F7EBA
:104860002AE030E01DC0097F8F3691F018F48835BA
:1048700059F0C3C0803719F0883711F0BEC000610D
:1048800004FF09C0046007C094FE08C0066006C0AB
:1048900028E030E005C020E130E002C020E132E055
:1048A000560107FF09C084E0A80EB11CF601608123
:1048B00071818281938108C0F2E0AF0EB11CF601D4
:1048C0006081718180E090E0A3010E940D2AC82ED2
:1048D000C6180F77902E96FE0BC0092D0E7FC116BD
:1048E00050F494FE0AC092FC08C0092D0E7E05C04B
:1048F000DC2C092D03C0DC2C01C0D12E04FF0DC01F
:10490000FE01EC0DF11D8081803311F4097E09C098
:1049100002FF06C0D394D39404C0802F867809F098
:10492000D39403FD11C000FF06C01C2DD51480F4E4
:10493000150D1D190DC0D51458F4B70180E290E093
:104940000E949A29D394F7CFD51410F45D1801C0B2
:10495000512C04FF10C0B70180E390E00E949A2917
:1049600002FF17C001FD03C088E790E002C088E5A0
:1049700090E0B7010CC0802F867859F001FF02C08B
:104980008BE201C080E207FD8DE2B70190E00E945A
:104990009A29C11638F4B70180E390E00E949A2961
:1049A0001150F7CFCA94F301EC0DF11D8081B701CE
:1049B00090E00E949A29C110F5CF15C0F4E0F515DA
:1049C00060F584E0581A93FE1FC0011127C02C85A2
:1049D00023FF2AC000E612E0392D3071932EF80132
:1049E0008491811124C0552009F4E4CCB70180E200
:1049F00090E00E949A295A94F6CFF7018681978118
:104A000026C08FEF9FEF23C0B70180E290E00E94A5
:104A10009A295A945110F8CFD8CF512CB701802F32
:104A200090E00E949A29D3CF04E612E0D5CF9110EE
:104A30008052B70190E00E949A290F5F1F4FCFCF9D
:104A400023E0251510F483E0BDCF512CC0CF609634
:104A5000CDBFDEBFDF91CF911F910F91FF90EF90FF
:104A6000DF90CF90BF90AF909F908F907F906F908E
:104A70005F904F903F902F900895DB018F939F930D
:104A80000E945625BF91AF91A29F800D911DA39FBB
:104A9000900DB29F900D11240895EE0FFF1F00247A
:104AA000001C0BBE0790F691E02D09940E949D25F5
:104AB000A59F900DB49F900DA49F800D911D112472
:104AC000089597FB10F8169400080F93083098F09B
:104AD0000850232F342F452F562F672F782F892FDB
:104AE000902DF4CF05949795879577956795579571
:104AF0004795379527950A95AAF70F9108952A0D9E
:104B00003B1D4C1D5D1D6E1D7F1D801F911F089557
:104B10000024A7FD00942A0F301D401D501D601D6C
:104B2000701D801D901D08952A153B054C055D05DF
:104B30006E057F05800791070895A29FB001B39F7E
:104B4000C001A39F700D811D1124911DB29F700D96
:104B5000811D1124911D08950F931F93CF93DF930F
:104B60008230910510F482E090E0E091C345F0912D
:104B7000C44520E030E0A0E0B0E0309719F140817A
:104B800051810281138148175907C8F0841795078E
:104B900069F4109731F012960C93129713961C93A8
:104BA00027C00093C3451093C44522C02115310589
:104BB00019F04217530718F49A01BD01EF01DF0104
:104BC000F801DBCF21153105F9F0281B390B243012
:104BD000310580F48A819B816115710521F0FB010B
:104BE0008283938304C08093C3459093C445FE01A0
:104BF000329644C0FE01E20FF31F8193919322503D
:104C00003109288339833AC02091C1453091C2458A
:104C1000232B41F420910240309103402093C14561
:104C20003093C2452091004030910140211531055B
:104C300041F42DB73EB74091044050910540241BEC
:104C4000350BE091C145F091C245E217F307A0F49E
:104C50002E1B3F0B2817390778F0AC014E5F5F4FD2
:104C60002417350748F04E0F5F1F4093C1455093FE
:104C7000C2458193919302C0E0E0F0E0CF01DF9163
:104C8000CF911F910F910895CF93DF93009709F46F
:104C900081C0FC01329712821382A091C345B0916A
:104CA000C445109781F420813181820F931F209198
:104CB000C1453091C2452817390751F5E093C145E8
:104CC000F093C24567C0ED0120E030E0CE17DF076A
:104CD00040F44A815B819E0141155105F1F0EA01E2
:104CE000F5CFC283D38340815181840F951FC817AC
:104CF000D90759F488819981840F951F0296808382
:104D000091838A819B81828393832115310529F4C4
:104D1000E093C345F093C4453DC0E901EA83FB83BA
:104D200049915991C40FD51FEC17FD0761F480819B
:104D30009181840F951F0296E9018883998382816E
:104D400093818A839B83E0E0F0E012968D919C91A1
:104D50001397009719F0FD01DC01F7CF8D919C911D
:104D600011979D012E5F3F4F820F931F2091C145E8
:104D70003091C2452817390769F4309729F4109209
:104D8000C3451092C44502C012821382A093C1454C
:104D9000B093C245DF91CF9108958F929F92AF92C9
:104DA000BF92CF92DF92EF92FF920F931F93CF9318
:104DB000DF93EC016B016115710519F0FB01808334
:104DC00091837E01FFEFEF1AFF0A0881802F90E0A8
:104DD0000E944629892B11F0E701F3CF0D3239F4F7
:104DE0007E0182E0E80EF11C098111E008C00B325F
:104DF00029F47E0192E0E90EF11C098110E0E7013F
:104E0000219743E050E060E772E0CE010E944F2915
:104E1000892BC1F4239645E050E06BE672E0CE01A9
:104E20000E944F29892B09F42596C114D10419F049
:104E3000F601C083D1831111F6C060E070E080E814
:104E40009FE7FAC043E050E068E672E0CE010E94BE
:104E50004F29892B59F4C114D10409F4E9C0F2E0B7
:104E6000EF0EF11CF601E082F182E2C020E030E0BA
:104E7000A901C0E0D0E0F70160EDA62EA00E89E008
:104E80008A1530F1912F9260B92E812F887012FF10
:104E900004C0811124C0219622C081112197A5E070
:104EA000B0E00E945625DC01CB01880F991FAA1F94
:104EB000BB1F9C01AD012A0D311D411D511D28391B
:104EC00089E93807480789E1580748F0166006C0A5
:104ED0009EEFA9120AC013FD40C01860B12E8FEFDB
:104EE000E81AF80A00811B2DC6CF802F8F7D8534EC
:104EF000A1F580818D3211F4106106C08B3221F052
:104F0000319661E070E004C08181329662E070E029
:104F100080538A3018F0E61BF70B1FC060E070E08A
:104F200060389CE079075CF4DB01AA0FBB1FAA0F75
:104F3000BB1F6A0F7B1F660F771F680F711D3196AD
:104F4000DF0111978C9180538A3050F314FF03C016
:104F5000719561957109C60FD71F11FF08C0C11463
:104F6000D10429F0CF010197F60180839183CA0112
:104F7000B9010E941E1E212F2370233019F04B010E
:104F80005C0106C04B015C01B7FAB094B7F8B0946D
:104F900020E030E0A901C501B4010E946C1D882306
:104FA00009F43EC0D7FF06C0D195C195D10907E8E5
:104FB00012E002C00FE912E06801F8E1CF1AD1084F
:104FC00090E2E92EF12CCE15DF0574F0F801259161
:104FD000359145915491C501B4010E94431F4B0185
:104FE0005C01CE19DF09EFCF04501109F594E79465
:104FF0000C151D0541F78A2D880F8B2D881F8F3FBB
:1050000049F020E030E0A901C501B4010E946C1D07
:10501000811106C082E290E08093C5459093C64519
:10502000C501B40109C060E070E080E89FEF04C0F2
:1050300060E070E080EC9FE7DF91CF911F910F91CE
:10504000FF90EF90DF90CF90BF90AF909F908F90A8
:105050000895FC0188279927E89421912032E9F3EB
:10506000293010F02E30C8F32B3241F02D3239F4B4
:10507000689404C00E949229820F911D21912053AF
:105080002A30C0F31EF4909581959F4F08951F9389
:10509000FC0199278827BC01E89411911032E9F3AB
:1050A000193010F01E30C8F31B3251F01D3249F494
:1050B000689406C00E947D29610F711D811D911D9C
:1050C000119110531A30B0F33EF49095809570957D
:1050D00061957F4F8F4F9F4F1F910895283008F0A3
:1050E00027E03327DA01990F311D87FD9160009683
:1050F0006105710539F432602E5F3D9330E32A95E6
:10510000E1F708959F3F30F080387105610509F09F
:105110003C5F3C5F3D93913008F08068911DDF93C8
:10512000CF931F930F93FF92EF92192F987F96952D
:10513000E92F96959695E90FFF27E350FD4F9927A4
:105140003327EE24FF24A701E70105900894079474
:1051500028F4360FE71EF81E491F511D660F771FF2
:10516000881F991F0694A1F70590079428F4E70E6D
:10517000F81E491F561FC11D770F881F991F661FF4
:105180000694A1F70590079428F4F80E491F561FBE
:10519000C71FD11D880F991F661F771F0694A1F79F
:1051A0000590079420F4490F561FC71FD81F990F69
:1051B000661F771F881F0694A9F7849110951770B2
:1051C00041F0D695C79557954795F794E7941A956A
:1051D000C1F7E3EAF2E06894159015913591659175
:1051E000959105907FE27395E118F10A430B560BF8
:1051F000C90BD009C0F7E10CF11E431F561FC91F90
:10520000D01D7EF4703311F48A95E6CFE8940150F6
:1052100030F0080F0AF40027021708F4202F239516
:10522000022F7A3328F079E37D932A95E9F710C0AD
:105230007D932A9589F606949795679537951795E6
:105240001794E118F10A430B560BC90BD00998F0DB
:1052500023957E9173957A3308F070E37C93201345
:10526000B8F77E9170617D9330F0839571E37D9303
:1052700070E32A95E1F71124EF90FF900F911F91B1
:10528000CF91DF91992787FD9095089591110C9406
:105290006B2A803219F089508550C8F70895FB01B8
:1052A000DC014150504088F08D9181341CF08B35E9
:1052B0000CF4805E659161341CF06B350CF4605E1B
:1052C000861B611171F3990B0895881BFCCFFC01BB
:1052D0000590615070400110D8F7809590958E0F21
:1052E0009F1F0895FC016150704001900110D8F794
:1052F000809590958E0F9F1F0895592F482F372F17
:10530000262F660F771F881F991F660F771F881F2C
:10531000991F620F731F841F951F660F771F881FC9
:10532000991F08957AE0979F902D879F802D910D6A
:10533000112408950F931F93CF93DF93FB012381D3
:1053400021FD03C08FEF9FEF2CC022FF16C04681C6
:105350005781248135814217530744F4A081B181DC
:105360009D012F5F3F4F208331838C9326813781AE
:105370002F5F3F4F2683378314C08B01EC01FB0165
:105380000084F185E02D0995892BE1F6D801169668
:105390008D919C911797019616968D939C931797D4
:1053A000CE01DF91CF911F910F9108950F931F931D
:1053B000CF93DF93CDB7DEB72E97CDBFDEBF0D897C
:1053C0001E898F89988D26E02C8309831A8397FF85
:1053D00002C080E090E801978D839E83AE01455E18
:1053E0005F4F698D7A8DCE0101960E949D214D817E
:1053F0005E8157FD0AC02F813885421753070CF490
:105400009A01F801E20FF31F10822E96CDBFDEBF86
:10541000DF91CF911F910F910895FA01AA272830AB
:1054200051F1203181F1E8946F936E7F6E5F7F4F71
:105430008F4F9F4FAF4FB1E03ED0B4E03CD0670FED
:10544000781F891F9A1FA11D680F791F8A1F911D40
:10545000A11D6A0F711D811D911DA11D20D009F490
:1054600068943F912AE0269F11243019305D3193D2
:10547000DEF6CF010895462F4770405D4193B3E0BB
:105480000FD0C9F7F6CF462F4F70405D4A3318F062
:10549000495D31FD4052419302D0A9F7EACFB4E013
:1054A000A6959795879577956795BA95C9F70097CB
:1054B0006105710508959B01AC010A2E069457956C
:1054C000479537952795BA95C9F7620F731F841FC3
:1054D000951FA01D0895992788270895F894FFCF58
:1054E0000000C74520004F49FF49794149495536D9
:1054F000101814127F1C2A49291041211109050393
:10550000142A492A14462A190A041C225151727F6E
:1055100002040810207F7F0204027F7F09192640C1
:1055200040101402141040FFFFFFFFFFFFFFFFFFBA
:10553000FFFFFFFFB5620600140001000000D00865
:1055400000000008070007000300000000000CBC7A
:10555000B56206010800F00A0000000000000969B9
:10556000B56206010800F04400000000000043FF9F
:10557000B56206010800F0090000000000000862A2
:10558000B56206010800F000000000000000FF23E3
:10559000B56206010800F001000000000000002ACA
:1055A000B56206010800F04300000000000042F868
:1055B000B56206010800F04200000000000041F161
:1055C000B56206010800F00D0000000000000C7E2E
:1055D000B56206010800F0400000000000003FE353
:1055E000B56206010800F006000000000000054D4D
:1055F000B56206010800F002000000000000013161
:10560000B56206010800F007000000000000065423
:10561000B56206010800F003000000000000023837
:10562000B56206010800F00E0000000000000D85C4
:10563000B56206010800F04100000000000040EAE9
:10564000B56206010800F00F0000000000000E8C9B
:10565000B56206010800F0050000000000000446E5
:10566000B56206010800F008000000000000075BBA
:10567000B562060806007D000100000092A6B56232
:10568000060806007D000100010093A8B562060827
:1056900006007D000100020094AAB562060806001B
:1056A0007D000100030095ACB562060806007D0090
:1056B0000100040096AE25640025332E32660025D5
:0256C000580090
:00000001FF
