:100000000C94CF010C94EE010C94EE010C94EE01D3
:100010000C94EE010C94F40B0C94EE010C94EE0194
:100020000C94EE010C94EE010C94EE010C94360944
:100030000C9452090C946E090C941C0C0C94490CF1
:100040000C94EE010C94EE010C94EE010C94EE0174
:100050000C94EE010C94EE010C94EE010C94EE0164
:100060000C94EE010C94EE010C94EE010C94EE0154
:100070000C94EE010C94EE010C94EE010C94EE0144
:100080000C94EE010C94EE010C94EE010C94EE0134
:100090000C94EE010C94EE010C94EE010C94EE0124
:1000A0000C94EE010C94EE010C94EE010C94EE0114
:1000B0000C94EE010C94EE010C94EE010C94EE0104
:1000C0000C94EE010C948A090C94EE010C94EE0150
:1000D0000C94EE010C94181A0C94EE010C94EE01A1
:1000E0000C94EE010C94EE010C94EE010C94EE01D4
:1000F0000C94EE01050614061406140614061406E4
:100100000F0614060A060006BF0514069205190616
:1001100097059C05A105A605AB05B005B505BA0573
:100120001406140614061406140614061406EC0528
:100130001406F105FB05D805F605C405D30514061C
:1001400014061406DD05CE05C905E20514061406DD
:10015000E705460656066606760686069606A6064F
:10016000B6060A081A082A083B084B085B086B0801
:10017000084AD73B3BCE016E84BCBFFDC12F3D6C0E
:1001800074319ABD56833DDA3D00C77F11BED9E474
:10019000BB4C3E916BAAAABE000000803F05A84C54
:1001A000CDB2D44EB93836A9020C50B99186880820
:1001B0003CA6AAAA2ABE000000803F0664EC1B3CB5
:1001C00004BC163E3BE5B93CC93C37C29E5A3D666D
:1001D0000498083EEA69AAAA3E000000803F07632F
:1001E0004236B79BD8A71A39685618AEBAAB558CA9
:1001F0001D3CB7CC5763BD6DEDFD753EF6177231F2
:10020000BF000000803F08000000BE922449123E5B
:10021000ABAAAA2ABECDCCCC4C3E00000080BEAB1F
:10022000AAAAAA3E00000000BF000000803F000014
:10023000000000084178D3BB4387D1133D190E3C21
:10024000C3BD4282AD2B3E68EC8276BED98FE1A958
:100250003E4C80EFFFBE01C4FF7F3F000000000066
:100260006E616E00696E66004E414E494E495459AA
:10027000494E46CDCCCC3D0AD7233C17B7D1387771
:10028000CC2B329595E6241FB14F0A000020410087
:1002900000C84200401C4620BCBE4CCA1B0E5AAED1
:1002A000C59D7400407A10F35A00A0724E180900E0
:1002B00010A5D4E80000E87648170000E40B5402CB
:1002C0000000CA9A3B000000E1F505000080969806
:1002D00000000040420F000000A086010000001056
:1002E0002700000000E80300000000640000000098
:1002F000000A00000000000100000000002C76D879
:1003000088DC674F0823DFC1DFAE59E1B1B796E55E
:10031000E3E453C63AE651997696E8E6C28426EBC2
:10032000898C9B62ED407C6FFCEFBC9C9F40F2BAD5
:10033000A56FA5F490055A2AF75C936B6CF9676D6D
:10034000C11BFCE0E40D47FEF520E6B500D0ED90C2
:100350002E0300943577050080841E080000204E8F
:100360000A000000C80C333333330F986E12831128
:1003700041EF8D2114893BE65516CFFEE6DB18D1FF
:10038000844B381BF77C1D901DA4BBE424203284D1
:10039000725E228100C9F124ECA1E53D2700112401
:1003A0001FBECFEFCDBFDFE7DEBF11E4A0E0B0E4BA
:1003B000E4EEF5E500E00BBF02C007900D92A23E0F
:1003C000B107D9F72CE4A2EEB1E401C01D92A33D20
:1003D000B207E1F70E94E50B0C94F02A0C940000A0
:1003E000E0E0F4E08081806E8083E0E2F4E08081F0
:1003F0008C608083E0E4F4E0808185608083E4E0C9
:10040000F4E08081806E8083E4E2F4E080818C609F
:100410008083E0E6F9E08081816280830895AF9275
:10042000BF92CF92DF92EF92FF920F931F93CF93E1
:10043000DF93182FB62EE901813471F4E4E0F4E083
:10044000208181E090E002C0880F991F6A95E2F751
:1004500080958223808310C0823409F070C0E4E26A
:10046000F4E0208181E090E002C0880F991F6A9536
:10047000E2F780958223808340936409C12CD12CBC
:10048000760112C08FEFC81AD80AE80AF80AC70125
:10049000B6010E94A01E20E030E543EC57E40E9424
:1004A000B81F18160CF44DC080916309882354F7C7
:1004B000E3E6F9E080818F77808380E01DC01092B1
:1004C000640911C08FEFC81AD80AE80AF80AC701F0
:1004D000B6010E94A01E20E030E543EC57E40E94E4
:1004E000B81F181684F18091630988235CF7809106
:1004F000640988838A2D2196AA24A394A80E8017C4
:10050000F0F2113471F4E4E0F4E0208181E090E055
:1005100002C0880F991FBA94E2F7822B808382E091
:1005200013C0E4E2F4E0208181E090E002C0880F93
:10053000991FBA94E2F7822B808382E005C080E0A5
:1005400003C081E001C081E0DF91CF911F910F9145
:10055000FF90EF90DF90CF90BF90AF900895CF9233
:10056000DF92EF92FF921F93CF93DF93813479F460
:10057000A4E0B4E09C91E1E0F0E0062E02C0EE0FB2
:10058000FF1F0A94E2F7E095E923EC9311C082344F
:1005900009F062C0A4E2B4E09C91E1E0F0E0062E34
:1005A00002C0EE0FFF1F0A94E2F7E095E923EC93F7
:1005B000122FD62FC82F40936409C12CD12C76015D
:1005C00011C08FEFC81AD80AE80AF80AC701B601A5
:1005D0000E94A01E20E030E543EC57E40E94B81FC3
:1005E0001816E4F19091630999235CF7109364095C
:1005F00011C08FEFC81AD80AE80AF80AC701B60175
:100600000E94A01E20E030E543EC57E40E94B81F92
:10061000181634F19091630999235CF7C13471F491
:10062000E4E0F4E0208181E090E002C0880F991FAF
:10063000DA95E2F7822B808382E013C0E4E2F4E0F3
:10064000208181E090E002C0880F991FDA95E2F7DF
:10065000822B808382E005C080E003C081E001C07E
:1006600081E0DF91CF911F91FF90EF90DF90CF90CD
:100670000895E0E0F9E080818C60808389E18093D7
:100680000609E3E0F9E0808183618083E5E0F9E039
:10069000808181608083E2E1F4E0808188608083F2
:1006A000E3E1F4E08081886080830895AF92BF9297
:1006B000CF92DF92EF92FF920F931F93CF93DF932E
:1006C000B62EEA01122F880F80930709C12CD12C76
:1006D000760112C08FEFC81AD80AE80AF80AC701D3
:1006E000B6010E94A01E20E034E244E759E40E94D3
:1006F000B81F18160CF454C08091050986FFEACF84
:100700008091050984FD4EC0B092080911C08FEF99
:10071000C81AD80AE80AF80AC701B6010E94A01E42
:1007200020E034E244E759E40E94B81F1816E4F1CF
:100730008091050986FFEBCF8091050984FD36C0C5
:1007400080E023C05E018FEFA81AB80A88818093E9
:10075000080911C08FEFC81AD80AE80AF80AC701B9
:10076000B6010E94A01E20E034E244E759E40E9452
:10077000B81F1816ECF08091050986FFEBCF909119
:100780000509802F94FD16C0E50101E0080F8117CF
:10079000C8F2E4E0F9E080818360808384E00BC0EC
:1007A00083E009C080E007C083E005C081E003C0AA
:1007B00083E001C082E0DF91CF911F910F91FF9004
:1007C000EF90DF90CF90BF90AF9008950F931F935D
:1007D000CF93DF931F92CDB7DEB7198201E09E0160
:1007E0002F5F3F4F42E465E081E40E940F02182F23
:1007F000127020E841E865E081E40E94AF0218230E
:1008000024EE46E865E081E40E94AF02182320EC64
:1008100047E865E081E40E94AF02182320E048E841
:1008200065E081E40E94AF02182325E041E865E01D
:1008300081E40E94AF02182321E149E865E081E4E8
:100840000E94AF02182381E0123009F080E00F907F
:10085000DF91CF911F910F910895EF92FF920F9327
:100860001F93CF93DF93CDB7DEB72697CDBFDEBF03
:10087000198201E09E012F5F3F4F43E165E081E473
:100880000E940F021981812F90E00E942E267C0188
:10089000153080F11E829E012A5F3F4F40E165E0E6
:1008A00081E40E940F022E814DE865E081E40E9400
:1008B000AF020981970140E065E081E40E940F02E8
:1008C000F70180818533B1F48181823399F482818B
:1008D0008A8383818B8384818C831D82CE010296DF
:1008E0000E94AB28082F192FC7010E94C626802F0F
:1008F000912F05C0C7010E94C62680E090E0269691
:10090000CDBFDEBFDF91CF911F910F91FF90EF9090
:1009100008950F931F93CF93DF93CDB7DEB7CB57D7
:10092000D109CDBFDEBF19821A821B821C8240E42E
:100930004D831E8258E05F835887598790E29A87DB
:1009400090E69B871C8692E09D8727E02E879F87F5
:1009500095E0E6E0F0E4DE01509601900D929A9564
:10096000E1F76EE36D8B31E43E8B3F8B688F92E451
:10097000998F9FE79A8F4B8F79E77C8F29E42D8F92
:100980002E8F1FE41F8F05E0EBE0F0E4DE01909670
:1009900001900D920A95E1F705E0E0E1F0E4DE0157
:1009A000959601900D920A95E1F71AA72BA72CA70F
:1009B0007DA775E0E5E1F0E4DE019E9601900D92E1
:1009C0007A95E1F776E0EAE1F0E4DE01D396019072
:1009D0000D927A95E1F775E0E0E2F0E4DE01D99658
:1009E00001900D927A95E1F775E0E5E2F0E4DE0121
:1009F000DE9601900D927A95E1F775E0EAE2F0E477
:100A0000DE01AD5BBF4F01900D927A95E1F777E083
:100A1000EFE2F0E4DE01A85BBF4F01900D927A9502
:100A2000E1F775E0E6E3F0E4DE01A15BBF4F019082
:100A30000D927A95E1F765969FAF659766965FAFE1
:100A4000669767965FAF679768969FAF6897699656
:100A50009FAF69976A962FAF6A976B962FAF6B9788
:100A60006C962FAF6C976D969FAF6D976E964FAF4C
:100A70006E976F964FAF6F97A0964FAFA097A196C6
:100A80006FAFA197A2963FAFA297A3963FAFA39750
:100A9000A4966FAFA49725E0EBE3F0E4DE01AC5938
:100AA000BF4F01900D922A95E1F727E0E0E4F0E4D2
:100AB000DE01A759BF4F01900D922A95E1F74CE155
:100AC000E1964FAFE19722E2E2962FAFE297E396ED
:100AD0003FAFE397E4962FAFE497E5969FAFE59796
:100AE00051E1E6965FAFE697E7965FAFE79751E093
:100AF000E8965FAFE897E9969FAFE997EA963FAF30
:100B0000EA97EB962FAFEB97EC964FAFEC9790E010
:100B1000FC01B497EF32F10508F086C0E658FF4FAC
:100B20000C94CF2524E0AE014B5E5F4F86C024E0DD
:100B3000AE01445E5F4F81C025E0AE01405E5F4F75
:100B40007CC025E0AE014B5D5F4F77C024E0AE0175
:100B5000465D5F4F72C025E0AE01425D5F4F6DC0E4
:100B600026E0AE014D5C5F4F68C025E0AE01475CFA
:100B70005F4F63C025E0AE01425C5F4F5EC023E083
:100B8000AE014C5F5F4F59C025E0AE014D5B5F4F3A
:100B900054C027E0AE01485B5F4F4FC025E0AE0177
:100BA000415B5F4F4AC024E0AE014C5A5F4F45C0E5
:100BB00024E0AE01485A5F4F40C024E0AE01445AE1
:100BC0005F4F3BC024E0AE01405A5F4F36C025E086
:100BD000AE014C595F4F31C027E0AE0147595F4F1E
:100BE0002CC024E0AE0140595F4F27C024E0AE0185
:100BF0004C585F4F22C024E0AE0148585F4F1DC0E3
:100C000023E0AE01495F5F4F18C025E0AE01405FB1
:100C10005F4F13C023E0AE01465F5F4F0EC023E07D
:100C2000AE01435F5F4F09C023E0AE014F5F5F4FEE
:100C300004C023E0AE01475E5F4F60E48CE30E9496
:100C4000560391E0843009F090E0892FC558DF4FBA
:100C5000CDBFDEBFDF91CF911F910F910895FF921D
:100C60000F931F93CF93DF93CDB7DEB76E97CDBFB2
:100C7000DEBF01E0F12C8F2D90E08830910508F067
:100C800084C0FC01E755FF4F0C94CF2580EB8E8F7D
:100C900021E0AE01425E5F4F60E88CE30E945603A4
:100CA00091E0843009F090E009236FC081EB8D8FD3
:100CB00021E0AE01435E5F4F60E88CE30E94560383
:100CC00091E0843009F090E009235FC082EB8C8FC3
:100CD00021E0AE01445E5F4F60E88CE30E94560362
:100CE00091E0843009F090E009234FC083EB8B8FB3
:100CF00021E0AE01455E5F4F60E88CE30E94560341
:100D000091E0843009F090E009233FC084EB8A8FA2
:100D100021E0AE01465E5F4F60E88CE30E9456031F
:100D200091E0843009F090E009232FC085EB898F92
:100D300021E0AE01475E5F4F60E88CE30E945603FE
:100D400091E0843009F090E009231FC086EB888F82
:100D500021E0AE01485E5F4F60E88CE30E945603DD
:100D600091E0843009F090E009230FC087EB8F8B6E
:100D700021E0AE01495E5F4F60E88CE30E945603BC
:100D800091E0843009F090E00923F39488E08F1516
:100D900080F11D8A21E0AE014B5E5F4F60E88CE37D
:100DA0000E94560391E0843009F090E0092380E12D
:100DB0008E8B21E0AE014A5E5F4F60E88CE30E94BB
:100DC000560391E0843009F090E0092310E00EC052
:100DD000AE014F5F5F4F84E1FA0111928A95E9F706
:100DE00024E160E48CE30E9456031F5F173080F318
:100DF00042CF802F6E96CDBFDEBFDF91CF911F9186
:100E00000F91FF9008951F93CF93DF93CDB7DEB777
:100E10002797CDBFDEBF88EA89838FE38A8322E0EC
:100E2000AE014F5F5F4F60E08CE30E94560311E01C
:100E3000843009F010E083ED89831A8222E0AE014C
:100E40004F5F5F4F60E08CE30E94560391E0843077
:100E500009F090E0192380E48B8321E0AE014D5F1F
:100E60005F4F60E88CE30E94560391E0843009F004
:100E700090E0192380EA8C8321E0AE014C5F5F4F44
:100E800060E88CE30E94560391E0843009F090E022
:100E9000192380EC8D8321E0AE014B5F5F4F60E84A
:100EA0008CE30E94560391E0843009F090E019230E
:100EB0008AED898382E08A8322E0AE014F5F5F4F33
:100EC00060E08CE30E94560391E0843009F090E0EA
:100ED000192381E889838FE78A8322E0AE014F5F7F
:100EE0005F4F60E08CE30E94560391E0843009F08C
:100EF00090E0192384EA8E8321E0AE014A5F5F4FC0
:100F000060E88CE30E94560391E0843009F090E0A1
:100F1000192386EA8F8321E0AE01495F5F4F60E8C5
:100F20008CE30E94560391E0843009F090E019238D
:100F300085ED898380E88A8322E0AE014F5F5F4FB1
:100F400060E08CE30E94560391E0843009F090E069
:100F500019238DE8898384E18A8322E0AE014F5F03
:100F60005F4F60E08CE30E94560391E0843009F00B
:100F700090E019238FEA898321E0AE014F5F5F4F34
:100F800060E88CE30E94560391E0843009F090E021
:100F900019230E942F0681232796CDBFDEBFDF9144
:100FA000CF911F910895DF92EF92FF920F931F93BD
:100FB000CF93DF93CDB7DEB72A97CDBFDEBF082F23
:100FC0007B01D42E198621E0AE01475F5F4F60E8B8
:100FD0008CE30E94560311E0843009F010E080E1B8
:100FE0008A8721E0AE01465F5F4F60E88CE30E9494
:100FF000560391E0843009F090E01923802F90E0AF
:10100000FC013197E730F10508F075C0EF54FF4F50
:101010000C94CF2581EB888721E0AE01485F5F4FBC
:1010200060E88CE30E94560391E0843009F090E080
:1010300019231FC082EB8F8321E0AE01495F5F4F10
:1010400060E88CE30E94560391E0843009F090E060
:1010500019230FC083EB8E8321E0AE014A5F5F4FFF
:1010600060E88CE30E94560391E0843009F090E040
:10107000192300E05CC084EB8D8321E0AE014B5F5F
:101080005F4F60E88CE30E94560391E0843009F0E2
:1010900090E01923EECF85EB8C8321E0AE014C5F0D
:1010A0005F4F60E88CE30E94560391E0843009F0C2
:1010B00090E01923DECF86EB8B8321E0AE014D5FFC
:1010C0005F4F60E88CE30E94560391E0843009F0A2
:1010D00090E01923CECF87EB8A8321E0AE014E5FEB
:1010E0005F4F60E88CE30E94560391E0843009F082
:1010F00090E01923BECF80EB898321E0AE014F5FE2
:101100005F4F60E88CE30E94560391E0843009F061
:1011100090E01923AECFF701E00FF11D80810E940E
:101120008904182380E20E94890418230F5FD016D7
:1011300090F7812F2A96CDBFDEBFDF91CF911F910F
:101140000F91FF90EF90DF900895CF93DF93CDB78D
:10115000DEB72897CDBFDEBF2091E2413091E34159
:10116000232B89F01BC0A901440F551FBA01620F40
:10117000731F6854744FFA01EE51FE4B6083718304
:101180002F5F3F4F02C020E030E0293E43E03407AC
:1011900050F3E0E6F4E020812F602083FE013196D9
:1011A00028E0DF011D922A95E9F760E025C0E62FCF
:1011B000F0E0EE0FFF1FE80FF91F20813181293E7B
:1011C000B3E03B0710F028EE33E020833183462F55
:1011D00050E0220F331FF901EE51FE4B2081318187
:1011E000FA01EE0FFF1F41E050E04C0F5D1FE40FCE
:1011F000F51F208331836F5F6430C8F2E0E0FAE0CE
:1012000080818E7F808389819A818093280A909340
:10121000290A8B819C8180932A0A90932B0A8D81C5
:101220009E8180932C0A90932D0A8F8198858093BC
:10123000680A9093690A1092200A1092210A10926B
:10124000600A1092610AA4E6B4E08C918F608C93DE
:10125000808181608083E0E4FAE080818160808326
:101260002896CDBFDEBFDF91CF9108951F920F92D8
:101270000FB60F9211240BB60F928F93EF93FF933B
:10128000E4E6F4E080818E7F808380E180930B0A26
:10129000FF91EF918F910F900BBE0F900FBE0F90AB
:1012A0001F9018951F920F920FB60F9211240BB634
:1012B0000F928F93EF93FF93E4E6F4E080818D7FAC
:1012C000808380E280930B0AFF91EF918F910F90C2
:1012D0000BBE0F900FBE0F901F9018951F920F928C
:1012E0000FB60F9211240BB60F928F93EF93FF93CB
:1012F000E4E6F4E080818B7F808380E480930B0AB6
:10130000FF91EF918F910F900BBE0F900FBE0F903A
:101310001F9018951F920F920FB60F9211240BB6C3
:101320000F928F93EF93FF93E4E6F4E08081877F41
:10133000808380E180934B0AE0E4FAE080818E7F35
:101340008083FF91EF918F910F900BBE0F900FBE96
:101350000F901F901895E0E4F1E080818560808314
:10136000E2E4F1E080818260808380E090E8809315
:101370004C0190934D01E0E0FAE08081866080832B
:10138000EAE0FAE0808180678083EAE4FAE0808125
:1013900080618083E0E0FBE0808183608083E5E022
:1013A000FBE080818160808380E69AEE80930C0B65
:1013B00090930D0BE0E1FBE0808183608083E5E1A9
:1013C000FBE08081816080838DE591EE80931C0B32
:1013D00090931D0B08956F927F928F929F92AF9280
:1013E000BF92CF92DF92EF92FF920F931F93CF9312
:1013F000DF93CDB7DEB7A397CDBFDEBF182F8091A7
:10140000CB4B882391F01092CB4B89E19AE40E9458
:101410007B13811105C080959091184A892303C0E0
:101420009091184A892B8093184A80917D4A833085
:10143000B0F010927D4A89E19AE40E94B10C8111CA
:1014400006C0880F80959091184A892306C090E0C5
:10145000880F991F9091184A892B8093184A809180
:101460007E4A8230E0F010927E4A89E19AE40E943E
:10147000830F811108C0880F880F880F8095909185
:10148000184A89230AC090E0880F991F880F991F76
:10149000880F991F9091184A892B8093184A809140
:1014A0007A4A8823C9F010927A4A89E19AE40E9424
:1014B000740D811107C0880F880F80959091184A8C
:1014C000892308C090E0880F991F880F991F909179
:1014D000184A892B8093184A80917C4A883030F0D2
:1014E00010927C4A89E19AE40E94441A8091794AD8
:1014F000843138F11092794A8CEB99E40E942D04E2
:10150000E4EBF9E4868397832FE0AE014F5F5F4FF2
:101510007A01FA01322F11923A95E9F79F938F934E
:1015200086ED91E49F938F931F922F935F934F9338
:101530000E94582A482FB70183E00E94D307CDBFED
:10154000DEBF80917B4A823308F473C015FF71C0FF
:1015500010927B4A0F2EFAE07F2EF02D5E015AE1A9
:10156000A50EB11CF501372D11923A95E9F76E01E0
:1015700040E1C40ED11CF601372D11923A95E9F7DE
:101580000F2EFFE06F2EF02DAE014F5F5F4F4A012F
:10159000FA01362D11923A95E9F709E11AE4F801BA
:1015A00084A195A126A137A13F932F939F938F9359
:1015B0000F2EF9EDEF2EF1E4FF2EF02DFF92EF92BA
:1015C0001F927F92BF92AF920E94582A482FB50176
:1015D00080E00E94D307F80180A591A522A533A53C
:1015E0003F932F939F938F93FF92EF921F927F923F
:1015F000DF92CF920E94582A482FB60181E00E94C4
:10160000D307F80184A595A526A537A53F932F9369
:101610009F938F93FF92EF921F926F929F928F9260
:101620000E94582A482FB40182E00E94D307CDBF00
:10163000DEBF80917F4A823030F010927F4A84EB87
:1016400099E40E94A508A396CDBFDEBFDF91CF919C
:101650001F910F91FF90EF90DF90CF90BF90AF90D0
:101660009F908F907F906F9008955F926F927F927E
:101670008F929F92AF92BF92CF92DF92EF92FF92A2
:101680000F931F93CF93DF93CDB7DEB72897CDBFCE
:10169000DEBF522E632E742E852E962EB72FF82F76
:1016A000E92F19821A821B821C821D821E821F82D0
:1016B000188629813A814B815C816D817E818F8181
:1016C0009885A1E00E940A2629833A834B835C8394
:1016D0006D837E838F839887A52CB62CC72CD82C3E
:1016E000E92CFB2E0F2F1E2F0E94162610F3289692
:1016F000CDBFDEBFDF91CF911F910F91FF90EF9093
:10170000DF90CF90BF90AF909F908F907F906F9021
:101710005F900895FF920F931F93CF93DF93809173
:10172000400080FF0AC020EA36E841E050E060E077
:1017300070E080E090E00E94350B94E288ED84BF79
:10174000909368008091650081FFFCCF0E944D1846
:10175000082F0E94F0010E9439030E94E603F82E30
:101760000E94500FC82F0E94410DD82F0E945D0C7F
:10177000182F0E940307612F70E0660F771F4D2F0F
:1017800050E0440F551F440F551F2C2F30E0220FFF
:10179000331F220F331F220F331F90E1F99EF001F8
:1017A0001124A0E28A9FC0011124602B462B242B18
:1017B0002E2BC22FC82B0E94AB0978948C2FDF915F
:1017C000CF911F910F91FF900895CF930E948A0BA4
:1017D000C82F8F718F3121F48C2F0E94EB09FCCF21
:1017E00080E090E0CF9108951F920F920FB60F9274
:1017F00011248F939F93AF93BF938091754A9091DB
:10180000764AA091774AB091784A0196A11DB11D00
:101810008093754A9093764AA093774AB093784A1A
:1018200082E080934301BF91AF919F918F910F9080
:101830000FBE0F901F9018951F920F920FB60F9228
:1018400011248F938091794A8F5F8093794A809198
:101850007F4A8F5F80937F4A80917B4A8F5F80931E
:101860007B4A80917D4A8F5F80937D4A80917C4A3C
:101870008F5F80937C4A80917E4A8F5F80937E4AFF
:1018800081E08093060B8F910F900FBE0F901F90F9
:1018900018951F920F920FB60F9211248F9380917B
:1018A0007A4A8F5F80937A4A81E08093160B8F91FA
:1018B0000F900FBE0F901F9018950F931F93CF930B
:1018C000DF931F92CDB7DEB7198201E09E012F5F33
:1018D0003F4F4FE867E081E40E940F02182F12701B
:1018E00027E04EE067E081E40E94AF0218232CE578
:1018F00040E167E081E40E94AF02182322E141E168
:1019000067E081E40E94AF028123823011F080E021
:1019100001C081E00F90DF91CF911F910F91089549
:101920000E94A01E2AE037ED43E252E40E94F81D17
:1019300020E836EE45EC57E40E94F81D2FE135ED26
:1019400042E45EE30E94322020E030E040E85FE3C2
:101950000E940F1D24EC3AE24DE257EC0E94C51F95
:101960000895EF92FF920F931F93CF93DF93CDB71C
:10197000DEB72797CDBFDEBF7C0119821A821B829A
:1019800003E09E012F5F3F4F48EA67E081E40E9439
:101990000F02823009F068C08B8190E0A0E0B0E0D7
:1019A000DC01992788272A8130E0322F2227820FF5
:1019B000931FA11DB11D2981820F911DA11DB11D74
:1019C000E091CA4B21E02E0F2093CA4BF0E0EE0FBE
:1019D000FF1FEE0FFF1FE657F44B80839183A28316
:1019E000B383203108F442C01C821D821E821F82F4
:1019F00080E019C0E82FF0E0EE0FFF1FEE0FFF1F91
:101A0000E657F44B00811181228133814C815D8145
:101A10006E817F81400F511F621F731F4C835D8356
:101A20006E837F838F5F803128F38C819D81AE81AF
:101A3000BF81689413F8B695A795979587951694E6
:101A4000D1F78C839D83AE83BF836C817D818E8132
:101A50009F810E94900CF70160AB71AB82AB93AB9E
:101A60001092CA4B81E003C080E001C081E027965C
:101A7000CDBFDEBFDF91CF911F910F91FF90EF900F
:101A800008950F931F93CF93DF931F92CDB7DEB7C7
:101A9000198201E09E012F5F3F4F4FE866E081E42D
:101AA0000E940F02182F127020E540E166E081E4E9
:101AB0000E94AF02182324E541E166E081E40E9420
:101AC000AF02182328EC47E166E081E40E94AF02F0
:101AD0008123823011F080E001C081E00F90DF911E
:101AE000CF911F910F9108958F929F92AF92BF92C5
:101AF000EF92FF920F931F93CF93DF93CDB7DEB793
:101B0000AA97CDBFDEBF7C019E012F5F3F4F8CE0C7
:101B1000D9011D928A95E9F70CE042EA66E081E47A
:101B20000E940F02823009F0AAC160E043C07091A8
:101B3000894B862F90E0AC01440F551FFA01379670
:101B400021E030E02C0F3D1FE20FF31F208130E039
:101B5000322F2227FC013396EE0FFF1FA1E0B0E0E9
:101B6000AC0FBD1FEA0FFB1FE0812E0F311D880F48
:101B7000991F880F991F880F991F870F911D880F34
:101B8000991FFC01E75AF44B20833183FA01319607
:101B9000EA0FFB1F208130E0322F2227FD01E40FE6
:101BA000F51F4081240F311DFC01E75DF44B2083BC
:101BB00031836F5F633008F4BACF8091894B8F5FB8
:101BC0008093894B883008F45CC11092894B8CE07B
:101BD000FE017996DF01282F1D922A95E9F73C979F
:101BE000DF011D928A95E9F730E074C0832F90E001
:101BF000FC01EE0FFF1FEE0FFF1F41E050E04C0F06
:101C00005D1FE40FF51F808C918CA28CB38C880F24
:101C1000991F880F991F880F991F820F911D880F98
:101C2000991FDC01A75AB44B4D915C91052E000C15
:101C3000660B770B480D591D6A1D7B1D408F518F18
:101C4000628F738F4485558566857785DC01A75D36
:101C5000B44B8D919C91092E000CAA0BBB0B840FE9
:101C6000951FA61FB71F84879587A687B7872F5F05
:101C700001C020E0283008F4B9CFE32FF0E0EE0FE8
:101C8000FF1FEE0FFF1F81E090E08C0F9D1FE80FFC
:101C9000F91F808D918DA28DB38D689412F8B59542
:101CA000A795979587951694D1F7808F918FA28FDE
:101CB000B38F84859585A685B785689412F8B59508
:101CC000A795979587951694D1F784879587A687CA
:101CD000B7873F5F333068F28091754A9091764ABA
:101CE000A091774AB091784A892B8A2B8B2BD1F41B
:101CF0008D859E85AF85B889E3E2FBE4919581955A
:101D000091098083918389899A89AB89BC8982836F
:101D100093838D899E89AF89B88D9195819591091D
:101D2000848395838D859E85AF85B889E3E2FBE446
:101D300020813181919581959109821B930B8DA30F
:101D40009EA389899A89AB89BC8922813381821BB0
:101D5000930B8FA398A78D899E89AF89B88D248115
:101D60003581919581959109821B930B89A79AA73B
:101D700010E037C0A12EB12CF501EE0FFF1FA1E03E
:101D8000B0E0AC0FBD1FEA0FFB1F64A175A1072EC9
:101D9000000C880B990B0E94A21E20E030E04AEF55
:101DA00053E40E94C51F20E030E040E058E30E9469
:101DB000C51F2BED3FE049E450E40E94C51F20E021
:101DC00030E044E353E40E94F81DAA0CBB1CAA0CAB
:101DD000BB1CF701EA0DFB1D608371838283938333
:101DE0001F5F133038F2698D7A8D8B8D9C8D0E9428
:101DF000A21E9B01AC010E94101D20E030E040E0DB
:101E000058E30E94C51FF701648775878687978707
:101E10008D8D9E8DAF8DB8A19C01AD016627772772
:101E2000CB01621B730B840B950B0E94A21E9B01BE
:101E3000AC010E94101D20E030E040E058E30E9419
:101E4000C51FD70150966D937D938D939C935397A7
:101E500069A17AA18BA19CA10E94A21E9B01AC0149
:101E60000E94101D20E030E040E058E30E94C51FB2
:101E7000F701648B758B868B978B81E003C080E0C4
:101E800001C081E0AA96CDBFDEBFDF91CF911F9147
:101E90000F91FF90EF90BF90AF909F908F9008951B
:101EA0000F931F93CF93DF931F92CDB7DEB71982A5
:101EB00024E342E663E082E40E94AF02182F12702E
:101EC00001E09E012F5F3F4F4FEC63E082E40E94F0
:101ED0000F0218232CE840E663E082E40E94AF0280
:101EE000182321E041E663E082E40E94AF028123EF
:101EF000823011F080E001C081E00F90DF91CF913E
:101F00001F910F9108954F925F926F927F928F92DF
:101F10009F92AF92BF92EF92FF920F931F93CF9336
:101F2000DF93CDB7DEB76297CDBFDEBF7C019E01E8
:101F30002F5F3F4F86E0D9011D928A95E9F706E0B1
:101F400048EE63E082E40E940F02823009F0F2C1A1
:101F500060E02CC07091224B862F90E0AC01440FC2
:101F6000551FFA01319621E030E02C0F3D1FE20FA2
:101F7000F31F208130E0322F2227E1E0F0E0EC0F68
:101F8000FD1FE40FF51F4081240F311DFC01E29578
:101F9000F295F07FFE27E07FFE27E70FF11DEE0FA1
:101FA000FF1FEE53F54B208331836F5F633090F258
:101FB0008091224B8F5F8093224B803108F4BCC10B
:101FC0001092224BFE0137968CE0DF011D928A951C
:101FD000E9F730E019C1832F90E0DC01AA0FBB1FA5
:101FE000AA0FBB1FE1E0F0E0EC0FFD1FAE0FBF1F1B
:101FF00016968D909D90AD90BC901997FC01E2953E
:10200000F295F07FFE27E07FFE27E20FF11DEE0F35
:10201000FF1FEE53F54B40815181052E000C660BDE
:10202000770B480D591D6A1D7B1D16964D935D93C8
:102030006D937C9319972F5F01C020E0203158F2F7
:10204000832F90E0FC01EE0FFF1FEE0FFF1F41E01A
:1020500050E04C0F5D1FE40FF51F468157816085EE
:102060007185689413F875956795579547951694FB
:10207000D1F7468357836087718746805780608495
:102080007184FC01EE0FFF1FE454F54B4081518138
:102090004A01052E000CAA08BB0884149504A60466
:1020A000B7040CF04EC0FC01EE0FFF1FEE0FFF1F38
:1020B00061E070E06C0F7D1FE60FF71F46815781CE
:1020C00060857185FC01EE0FFF1FE454F54B4083E2
:1020D0005183DA01552324F4AA27BB27A41BB50B8F
:1020E000FC01EE0FFF1FEA54F54B0190F081E02D4B
:1020F0005F01FF2324F4AA24BB24AE1ABF0AAA1549
:10210000BB0554F4E41BF50BDC01AA0FBB1FA05563
:10211000B54BED93FC9309C04E1B5F0BFC01EE0F1A
:10212000FF1FE055F54B40835183880F991FFC0139
:10213000E055F54B808191819595879580839183BA
:1021400062C0FC01EE0FFF1FEE0FFF1FA1E0B0E029
:10215000AC0FBD1FEA0FFB1F46805780608471845F
:10216000FC01EE0FFF1FEA54F54B80809180092C93
:10217000000CAA08BB08481459046A047B040CF03C
:1021800042C0FC01EE0FFF1FEE0FFF1FEA0FFB1F07
:1021900086809780A084B184F401DC01AA0FBB1F64
:1021A000AA54B54B8D929C92BA01552324F466270C
:1021B0007727641B750BD401FF2324F4AA27BB27C0
:1021C000A819B9096A177B0754F4841A950AFC0107
:1021D000EE0FFF1FE055F54B8082918209C0481930
:1021E0005909FC01EE0FFF1FE055F54B4083518369
:1021F000880F991FFC01E055F54B808191819595E1
:102200008795808391833F5F333008F416CF8091A8
:10221000754A9091764AA091774AB091784A03978F
:10222000A105B10508F48AC08B859C85AD85BE8566
:1022300000EB1AE4F80182809380092C000CAA08B4
:10224000BB08BC01CD01681979098A099B090E9464
:10225000A21E2B013C01C501B4010E94A21E9B01DC
:10226000AC010E94101D9B01AC01C301B2010E9490
:10227000F81DD70158966D937D938D939C935B9732
:102280008F819885A985BA85F80180809180092C75
:10229000000CAA08BB08BC01CD01681979098A099C
:1022A0009B090E94A21E2B013C0177FA709477F8DB
:1022B0007094C501B4010E94A21E9B01AC010E9452
:1022C000101D9B01AC01C301B2010E94F81DD70192
:1022D0005C966D937D938D939C935F978F85988982
:1022E000A989BA89F80184809580092C000CAA0874
:1022F000BB08BC01CD01681979098A099B090E94B4
:10230000A21E2B013C01C501B4010E94A21E9B012B
:10231000AC010E94101D9B01AC01C301B2010E94DF
:10232000F81DD70190966D937D938D939C93939711
:1023300081E005C080E003C081E001C081E06296D9
:10234000CDBFDEBFDF91CF911F910F91FF90EF9036
:10235000BF90AF909F908F907F906F905F904F90C5
:1023600008954F925F926F927F928F929F92AF9259
:10237000BF92CF92DF92EF92FF920F931F93CF9372
:10238000DF93CDB7DEB76897CDBFDEBF29013A0135
:10239000ED86FE860F87188B86010E94A21E20E024
:1023A0003BE147EB5AE40E94F81D2BED3FE049E486
:1023B00050E40E94C51F20E030E044E353E40E9453
:1023C000F81D4B015C01C301B2010E94A21E20E076
:1023D0003BE147EB5AE40E94F81D2BED3FE049E456
:1023E00050E40E94C51F20E030E044E353E40E9423
:1023F000F81D6B017C01C501B4010E9482206D8330
:102400007E838F83988720E030E040E050E40E9494
:10241000322028E136EF4BE358E30E94C51F2B0121
:102420003C01A301920160E070E080E89FE30E941C
:102430000F1D0E9490209B01AC0162E375EA82ECC3
:102440009AE40E94F81D69837A838B839C832D858F
:102450003E854F8558890E94101D2B013C01C50106
:10246000B4010E94F31D6D8B7E8B8F8B988F9B0127
:10247000AC01C301B2010E94C51F4B015C01C70141
:10248000B6010E94F31D698B7A8B8B8B9C8B9B0111
:10249000AC01C501B4010E94C51F69877A878B878B
:1024A0009C87C701B6010E9482202B013C019B0141
:1024B000AC01C501B4010E94C51F6B017C0120E184
:1024C0003DEF4FE75FE369817A818B819C810E94B8
:1024D000C51F9B01AC016D857E858F8598890E9403
:1024E000101D9B01AC016D817E818F8198850E94BA
:1024F000C51F4B015C0180918C4A811117C091E08E
:10250000980F90938C4AE0E8FAE429853A854B8548
:102510005C852083318342835383C482D582E682E3
:10252000F78280869186A286B386D1C0E0E8FAE47D
:10253000208131814281538169857A858B859C8593
:102540000E940F1D69837A838B839C832091844A28
:102550003091854A4091864A5091874AC701B60119
:102560000E940F1D69877A878B879C872091884AF4
:102570003091894A40918A4A50918B4AC501B401F1
:102580000E940F1D4B015C012D813E814F815885BA
:10259000505869897A898B899C890E94C51F9B0143
:1025A000AC0169817A818B819C810E94C51F6B017E
:1025B0007C01A30192016D817E818F8198850E94AB
:1025C000C51F9B01AC0169857A858B859C850E941E
:1025D000C51F9B01AC01C701B6010E940F1D6B0115
:1025E0007C01A50194016D897E898F89988D0E9457
:1025F000C51F9B01AC01C701B6010E94101D6B01F4
:102600007C01A3019201505869817A818B819C8160
:102610000E94C51F4B015C0129853A854B855C856D
:1026200069897A898B899C890E94C51F9B01AC01AD
:10263000C501B4010E94101D4B015C01F8016081CD
:1026400071818281938126E636E646E65FE30E9449
:10265000C51F2B013C0120ED3CEC4CEC5DE3C701B8
:10266000B6010E94C51F9B01AC01C301B2010E94CB
:10267000101DF80160837183828393836481758167
:102680008681978126E636E646E65FE30E94C51F0F
:102690006B017C0120ED3CEC4CEC5DE3C501B40129
:1026A0000E94C51F9B01AC01C701B6010E94101D0D
:1026B000F80164837583868397838D859E85AF85B6
:1026C000B889B05880879187A287B38781E06896E0
:1026D000CDBFDEBFDF91CF911F910F91FF90EF90A3
:1026E000DF90CF90BF90AF909F908F907F906F9032
:1026F0005F904F9008952F923F924F925F926F920A
:102700007F928F929F92AF92BF92CF92DF92EF9281
:10271000FF920F931F93CF93DF93CDB7DEB7CC58C3
:10272000D109CDBFDEBF4C018DE0E7E4F0E4DE016E
:10273000119601900D928A95E1F7FE013E9684E68E
:10274000DF011D928A95E9F7712C612C9FEF40E023
:10275000E0E0392F3EC08E2F90E0DC01A353B44B54
:102760002C91243211F43E2F26C0DC01A353B44B2C
:102770002C912A3281F43F3F71F0932F6E2FA1E00C
:10278000AE0FB0E0A353B44B7C90EE5FF0E0E353A8
:10279000F44B608024C0DC01A353B44B2C912C3249
:1027A00051F43F3F41F0A1E0B0E0AC0FBD1FA40FDA
:1027B000B11DEC934F5F3F3F59F0DC01A353B44B85
:1027C0002C91AEE0B0E0AC0FBD1FA80FB91F2C9349
:1027D000EF5F8091CC4BE813BECF932F6FEF109239
:1027E000CC4B9F3F09F416C46F3F09F415C4E92F81
:1027F000092E000CFF0B31962EE030E02C0F3D1F10
:10280000E20FF31F80819E5F09C0EEE0F0E0EC0F65
:10281000FD1FE20FF31F208182279F5F292F30E0E9
:10282000462F062E000C550B4217530774F7FE0176
:10283000EE58FF4F108211821282282F082E000CB2
:10284000330B3F938F938FED91E49F938F931F9260
:1028500083E08F93FF93EF930E94582ACDBFDEBF92
:10286000813051F4E3968FADE397E4968FAFE49710
:1028700080E3E3968FAFE397E3968FADE3978711FD
:10288000CDC3E4968FADE4978611CAC32B81022E87
:10289000000C330B8A81082E000C990BA901481BF0
:1028A000590B4130510551F00196EEE0F0E0EC0F8C
:1028B000FD1FE80FF91F80818093AF4A4D858C85FD
:1028C000082E000C990B042E000C550B481B590BBD
:1028D0004130510551F00196EEE0F0E0EC0FFD1FA4
:1028E000E80FF91F80818093AE4A8091AF4A81340E
:1028F00009F098C38091AE4A813409F095C36C8089
:10290000062C000C7708C301821B930B019709F476
:1029100096C0F90131966EE070E06C0F7D1FE60FF6
:10292000F71F8081C158DF4F8883CF57D040F9010E
:102930003296E60FF71F8081C058DF4F8883C0585A
:10294000D040CF57DF4F1882C158D040F90133969D
:10295000E60FF71F8081EC968FAFEC97F901349664
:10296000E60FF71F8081ED968FAFED97EE961FAEC5
:10297000EE97F9013696E60FF71F8081E6968FAF46
:10298000E697F9013796E60FF71F8081E7968FAF3C
:10299000E797F9013896E60FF71F8081E8968FAF29
:1029A000E897F9013996E60FF71F8081E9968FAF16
:1029B000E997265F3F4FFB01E20FF31F8081EA9604
:1029C0008FAFEA97EB961FAEEB97E091AD4A4E2E94
:1029D000512CCE0181589F4F0E94C9289B01AC0108
:1029E000ACE3B0E00E94D8256B017C01CE01855894
:1029F0009F4F0E94C928A7019601260F371F481F25
:102A0000591F60EA76E881E090E00E94BF256B01E3
:102A10007C01CE018B589F4F0E94C928DC01CB015D
:102A20008C0D9D1DAE1DBF1DF201EE0FFF1FEE0FA1
:102A3000FF1FE356F54B80839183A283B383ED811F
:102A40000E2E000CFF0BCF0186199709019791F10B
:102A50008091AD4A082F10E0D801AA0FBB1FAA0F22
:102A6000BB1FA356B54B6D917D918D919C91D30168
:102A700011962EE030E02C0F3D1FA20FB31F2C91BA
:102A80002E3429F421E030E040E050E003C02FEF85
:102A90003FEFA901D801AA0FBB1FAA0FBB1F8D01D1
:102AA0000356154B0E94BF25D8016D937D938D93DE
:102AB0009C9313976E80062C000C7708C3018E1B25
:102AC0009F0B019709F49CC0DF0111962EE030E0C6
:102AD0002C0F3D1FA20FB31F8C91EC968FAFEC977C
:102AE000DF011296A20FB31F8C91ED968FAFED9779
:102AF000DF011396A20FB31F8C91EE968FAFEE9766
:102B0000EF961FAEEF97DF011496A20FB31F8C91C3
:102B1000C158DF4F8883CF57D040DF011596A20FF1
:102B2000B31F8C91C058DF4F8883C058D040CF5717
:102B3000DF4F1882C158D040DF011796A20FB31F94
:102B40008C91E6968FAFE697DF011896A20FB31F20
:102B50008C91E7968FAFE797DF011996A20FB31F0D
:102B60008C91E8968FAFE897DF011A96A20FB31FFA
:102B70008C91E9968FAFE9973B96E20FF31F808126
:102B8000EA968FAFEA97EB961FAEEB97E091AD4ACE
:102B90004E2E512CCE0185589F4F0E94C9289B0173
:102BA000AC01ACE3B0E00E94D8256B017C01CE0102
:102BB00081589F4F0E94C928A7019601260F371FF1
:102BC000481F591F60EA76E881E090E00E94BF2527
:102BD0006B017C01CE018B589F4F0E94C928DC01FC
:102BE000CB018C0D9D1DAE1DBF1DF201EE0FFF1F11
:102BF000EE0FFF1FE357F54B80839183A283B383CE
:102C00002F80422C022C000C5508C201861997090E
:102C1000019779F18091AD4AA82FB0E0FD01EE0F48
:102C2000FF1FEE0FFF1FE357F54B6081718182811B
:102C30009381F30131964EE050E04C0F5D1FE40F9D
:102C4000F51F2081273521F42FEF3FEFA90104C0A4
:102C500021E030E040E050E0FD01EE0FFF1FEE0FFD
:102C6000FF1FE357F54B0E94BF256083718382836A
:102C700093833884632C032C000C7708C3018419D8
:102C80009509019709F44DC0432D4219FE01EB58F7
:102C9000FF4F86E0DF011D928A95E9F720E015C01D
:102CA000822F90E0F2013196E80FF91F6EE070E09C
:102CB0006C0F7D1FE60FF71F3081E5E7F0E0EC0FAA
:102CC000FD1FE80FF91F30832F5F241748F32401FD
:102CD00074E5470E511CD2016D917D918D919C91AF
:102CE00026E636E646E65FE30E94C51F6B017C01DF
:102CF000BE0165587F4FCE018B589F4F0E944F27D2
:102D00002DEC3CEC4CEC5DE30E94C51F9B01AC013B
:102D1000C701B6010E94101DF20160837183828396
:102D200093833985832F032E000C990B86199709FD
:102D3000019749F1331920E015C0822F90E0F3018B
:102D40003196E80FF91F4EE050E04C0F5D1FE40F85
:102D5000F51F4081E5E7F0E0EC0FFD1FE80FF91FDC
:102D600040832F5F231748F3BE0165587F4FCE0184
:102D70008B589F4F0E944F27F401E85AFF4F608302
:102D80007183828393838091AD4A8F5F8093AD4A34
:102D9000843008F44BC11092AD4A612CCB57DF4F01
:102DA0001882C558D040CA57DF4F1882C658D04045
:102DB000C957DF4F1882C758D040C857DF4F188215
:102DC000C858D040C757DF4F1882C958D040C6579F
:102DD000DF4F1882CA58D040412C512C712CB0E0E2
:102DE000A0E0CE57DF4F1882C258D040CD57DF4FFA
:102DF0001882C358D040CC57DF4F1882C458D040F7
:102E0000212C312CAAC0E62DF0E0BF01660F771F00
:102E1000660F771FC557DF4F68837983CB58D04043
:102E2000CB018356954BFC01608171818281938136
:102E30006B017C01FF0CCC08DC2C7601262F372F90
:102E4000482F592F6C2D7C2D8C2D9C2DA72CBB2E03
:102E5000CA2ECE57DF4FD880C258D040CD57DF4F53
:102E6000E880C358D040CC57DF4FF880C458D040DA
:102E7000022D132D0E940126722EB32FA42FCE57A0
:102E8000DF4F5883C258D040CD57DF4F6883C358B7
:102E9000D040CC57DF4F7883C458D040282E392EED
:102EA000C557DF4FE881F981CB58D040E357F54B48
:102EB00060817181828193816B017C01FF0CCC0860
:102EC000DC2C7601262F372F482F592F6C2D7C2D87
:102ED0008C2D9C2DCB57DF4FA880C558D040CA57AA
:102EE000DF4FB880C658D040C957DF4FC880C75899
:102EF000D040C857DF4FD880C858D040C757DF4FA1
:102F0000E880C958D040C657DF4FF880CA58D04033
:102F1000042D152D0E940126CB57DF4F2883C5585D
:102F2000D040CA57DF4F3883C658D040C957DF4F0B
:102F30004883C758D040C857DF4F5883C858D0403F
:102F4000C757DF4F6883C958D040C657DF4F7883D3
:102F5000CA58D040482E592E6394F3E0F61508F075
:102F600052CF272D3B2F4A2FCE57DF4F5881C258C3
:102F7000D040CD57DF4F6881C358D040CC57DF4F8A
:102F80007881C458D040822D932D02E00E94E32521
:102F9000622E732EB42FA52FCB57DF4F2881C55833
:102FA000D040CA57DF4F3881C658D040C957DF4F8D
:102FB0004881C758D040C857DF4F5881C858D040C3
:102FC000C757DF4F6881C958D040C657DF4F788157
:102FD000CA58D040842D952D0E94E325F401E05C71
:102FE000FF4F2083318342835383662D772D8B2FB0
:102FF0009A2F349660827182B283A3836401A4E322
:10300000CA0ED11CF401E0A8F1A802A913A90E94DC
:10301000B1110DC080E00BC080E009C080E007C0A6
:1030200080E005C080E003C080E001C080E0C457BC
:10303000DF4FCDBFDEBFDF91CF911F910F91FF908A
:10304000EF90DF90CF90BF90AF909F908F907F9048
:103050006F905F904F903F902F900895FC0190E00B
:103060000FC09F012F5F3F4F808180936208809146
:10307000640886FFFCCF80E4809364089F5FF901B9
:10308000961778F328EE33E040E050E060E070E01F
:1030900080E090E00E94350B0895CF93DF93CDB789
:1030A000DEB7C258D140CDBFDEBF84EC99E080933B
:1030B000680890936908E0E2F4E080818160808391
:1030C000E5E6F8E0808180688083E6E6F8E08081CC
:1030D000806C80832AE030E040E050E060E070E007
:1030E00080E090E00E94350B8091610882FF0AC069
:1030F00080ED90E0809368089093690884E0809365
:10310000610816C08CE1E4E5F0E4DE01A959BE4F88
:1031100001900D928A95E1F76CE1CE0189599E4F9D
:103120000E942E1880ED90E08093680890936908C3
:1031300020EA36E841E050E060E070E080E090E0B6
:103140000E94350B80E1E0E7F0E4DE01119601908A
:103150000D928A95E1F760E1CE0101960E942E184A
:1031600080E1E0E8F0E4DE01519601900D928A954D
:10317000E1F760E1CE0141960E942E1880E1E0E97E
:10318000F0E4DE01919601900D928A95E1F760E1FD
:10319000CE0181960E942E1880E1E0EAF0E4DE0183
:1031A000D19601900D928A95E1F760E1CE01C1962A
:1031B0000E942E1880E1E0EBF0E4DE01AF5BBF4F30
:1031C00001900D928A95E1F760E1CE018F5B9F4FF0
:1031D0000E942E1880E1E0ECF0E4DE01AF5ABF4F10
:1031E00001900D928A95E1F760E1CE018F5A9F4FD1
:1031F0000E942E1880E1E0EDF0E4DE01AF59BF4FF0
:1032000001900D928A95E1F760E1CE018F599F4FB1
:103210000E942E1880E1E0EEF0E4DE01AF58BF4FCF
:1032200001900D928A95E1F760E1CE018F589F4F92
:103230000E942E1880E1E0EFF0E4DE01AF57BF4FAF
:1032400001900D928A95E1F760E1CE018F579F4F73
:103250000E942E1880E1E0E0F1E4DE01AF56BF4F9E
:1032600001900D928A95E1F760E1CE018F569F4F54
:103270000E942E1880E1E0E1F1E4DE01AF55BF4F7E
:1032800001900D928A95E1F760E1CE018F559F4F35
:103290000E942E1880E1E0E2F1E4DE01AF54BF4F5E
:1032A00001900D928A95E1F760E1CE018F549F4F16
:1032B0000E942E1880E1E0E3F1E4DE01AF53BF4F3E
:1032C00001900D928A95E1F760E1CE018F539F4FF7
:1032D0000E942E1880E1E0E4F1E4DE01AF52BF4F1E
:1032E00001900D928A95E1F760E1CE018F529F4FD8
:1032F0000E942E1880E1E0E5F1E4DE01AF51BF4FFE
:1033000001900D928A95E1F760E1CE018F519F4FB8
:103310000E942E1880E1E0E6F1E4DE01AF50BF4FDD
:1033200001900D928A95E1F760E1CE018F509F4F99
:103330000E942E1880E1E0E7F1E4DE01AF5FBE4FAE
:1033400001900D928A95E1F760E1CE018F5F9E4F6B
:103350000E942E1880E1E0E8F1E4DE01AF5EBE4F8E
:1033600001900D928A95E1F760E1CE018F5E9E4F4C
:103370000E942E188EE0E0E9F1E4DE01AF5DBE4F61
:1033800001900D928A95E1F76EE0CE018F5D9E4F20
:103390000E942E188EE0EEE9F1E4DE01A15DBE4F41
:1033A00001900D928A95E1F76EE0CE01815D9E4F0E
:1033B0000E942E188EE0ECEAF1E4DE01A35CBE4F21
:1033C00001900D928A95E1F76EE0CE01835C9E4FED
:1033D0000E942E188EE0EAEBF1E4DE01A55BBE4F01
:1033E00001900D928A95E1F76EE0CE01855B9E4FCC
:1033F0000E942E188EE0E8ECF1E4DE01A75ABE4FE1
:1034000001900D928A95E1F76EE0CE01875A9E4FAA
:103410000E942E18809161088695869591E08927F3
:103420008170CE57DE4FCDBFDEBFDF91CF910895C3
:103430001F920F920FB60F9211240BB60F928F931B
:103440009F93EF93FF9311C0809160088A3019F425
:1034500091E09093CB4BE091CC4B91E09E0F9093F9
:10346000CC4BF0E0E353F44B8083809164088823D5
:103470005CF3FF91EF919F918F910F900BBE0F9096
:103480000FBE0F901F9018954F925F926F927F9290
:103490008F929F92AF92BF92CF92DF92EF92FF9264
:1034A000CF93DF93CDB7DEB7AA97CDBFDEBF89A795
:1034B0009AA7DC0154968D909D90AD90BC90579743
:1034C0005096CD90DD90ED90FC905397A50194011E
:1034D000C701B6010E948F1D698B7A8B8B8B9C8BE9
:1034E0009B01AC010E94F920882361F0A9A5BAA52F
:1034F00094962D913D914D915C919797298B3A8BA4
:103500004B8B5C8B20E030E040E050E4C701B6011B
:103510000E9432206B017C0120E030E040E050E46A
:10352000C501B4010E9432204B015C01A501940148
:10353000C701B6010E94101D0E9490209B01AC01A2
:10354000E9A5FAA584859585A685B785BC01CD0139
:1035500090580E948F1D6D8B7E8B8F8B988F9B0157
:10356000AC010E94F920882361F0A9A5BAA598961C
:103570002D913D914D915C919B972D8B3E8B4F8B67
:10358000588FA9A5BAA598962D913D914D915C9122
:103590009B9729833A834B835C83CA01B9010E94BC
:1035A000F31D698F7A8F8B8F9C8FE9A5FAA5208DEB
:1035B000318D428D538D0E94C51F2B013C01A9A561
:1035C000BAA594962D913D914D915C9197972D833D
:1035D0003E834F835887CA01B9010E9482206987C0
:1035E0007A878B879C8769817A818B819C810E94F5
:1035F00082206B017C019B01AC0169857A858B85FA
:103600009C850E94C51FE9A5FAA5848C958CA68C83
:10361000B78CA50194010E94C51F9B01AC01C30199
:10362000B2010E94101D2B013C016D817E818F81B2
:1036300098850E94F31D6D877E878F87988B9B01ED
:10364000AC01C701B6010E94C51FA9A5BAA59096F5
:10365000CD90DD90ED90FC909397A70196010E948C
:10366000C51F9B01AC01C301B2010E94101D2B01BB
:103670003C012D853E854F855889C501B4010E94C6
:10368000C51F4B015C01A701960169857A858B8571
:103690009C850E94C51F9B01AC01C501B4010E941D
:1036A0000F1DA30192010E948F1D2B013C0177FA8F
:1036B000709477F87094A3019201C301B2010E9443
:1036C000F920882331F0E9A5FAA544A455A466A4FD
:1036D00077A420E030E0A901C301B2010E94EE1DF1
:1036E000181654F02BED3FE049EC50E4C301B20151
:1036F0000E94101D2B013C01A9A5BAA59C968D9096
:103700009D90AD90BC909F9769817A818B819C81BF
:103710000E946A1E9B01772324F422273327261B4D
:10372000370BB901330F880B990B0E94A21E2BEDAA
:103730003FE049EC5FE30E940F1D0E946A1E9B015F
:10374000772324F422273327261B370BB901330FA5
:10375000880B990B0E94A21E23EC38EB42EB5DE331
:103760000E94B81F18160CF0CAC0E9A5FAA5C080BF
:10377000D180E280F38069817A818B819C810E9473
:10378000D4206D8F7E8F8F8F98A39B01AC016985AC
:103790007A858B859C850E94C51FA9A5BAA514961C
:1037A0002D913D914D915C91179729A33AA34BA37D
:1037B0005CA30E94C51F9B01AC01C701B6010E941A
:1037C000101D6DA37EA38FA398A72D8D3E8D4F8DC9
:1037D00058A16D857E858F8598890E94C51FE9A5B2
:1037E000FAA5C084D184E284F384A70196010E94E3
:1037F000C51F9B01AC016DA17EA18FA198A50E9460
:10380000101D2AE037ED43E25DE30E94C51F9B01D6
:10381000AC016D817E818F8198850E94101D6D8322
:103820007E838F83988729A13AA14BA15CA16D85E6
:103830007E858F8598890E94C51F6D8F7E8F8F8FA3
:1038400098A3A701960169857A858B859C850E943E
:10385000C51F9B01AC016D8D7E8D8F8D98A10E943F
:103860000F1D2AE037ED43E25DE30E94C51F9B0177
:10387000AC0169817A818B819C810E94101D6983D2
:103880007A838B839C83298D3A8D4B8D5C8D6985E2
:103890007A858B859C850E94F81D9B01AC0169A1EE
:1038A0007AA18BA19CA10E94C51F69877A878B870B
:1038B0009C87298D3A8D4B8D5C8D6D857E858F859E
:1038C00098890E94F81D9B01AC01C701B6010E94B6
:1038D000C51F9B01AC0169857A858B859C850E94FB
:1038E000101D2AE037ED43E25DE30E94C51F9B01F6
:1038F000AC01C501B4010E94101D4B015C012D817A
:103900003E814F81588569897A898B899C890E947B
:103910000F1D2DEC3CEC4CE45DE30E94C51F9B01A8
:10392000AC016D817E818F8198850E94101DA9A5B3
:10393000BAA594966D937D938D939C9397972981C7
:103940003A814B815C816D897E898F89988D0E9437
:103950000F1D2DEC3CEC4CE45DE30E94C51F9B0168
:10396000AC0169817A818B819C810E94101DE9A53F
:10397000FAA560A771A782A793A7A5019401C30127
:10398000B2010E940F1D6B017C010E946A1E9B0107
:10399000772324F422273327261B370BB901330F53
:1039A000880B990B0E94A21E2BED3FE049E450E4E6
:1039B0000E94B81F18168CF02DEC3CEC4CE45DE333
:1039C000C701B6010E94C51F9B01AC01C501B4012E
:1039D0000E94101D362F272F04C0342D252D862D33
:1039E000972D432F522F682F792FA9A5BAA59C9602
:1039F0004D935D936D937C939F97AA96CDBFDEBF49
:103A0000DF91CF91FF90EF90DF90CF90BF90AF907C
:103A10009F908F907F906F905F904F900895505837
:103A2000BB27AA270E94271D0C946A1F0E94311FE2
:103A300038F00E94381F20F039F49F3F19F426F423
:103A40000C94071F0EF4E095E7FB0C94011FE92F7F
:103A50000E948F1F58F3BA176207730784079507F0
:103A600020F079F4A6F50C94B11F0EF4E0950B2E1E
:103A7000BA2FA02D0B01B90190010C01CA01A001C0
:103A80001124FF27591B99F0593F50F4503E68F11B
:103A90001A16F040A22F232F342F4427585FF3CF5C
:103AA000469537952795A795F0405395C9F77EF42D
:103AB0001F16BA0B620B730B840BBAF09150A1F076
:103AC000FF0FBB1F661F771F881FC2F70EC0BA0FFC
:103AD000621F731F841F48F4879577956795B79584
:103AE000F7959E3F08F0B0CF9395880F08F099277F
:103AF000EE0F9795879508950E94311F60F080E83A
:103B000091E009F49EEF0E94381F28F040E851E050
:103B100071F45EEF0CC00C94071F0C94B11FE92FD9
:103B2000E0780E948F1F40F3092E052AB1F3261773
:103B300037074807590738F00E2E07F8E02569F0D7
:103B4000E025E0640AC0EF6307F8009407FADB01A0
:103B5000B9019D01DC01CA01AD01EF930E940F1E66
:103B60000E946A1F0E94BF1D5F91552339F02BED03
:103B70003FE049E450FD49EC0C94101D0895DF939B
:103B8000DD27B92FBF7740E85FE316161706480711
:103B90005B0718F4D92F0E94BD1F9F938F937F93CB
:103BA0006F930E94D020E0E7F1E00E940A1F0E947C
:103BB0006A1F2F913F914F915F910E94D81FDD2383
:103BC00051F09058A2EA2AED3FE049EC5FE3D0784B
:103BD0005D270E94271DDF910C946A1F0E94DD1E45
:103BE00008F481E008950E94411FE3950C947B1F27
:103BF0000E940C1E0C946A1F0E94381F58F00E94ED
:103C0000311F40F029F45F3F29F00C94011F51113E
:103C10000C94B21F0C94071F0E948F1F68F3992306
:103C2000B1F3552391F3951B550BBB27AA276217B8
:103C30007307840738F09F5F5F4F220F331F441FC5
:103C4000AA1FA9F335D00E2E3AF0E0E832D09150F9
:103C50005040E695001CCAF72BD0FE2F29D0660FE6
:103C6000771F881FBB1F261737074807AB07B0E829
:103C700009F0BB0B802DBF01FF2793585F4F3AF02F
:103C80009E3F510578F00C94011F0C94B21F5F3FCA
:103C9000E4F3983ED4F3869577956795B795F795B5
:103CA0009F5FC9F7880F911D9695879597F908959D
:103CB000E1E0660F771F881FBB1F62177307840739
:103CC000BA0720F0621B730B840BBA0BEE1F88F748
:103CD000E09508950E94711E6894B1110C94B21F72
:103CE00008950E94971F88F09F5798F0B92F992741
:103CF000B751B0F0E1F0660F771F881F991F1AF0D7
:103D0000BA95C9F714C0B13091F00E94B11FB1E06B
:103D100008950C94B11F672F782F8827B85F39F06A
:103D2000B93FCCF3869577956795B395D9F73EF46F
:103D300090958095709561957F4F8F4F9F4F089517
:103D4000E89409C097FB3EF4909580957095619535
:103D50007F4F8F4F9F4F9923A9F0F92F96E9BB27EB
:103D60009395F695879577956795B795F111F8CF67
:103D7000FAF4BB0F11F460FF1BC06F5F7F4F8F4FD2
:103D80009F4F16C0882311F096E911C0772321F0C8
:103D90009EE8872F762F05C0662371F096E8862F60
:103DA00070E060E02AF09A95660F771F881FDAF7B7
:103DB000880F9695879597F90895990F0008550FE4
:103DC000AA0BE0E8FEEF16161706E807F907C0F0A1
:103DD00012161306E407F50798F0621B730B840BA9
:103DE000950B39F40A2661F0232B242B252B21F483
:103DF00008950A2609F4A140A6958FEF811D811D23
:103E0000089597F99F6780E870E060E008959FEF5C
:103E100080EC0895DF93CF931F930F93FF92EF925F
:103E2000DF927B018C01689406C0DA2EEF010E94BC
:103E3000D81FFE01E894A5912591359145915591A2
:103E4000A6F3EF010E94271DFE019701A801DA9455
:103E500069F7DF90EF90FF900F911F91CF91DF9165
:103E6000089500240A9416161706180609060895E0
:103E700000240A94121613061406050608950C94DD
:103E8000071F0E94971FD8F3E894E0E0BB279F57D5
:103E9000F0F02AED3FE049EC06C0EE0FBB0F661FC5
:103EA000771F881F28F0B23A62077307840728F04B
:103EB000B25A620B730B840BE3959A9572F78038B4
:103EC00030F49A95BB0F661F771F881FD2F7904872
:103ED0000C943A21092E0394000C11F4882352F01B
:103EE000BB0F40F4BF2B11F460FF04C06F5F7F4F26
:103EF0008F4F9F4F0895EF93E0FF07C0A2EA2AED8E
:103F00003FE049EC5FEB0E94271D0E946A1F0F9063
:103F1000039401FC9058EDE9F1E00C944D2157FD1C
:103F20009058440F551F59F05F3F71F04795880F27
:103F300097FB991F61F09F3F79F0879508951216BE
:103F400013061406551FF2CF4695F1DF08C016166A
:103F500017061806991FF1CF86957105610508941B
:103F60000895E894BB2766277727CB0197F9089532
:103F70000E94DD1E08F48FEF08959B01AC0160E004
:103F800070E080E89FE30C94F81D0E94D81F0C9409
:103F90006A1F0E94311F38F00E94381F20F09523BD
:103FA00011F00C94011F0C94071F11240C94B21FE4
:103FB0000E948F1F70F3959FC1F3950F50E0551F1E
:103FC000629FF001729FBB27F00DB11D639FAA276E
:103FD000F00DB11DAA1F649F6627B00DA11D661FBD
:103FE000829F2227B00DA11D621F739FB00DA11DDE
:103FF000621F839FA00D611D221F749F3327A00D98
:10400000611D231F849F600D211D822F762F6A2F33
:1040100011249F5750409AF0F1F088234AF0EE0F98
:10402000FF1FBB1F661F771F881F91505040A9F7C5
:104030009E3F510580F00C94011F0C94B21F5F3F0E
:10404000E4F3983ED4F3869577956795B795F79501
:10405000E7959F5FC1F7FE2B880F911D9695879579
:1040600097F90895FA01EE0FFF1F309621053105EB
:10407000A1F16115710561F48038BFE39B0749F137
:1040800068949038810561F08038BFEF9B0741F05C
:1040900099234AF5FF3FE1053105210519F1E8941F
:1040A0000894E795D901AA2329F4AB2FBE2FF85F16
:1040B000D0F310C0FF5F70F4A695E0F7F73950F029
:1040C00019F0FF3A38F49F779F930DD00F9007FCBB
:1040D0009058089546F00C94071F60E070E080E867
:1040E0009FE308954FE79F775F934F933F932F93FD
:1040F0000E94A3212F913F914F915F910E94C51F74
:104100000C9406219F930E94411F0F9007FCEE5FC5
:104110000C947B1F19F416F40C94071F0C9438218F
:104120000E94971FB8F39923C9F3B6F39F57550B15
:1041300087FF0E9446210024A0E640EA90018058B3
:104140005695979528F4805C660F771F881F20F09E
:1041500026173707480730F4621B730B840B20299E
:1041600031294A2BA69517940794202531254A27F3
:1041700058F7660F771F881F20F026173707480764
:1041800030F4620B730B840B200D311D411DA09583
:1041900081F7B901842F9158880F969587950895D6
:1041A0009B01AC010C94C51FDF93D92F0E94411FC6
:1041B000E695D7952AED3FE049E45FE3B33A62071D
:1041C000730784079507D7953AF0A2EA49EC9068FF
:1041D0000E94271D0E946A1FEBEBF1E00E944D2117
:1041E000DD0F13F00E94BD1FDD0F0BF49058DF911F
:1041F00008950E94DD1E880B990B089529F416F08E
:104200000C94011F0C94B11F0C94071F0E94971F60
:10421000A8F39638A0F707F80F92E8942BE33AEA50
:1042200048EB5FE70E94DB1F0F920F920F924DB792
:104230005EB70F920E94EB21EEEDF1E00E940A1FA3
:104240004F915F91EF91FF91E595EE1FFF1F49F0B0
:10425000FE57E0684427EE0F441FFA95E1F74195B9
:10426000550B0E9465210F9007FE0C94BD1F089509
:104270009F3F31F0915020F4879577956795B795DA
:10428000880F911D9695879597F908959150504004
:10429000660F771F881FD2F708959F938F937F93A0
:1042A0006F93FF93EF939B01AC010E94C51FEF91A9
:1042B000FF910E940A1F2F913F914F915F910C94A3
:1042C000C51F0C94011F0C9438210E94971FD8F32E
:1042D0009923C9F3940F511DA3F39150504094F0CA
:1042E00059F0882332F0660F771F881F9150504095
:1042F000C1F79E3F51052CF7880F911D9695879524
:1043000097F908955F3FACF0983E9CF0BB278695E7
:1043100077956795B79508F4B1609395C1F7BB0F92
:1043200058F711F460FFE8CF6F5F7F4F8F4F9F4FBB
:10433000E3CF0C94B21F16F00C9438210C94071F95
:1043400068940C94011F0E94971FA8F39923C1F34E
:10435000AEF3DF93CF931F930F93FF92C92FDD2707
:1043600088232AF02197660F771F881FDAF720E04D
:1043700030E040E85FEB9FE3883920F0803E38F082
:1043800021968F770E94101DE6E0F2E004C00E94A3
:10439000101DE3E3F2E00E940A1F8B01BE01EC0155
:1043A000FB2E6F5771097595771F880B990B0E942B
:1043B000A21E28E132E741E35FE30E94D81FAF2D40
:1043C0009801AE01FF900F911F91CF91DF910E9454
:1043D000271D0C946A1FFA01DC01AA0FBB1F9B0169
:1043E000AC01BF5728F4222733274427507820C038
:1043F000B75190F4AB2F0024469537952795011CB3
:10440000A395D2F3002071F0220F331F441FB39500
:10441000DAF30ED00C940F1D61307105A0E88A0705
:10442000B94630F49B01AC0166277727882790783E
:10443000309621F0208331834283538308952F9255
:104440003F924F925F926F927F928F929F92AF9224
:10445000BF92CF92DF92EF92FF920F931F93CF9371
:10446000DF93CDB7DEB76097CDBFDEBF7C011B0108
:104470006A01FC0116821782838181FF44C39E0179
:104480002F5F3F4F3901F7019381F10193FD859132
:1044900093FF81911F01882309F431C3853239F4D8
:1044A00093FD859193FF81911F01853239F4B70106
:1044B00090E00E941C2A56016501E5CF10E0512CC6
:1044C000912CFFE1F915D8F08B3279F038F4803275
:1044D00079F08332A1F4F92DF0612EC08D3261F0B4
:1044E000803369F4292D21602DC0392D3260932E3F
:1044F000892D8460982E2AC0E92DE86015C097FCAC
:104500002DC020ED280F2A3088F496FE06C03AE030
:10451000139F200D1124122F19C08AE0589E200DE0
:104520001124522EE92DE0629E2E10C08E3231F4FD
:1045300096FCE5C2F92DF0649F2E08C08C3621F45C
:10454000292D2068922E02C0883641F4F10193FD96
:10455000859193FF81911F018111B3CF9BEB980F40
:10456000933020F4992D9061805E07C09BE9980FED
:10457000933008F066C1992D9F7E96FF16E09F73D9
:10458000992E853619F49064992E08C0863621F448
:10459000392F3068932E02C01111115097FE07C0B9
:1045A0001C3350F444244394410E27E00BC01830D0
:1045B00038F027E017E005C027E09CE3492E02C051
:1045C000212F412C560184E0A80EB11CF601608118
:1045D000718182819381042DA3010E94F0286C01D6
:1045E000F981FC87F0FF02C0F3FF06C091FC06C012
:1045F00092FE06C000E205C00DE203C00BE201C05E
:1046000000E08C858C7019F001115AC29BC297FE94
:1046100010C04C0CFC85F4FF04C08A81813309F47E
:104620004A94141474F528E0241578F588E0482E8F
:104630002CC096FC2AC0812F90E08C159D059CF023
:104640003CEFC3163FEFD30674F0892D8068982E97
:104650000AC0E2E0F0E0EC0FFD1FE10FF11D8081E8
:10466000803319F411501111F4CF97FE0EC0442479
:104670004394410E812F90E0C816D9062CF41C19E2
:1046800004C04424439401C010E097FE06C01C14EB
:104690001D0434F4C601019605C085E090E002C017
:1046A00081E090E001110196112331F0212F30E0DB
:1046B0002F5F3F4F820F931F252D30E08217930706
:1046C00014F4581A01C0512C892D897049F45520D1
:1046D00039F0B70180E290E00E941C2A5A94F7CF8B
:1046E000002329F0B701802F90E00E941C2A93FC40
:1046F00009C0552039F0B70180E390E00E941C2AE0
:104700005A94F7CF97FE4CC04601D7FE02C0812CC9
:10471000912CC60188199909F301E80FF91FED875B
:10472000FE879601241931092F87388B012F10E05D
:104730001195019511093FEF8316930629F4B701EE
:104740008EE290E00E941C2AC814D9044CF08F8598
:1047500098898815990524F4ED85FE85818101C02D
:1047600080E3F1E08F1A91082D853E852F5F3F4F42
:104770002D873E87801691062CF0B70190E00E94AD
:104780001C2AD9CFC814D90441F49A81963320F455
:10479000953319F43C8534FF81E3B70190E04EC0B6
:1047A0008A81813319F09C859F7E9C87B70190E0B8
:1047B0000E941C2A111105C094FC18C085E690E0E7
:1047C00017C0B7018EE290E00E941C2A1E5F82E0B3
:1047D00001E0080FF301E80FF11D8081B70190E0BF
:1047E0000E941C2A802F0113F3CFE6CF85E490E0CE
:1047F000B7010E941C2AD7FC06C0C114D10441F4A1
:10480000EC85E4FF05C0D194C194D1088DE201C0CC
:104810008BE2B70190E00E941C2A80E32AE0C216D6
:10482000D1042CF08F5FFAE0CF1AD108F7CFB7018F
:1048300090E00E941C2AB701C601C0960E941C2A63
:1048400054C1833631F0833779F0833509F056C08F
:1048500020C0560132E0A30EB11CF601808189838D
:1048600001E010E0630112C05601F2E0AF0EB11C8E
:10487000F601C080D18096FE03C0612F70E002C0B7
:104880006FEF7FEFC6010E94F4298C01F92DFF77AD
:1048900014C0560122E0A20EB11CF601C080D180E6
:1048A00096FE03C0612F70E002C06FEF7FEFC6017C
:1048B0000E94E9298C01F92DF0689F2EF3FD1AC0A2
:1048C000852D90E008171907A8F4B70180E290E061
:1048D0000E941C2A5A94F4CFF60197FC859197FE0A
:1048E00081916F01B70190E00E941C2A51105A94E7
:1048F000015011090115110579F7F7C0843611F03F
:10490000893661F5560197FE09C024E0A20EB11C5C
:10491000F60160817181828193810AC0F2E0AF0E5D
:10492000B11CF60160817181072E000C880B990B78
:10493000F92DFF769F2E97FF09C090958095709571
:1049400061957F4F8F4F9F4FF0689F2E2AE030E098
:10495000A3010E948F2AC82EC6183FC0092D853793
:1049600021F40F7E2AE030E01DC0097F8F3691F0E0
:1049700018F4883559F0C3C0803719F0883711F022
:10498000BEC0006104FF09C0046007C094FE08C0F7
:10499000066006C028E030E005C020E130E002C03B
:1049A00020E132E0560107FF09C084E0A80EB11CE7
:1049B000F601608171818281938108C0F2E0AF0EBF
:1049C000B11CF6016081718180E090E0A3010E943A
:1049D0008F2AC82EC6180F77902E96FE0BC0092D71
:1049E0000E7FC11650F494FE0AC092FC08C0092D37
:1049F0000E7E05C0DC2C092D03C0DC2C01C0D12E9D
:104A000004FF0DC0FE01EC0DF11D8081803311F417
:104A1000097E09C002FF06C0D394D39404C0802F3E
:104A2000867809F0D39403FD11C000FF06C01C2D49
:104A3000D51480F4150D1D190DC0D51458F4B70107
:104A400080E290E00E941C2AD394F7CFD51410F492
:104A50005D1801C0512C04FF10C0B70180E390E045
:104A60000E941C2A02FF17C001FD03C088E790E0E6
:104A700002C088E590E0B7010CC0802F867859F01D
:104A800001FF02C08BE201C080E207FD8DE2B701A9
:104A900090E00E941C2AC11638F4B70180E390E030
:104AA0000E941C2A1150F7CFCA94F301EC0DF11D9E
:104AB0008081B70190E00E941C2AC110F5CF15C07B
:104AC000F4E0F51560F584E0581A93FE1FC001115B
:104AD00027C02C8523FF2AC000E612E0392D307153
:104AE000932EF8018491811124C0552009F4E4CC5F
:104AF000B70180E290E00E941C2A5A94F6CFF70199
:104B00008681978126C08FEF9FEF23C0B70180E297
:104B100090E00E941C2A5A945110F8CFD8CF512C03
:104B2000B701802F90E00E941C2AD3CF04E612E048
:104B3000D5CF91108052B70190E00E941C2A0F5FE0
:104B40001F4FCFCF23E0251510F483E0BDCF512CAC
:104B5000C0CF6096CDBFDEBFDF91CF911F910F9187
:104B6000FF90EF90DF90CF90BF90AF909F908F908D
:104B70007F906F905F904F903F902F900895DB0152
:104B80008F939F930E94D825BF91AF91A29F800DD4
:104B9000911DA39F900DB29F900D11240895EE0FCB
:104BA000FF1F0024001C0BBE0790F691E02D099416
:104BB0000E941F26A59F900DB49F900DA49F800D6D
:104BC000911D1124089597FB10F8169400080F9377
:104BD000083098F00850232F342F452F562F672F79
:104BE000782F892F902DF4CF0594979587957795F9
:104BF000679557954795379527950A95AAF70F9189
:104C000008952A0D3B1D4C1D5D1D6E1D7F1D801FCF
:104C1000911F08950024A7FD00942A0F301D401D08
:104C2000501D601D701D801D901D08952A153B05A7
:104C30004C055D056E057F05800791070895A29FCD
:104C4000B001B39FC001A39F700D811D1124911D60
:104C5000B29F700D811D1124911D08950F931F9314
:104C6000CF93DF938230910510F482E090E0E091E1
:104C7000CF4CF091D04C20E030E0A0E0B0E0309795
:104C800019F1408151810281138148175907C8F0F9
:104C90008417950769F4109731F012960C931297C8
:104CA00013961C9327C00093CF4C1093D04C22C076
:104CB0002115310519F04217530718F49A01BD0167
:104CC000EF01DF01F801DBCF21153105F9F0281BD9
:104CD000390B2430310580F48A819B81611571057F
:104CE00021F0FB018283938304C08093CF4C909387
:104CF000D04CFE01329644C0FE01E20FF31F8193B7
:104D0000919322503109288339833AC02091CD4CA8
:104D10003091CE4C232B41F420910240309103403E
:104D20002093CD4C3093CE4C2091004030910140E7
:104D30002115310541F42DB73EB740910440509103
:104D40000540241B350BE091CD4CF091CE4CE21781
:104D5000F307A0F42E1B3F0B2817390778F0AC019E
:104D60004E5F5F4F2417350748F04E0F5F1F40938B
:104D7000CD4C5093CE4C8193919302C0E0E0F0E093
:104D8000CF01DF91CF911F910F910895CF93DF93C2
:104D9000009709F481C0FC01329712821382A0911E
:104DA000CF4CB091D04C109781F420813181820F8B
:104DB000931F2091CD4C3091CE4C2817390751F5D7
:104DC000E093CD4CF093CE4C67C0ED0120E030E095
:104DD000CE17DF0740F44A815B819E0141155105E2
:104DE000F1F0EA01F5CFC283D38340815181840F72
:104DF000951FC817D90759F488819981840F951F89
:104E00000296808391838A819B818283938321157B
:104E1000310529F4E093CF4CF093D04C3DC0E9012B
:104E2000EA83FB8349915991C40FD51FEC17FD0705
:104E300061F480819181840F951F0296E901888336
:104E40009983828193818A839B83E0E0F0E01296CC
:104E50008D919C911397009719F0FD01DC01F7CF1C
:104E60008D919C9111979D012E5F3F4F820F931F53
:104E70002091CD4C3091CE4C2817390769F43097EA
:104E800029F41092CF4C1092D04C02C0128213829F
:104E9000A093CD4CB093CE4CDF91CF9108958F92DB
:104EA0009F92AF92BF92CF92DF92EF92FF920F93B9
:104EB0001F93CF93DF93EC016B016115710519F01E
:104EC000FB01808391837E01FFEFEF1AFF0A0881C7
:104ED000802F90E00E94C829892B11F0E701F3CFC1
:104EE0000D3239F47E0182E0E80EF11C098111E0F7
:104EF00008C00B3229F47E0192E0E90EF11C098111
:104F000010E0E701219743E050E060E772E0CE0156
:104F10000E94D129892BC1F4239645E050E06BE62D
:104F200072E0CE010E94D129892B09F42596C11483
:104F3000D10419F0F601C083D1831111F6C060E0ED
:104F400070E080E89FE7FAC043E050E068E672E076
:104F5000CE010E94D129892B59F4C114D10409F43E
:104F6000E9C0F2E0EF0EF11CF601E082F182E2C04E
:104F700020E030E0A901C0E0D0E0F70160EDA62E0E
:104F8000A00E89E08A1530F1912F9260B92E812F01
:104F9000887012FF04C0811124C0219622C08111A3
:104FA0002197A5E0B0E00E94D825DC01CB01880F55
:104FB000991FAA1FBB1F9C01AD012A0D311D411D68
:104FC000511D283989E93807480789E1580748F011
:104FD000166006C09EEFA9120AC013FD40C01860FB
:104FE000B12E8FEFE81AF80A00811B2DC6CF802F53
:104FF0008F7D8534A1F580818D3211F4106106C05A
:105000008B3221F0319661E070E004C081813296EC
:1050100062E070E080538A3018F0E61BF70B1FC087
:1050200060E070E060389CE079075CF4DB01AA0F77
:10503000BB1FAA0FBB1F6A0F7B1F660F771F680F6E
:10504000711D3196DF0111978C9180538A3050F396
:1050500014FF03C0719561957109C60FD71F11FF29
:1050600008C0C114D10429F0CF010197F601808353
:105070009183CA01B9010E94A01E212F2370233001
:1050800019F04B015C0106C04B015C01B7FAB0940A
:10509000B7F8B09420E030E0A901C501B4010E9446
:1050A000EE1D882309F43EC0D7FF06C0D195C195F7
:1050B000D10907E812E002C00FE912E06801F8E147
:1050C000CF1AD10890E2E92EF12CCE15DF0574F04D
:1050D000F8012591359145915491C501B4010E9483
:1050E000C51F4B015C01CE19DF09EFCF0450110938
:1050F000F594E7940C151D0541F78A2D880F8B2D2B
:10510000881F8F3F49F020E030E0A901C501B401BC
:105110000E94EE1D811106C082E290E08093D14C86
:105120009093D24CC501B40109C060E070E080E802
:105130009FEF04C060E070E080EC9FE7DF91CF91CB
:105140001F910F91FF90EF90DF90CF90BF90AF90A5
:105150009F908F900895FC0188279927E8942191CA
:105160002032E9F3293010F02E30C8F32B3241F011
:105170002D3239F4689404C00E94142A820F911DC4
:10518000219120532A30C0F31EF4909581959F4FB2
:1051900008951F93FC0199278827BC01E894119179
:1051A0001032E9F3193010F01E30C8F31B3251F001
:1051B0001D3249F4689406C00E94FF29610F711DD9
:1051C000811D911D119110531A30B0F33EF490954A
:1051D0008095709561957F4F8F4F9F4F1F910895D8
:1051E000283008F027E03327DA01990F311D87FDB9
:1051F000916000966105710539F432602E5F3D9330
:1052000030E32A95E1F708959F3F30F0803871052B
:10521000610509F03C5F3C5F3D93913008F0806888
:10522000911DDF93CF931F930F93FF92EF92192F4E
:10523000987F9695E92F96959695E90FFF27E3506D
:10524000FD4F99273327EE24FF24A701E70105909E
:105250000894079428F4360FE71EF81E491F511DC5
:10526000660F771F881F991F0694A1F70590079472
:1052700028F4E70EF81E491F561FC11D770F881F1F
:10528000991F661F0694A1F70590079428F4F80E5D
:10529000491F561FC71FD11D880F991F661F771FF3
:1052A0000694A1F70590079420F4490F561FC71FD5
:1052B000D81F990F661F771F881F0694A9F784913E
:1052C0001095177041F0D695C79557954795F79467
:1052D000E7941A95C1F7E3EAF2E068941590159106
:1052E00035916591959105907FE27395E118F10AEA
:1052F000430B560BC90BD009C0F7E10CF11E431F3D
:10530000561FC91FD01D7EF4703311F48A95E6CF65
:10531000E894015030F0080F0AF40027021708F44F
:10532000202F2395022F7A3328F079E37D932A9555
:10533000E9F710C07D932A9589F6069497956795AD
:10534000379517951794E118F10A430B560BC90BC3
:10535000D00998F023957E9173957A3308F070E325
:105360007C932013B8F77E9170617D9330F0839524
:1053700071E37D9370E32A95E1F71124EF90FF909C
:105380000F911F91CF91DF91992787FD90950895F7
:1053900091110C94ED2A803219F089508550C8F78C
:1053A0000895FB01DC014150504088F08D9181341B
:1053B0001CF08B350CF4805E659161341CF06B350C
:1053C0000CF4605E861B611171F3990B0895881BC4
:1053D000FCCFFC010590615070400110D8F780951A
:1053E00090958E0F9F1F0895FC01615070400190B1
:1053F0000110D8F7809590958E0F9F1F0895592F13
:10540000482F372F262F660F771F881F991F660F8B
:10541000771F881F991F620F731F841F951F660FC8
:10542000771F881F991F08957AE0979F902D879F77
:10543000802D910D112408950F931F93CF93DF9327
:10544000FB01238121FD03C08FEF9FEF2CC022FFC2
:1054500016C046815781248135814217530744F491
:10546000A081B1819D012F5F3F4F208331838C93B9
:10547000268137812F5F3F4F2683378314C08B01EE
:10548000EC01FB010084F185E02D0995892BE1F603
:10549000D80116968D919C911797019616968D932B
:1054A0009C931797CE01DF91CF911F910F91089593
:1054B0000F931F93CF93DF93CDB7DEB72E97CDBF5A
:1054C000DEBF0D891E898F89988D26E02C83098384
:1054D0001A8397FF02C080E090E801978D839E8336
:1054E000AE01455E5F4F698D7A8DCE0101960E94B7
:1054F0001F224D815E8157FD0AC02F8138854217DA
:1055000053070CF49A01F801E20FF31F10822E9654
:10551000CDBFDEBFDF91CF911F910F910895FA01AA
:10552000AA27283051F1203181F1E8946F936E7FE2
:105530006E5F7F4F8F4F9F4FAF4FB1E03ED0B4E0D3
:105540003CD0670F781F891F9A1FA11D680F791F14
:105550008A1F911DA11D6A0F711D811D911DA11D25
:1055600020D009F468943F912AE0269F1124301935
:10557000305D3193DEF6CF010895462F4770405DD0
:105580004193B3E00FD0C9F7F6CF462F4F70405D7F
:105590004A3318F0495D31FD4052419302D0A9F7DA
:1055A000EACFB4E0A6959795879577956795BA95D4
:1055B000C9F700976105710508959B01AC010A2E9A
:1055C00006945795479537952795BA95C9F7620F71
:1055D000731F841F951FA01D08959927882708957C
:0455E000F894FFCF6D
:1055E4000000D34C20004F49FF49794149495536C1
:1055F400101814127F1C2A4929104121110905038E
:10560400142A492A14462A190A041C225151727F69
:1056140002040810207F7F0204027F7F09192640BC
:1056240040101402141040FFFFFFFFFFFFFFFFFFB5
:10563400FFFFFFFFB5620600140001000000D00860
:1056440000000008070007000300000000000CBC75
:10565400B56206010800F00A0000000000000969B4
:10566400B56206010800F04400000000000043FF9A
:10567400B56206010800F00900000000000008629D
:10568400B56206010800F000000000000000FF23DE
:10569400B56206010800F001000000000000002AC5
:1056A400B56206010800F04300000000000042F863
:1056B400B56206010800F04200000000000041F15C
:1056C400B56206010800F00D0000000000000C7E29
:1056D400B56206010800F0400000000000003FE34E
:1056E400B56206010800F006000000000000054D48
:1056F400B56206010800F00200000000000001315C
:10570400B56206010800F00700000000000006541E
:10571400B56206010800F003000000000000023832
:10572400B56206010800F00E0000000000000D85BF
:10573400B56206010800F04100000000000040EAE4
:10574400B56206010800F00F0000000000000E8C96
:10575400B56206010800F0050000000000000446E0
:10576400B56206010800F008000000000000075BB5
:10577400B562060806007D000100000092A6B5622D
:10578400060806007D000100010093A8B562060822
:1057940006007D000100020094AAB5620608060016
:1057A4007D000100030095ACB562060806007D008B
:1057B4000100040096AE25640025332E32660025D0
:0257C40058008B
:00000001FF
