S0190000466C696768745F436F6E74726F6C6C65722E737265632A
S11300000C94CF010C94EE010C94EE010C94EE01CF
S11300100C94EE010C94040A0C94EE010C94EE0181
S11300200C94EE010C94EE010C94EE010C94CA07AE
S11300300C94EE010C94EE010C94310A0C94590AC0
S11300400C94EE010C94EE010C94EE010C94EE0170
S11300500C94EE010C94EE010C94EE010C94EE0160
S11300600C94EE010C94EE010C94EE010C94EE0150
S11300700C94EE010C94EE010C94EE010C94EE0140
S11300800C94EE010C94EE010C94EE010C94EE0130
S11300900C94EE010C94EE010C94EE010C94EE0120
S11300A00C94EE010C94EE010C94EE010C94EE0110
S11300B00C94EE010C94EE010C94EE010C94EE0100
S11300C00C94EE010C94EE010C94EE010C94EE01F0
S11300D00C94EE010C943C170C94EE010C94EE017C
S11300E00C94EE010C94EE010C94EE010C94EE01D0
S11300F00C94EE0160066F066F066F066F066F06BE
S11301006A066F0665065B061A066F067406ED0539
S1130110F205F705FC05010606060B061006150692
S11301206F066F066F066F066F066F066F0647064B
S11301306F064C065606330651061F062E066F063A
S11301406F066F063806290624063D066F066F06FD
S11301504206AB06AD06AF06B106B306B506B70652
S1130160B906430749074B074D074F075107530784
S1130170084AD73B3BCE016E84BCBFFDC12F3D6C0A
S113018074319ABD56833DDA3D00C77F11BED9E470
S1130190BB4C3E916BAAAABE000000803F05A84C50
S11301A0CDB2D44EB93836A9020C50B9918688081C
S11301B03CA6AAAA2ABE000000803F0664EC1B3CB1
S11301C004BC163E3BE5B93CC93C37C29E5A3D6669
S11301D00498083EEA69AAAA3E000000803F07632B
S11301E04236B79BD8A71A39685618AEBAAB558CA5
S11301F01D3CB7CC5763BD6DEDFD753EF6177231EE
S1130200BF000000803F08000000BE922449123E57
S1130210ABAAAA2ABECDCCCC4C3E00000080BEAB1B
S1130220AAAAAA3E00000000BF000000803F000010
S1130230000000084178D3BB4387D1133D190E3C1D
S1130240C3BD4282AD2B3E68EC8276BED98FE1A954
S11302503E4C80EFFFBE01C4FF7F3F000000000062
S11302606E616E00696E66004E414E494E495459A6
S1130270494E46CDCCCC3D0AD7233C17B7D138776D
S1130280CC2B329595E6241FB14F0A000020410083
S113029000C84200401C4620BCBE4CCA1B0E5AAECD
S11302A0C59D7400407A10F35A00A0724E180900DC
S11302B010A5D4E80000E87648170000E40B5402C7
S11302C00000CA9A3B000000E1F505000080969802
S11302D000000040420F000000A086010000001052
S11302E02700000000E80300000000640000000094
S11302F0000A00000000000100000000002C76D875
S113030088DC674F0823DFC1DFAE59E1B1B796E55A
S1130310E3E453C63AE651997696E8E6C28426EBBE
S1130320898C9B62ED407C6FFCEFBC9C9F40F2BAD1
S1130330A56FA5F490055A2AF75C936B6CF9676D69
S1130340C11BFCE0E40D47FEF520E6B500D0ED90BE
S11303502E0300943577050080841E080000204E8B
S11303600A000000C80C333333330F986E12831124
S113037041EF8D2114893BE65516CFFEE6DB18D1FB
S1130380844B381BF77C1D901DA4BBE424203284CD
S1130390725E228100C9F124ECA1E53D27001124FD
S11303A01FBECFEFCDBFDFE7DEBF12E4A0E0B0E4B5
S11303B0E0E5F0E500E00BBF02C007900D92A2312A
S11303C0B107D9F72DE4A2E1B2E401C01D92A33034
S11303D0B207E1F70E94F5090C9426280C9400005A
S11303E0E0E0F4E08081806E8083E0E2F4E08081EC
S11303F08C608083E0E4F4E0808185608083E4E0C5
S1130400F4E08081806E8083E4E2F4E080818C609B
S11304108083E0E6F9E080818162808308958F9291
S11304209F92AF92BF92CF92DF92EF92FF920F937F
S11304301F93CF93DF93813471F490910404E1E02E
S1130440F0E0062E01C0EE0F0A94EAF7E095E923E6
S1130450E093040410C0823409F073C09091240422
S1130460E1E0F0E0062E01C0EE0F0A94EAF7E09511
S1130470E923E0932404902E132FD22FC62F082FA4
S113048040936409C12CD12C76018091630987FDC6
S113049013C08FEFC81AD80AE80AF80AC701B601D0
S11304A00E94D61B20E030E543EC57E40E94EE1C8A
S11304B018165CF781E046C0909163099F7790938A
S11304C063098D2EAD2EB12E8A2D88198915F0F46D
S11304D0109264098091630987FD12C0EFEFCE1A70
S11304E0DE0AEE0AFE0AC701B6010E94D61B20E00E
S11304F030E543EC57E40E94EE1C18165CF7DACFA3
S113050080916409F50181935F01DECF013461F4C8
S11305102091040481E090E001C0880FCA95EAF7B5
S1130520822B809304040BC02091240481E090E08A
S113053001C0880FCA95EAF7822B8093240482E0D5
S113054001C080E0DF91CF911F910F91FF90EF9058
S1130550DF90CF90BF90AF909F908F900895CF92EF
S1130560DF92EF92FF921F93CF93DF93813471F464
S113057090910404E1E0F0E0062E01C0EE0F0A942D
S1130580EAF7E095E923E093040410C0823409F00B
S11305905FC090912404E1E0F0E0062E01C0EE0F6C
S11305A00A94EAF7E095E923E0932404D22F162F66
S11305B0C82F40936409C12CD12C76018091630922
S11305C087FD13C08FEFC81AD80AE80AF80AC701D2
S11305D0B6010E94D61B20E030E543EC57E40E94AC
S11305E0EE1C18165CF781E034C0D0936409809146
S11305F0630987FD12C08FEFC81AD80AE80AF80AFF
S1130600C701B6010E94D61B20E030E543EC57E455
S11306100E94EE1C18165CF7E6CFC13461F42091F9
S1130620040481E090E001C0880F1A95EAF7822B58
S1130630809304040BC02091240481E090E001C065
S1130640880F1A95EAF7822B8093240482E001C074
S113065080E0DF91CF911F91FF90EF90DF90CF90DA
S11306600895E0E0F9E080818C60808389E18093E3
S11306700609E3E0F9E0808183618083E5E0F9E045
S1130680808181608083E2E1F4E0808188608083FE
S1130690E3E1F4E08081886080830895AF92BF92A3
S11306A0CF92DF92EF92FF920F931F93CF93DF933A
S11306B0C62F142FA52E022F880F80930709C12C53
S11306C0D12C76018091050986FD13C08FEFC81ADD
S11306D0D80AE80AF80AC701B6010E94D61B20E02E
S11306E034E244E759E40E94EE1C18165CF783E0F8
S11306F050C08091050984FD49C0C09308098091C8
S1130700050986FD12C08FEFC81AD80AE80AF80A4C
S1130710C701B6010E94D61B20E034E244E759E445
S11307200E94EE1C18165CF7E2CF8091050984FD47
S11307302FC0B12EC12FDA2D8C2F8B198017F8F40E
S11307408991809308098091050986FD12C08FEF75
S1130750C81AD80AE80AF80AC701B6010E94D61BCB
S113076020E034E244E759E40E94EE1C18165CF7DA
S1130770BECF8091050984FFDFCF82E00AC080915B
S1130780040983608093040984E003C080E001C00D
S113079081E0DF91CF911F910F91FF90EF90DF9057
S11307A0CF90BF90AF9008950F931F93CF93DF9393
S11307B01F92CDB7DEB7198201E09E012F5F3F4F34
S11307C042E465E081E40E940F02182F20E841E82A
S11307D065E081E40E94AF028123182F127024EE99
S11307E046E865E081E40E94AF02182320EC47E864
S11307F065E081E40E94AF02182320E048E865E048
S113080081E40E94AF02182325E041E865E081E419
S11308100E94AF02182321E149E865E081E40E94C7
S1130820AF02182381E0123009F080E00F90DF91CD
S1130830CF911F910F910895EF92FF920F931F9301
S1130840CF93DF93CDB7DEB72697CDBFDEBF1E8231
S113085001E09E012A5F3F4F43E165E081E40E948D
S11308600F021E81812F90E00E9464237C011530C9
S113087070F11D829E012B5F3F4F40E165E081E4F2
S11308800E940F022D814DE865E081E40E94AF02D1
S11308900E81970140E065E081E40E940F02F701B8
S11308A080818533A1F48181823389F482818983B3
S11308B083818A8384818B831C82CE0101960E946A
S11308C0E1258C01C7010E94FC23C80105C0C701B2
S11308D00E94FC2380E090E02696CDBFDEBFDF912E
S11308E0CF911F910F91FF90EF900895CF93DF93D5
S11308F01F92CDB7DEB7898321E0AE014F5F5F4F12
S113090060E88CE30E944E0391E0843009F090E0AB
S1130910892F0F90DF91CF910895CF93DF9300D06B
S1130920CDB7DEB789836A8322E0AE014F5F5F4FA4
S113093060E08CE30E944E0391E0843009F090E083
S1130940892F0F900F90DF91CF910895CF92DF926E
S1130950EF920F931F93CF93DF93CDB7DEB7CB57AF
S1130960D109CDBFDEBFEA961FAEEA97EB961FAE64
S1130970EB97EC961FAEEC97E7961FAEE79790E4E3
S1130980E8969FAFE897E9961FAEE9972091064055
S11309903091074040910840E6962DAF3EAF4FAFEF
S11309A0E6972091094030910A4040910B40E3962C
S11309B02DAF3EAF4FAFE39720910C4030910D40E7
S11309C040910E40E0962DAF3EAF4FAFE09795E0DB
S11309D0EFE0F0E4DE01DD9601900D929A95E1F7E7
S11309E04091144050911540609116407091174009
S11309F0AA964CAF5DAF6EAF7FAFAA97C090184078
S1130A00D0901940E0901A40AD96CDAEDEAEEFAE78
S1130A10AD9700911B4010911C4020911D403091D6
S1130A201E40A6960CAF1DAF2EAF3FAFA69795E024
S1130A30EFE1F0E4DE01D89601900D929A95E1F78A
S1130A4095E0E4E2F0E4DE01D39601900D929A95EC
S1130A50E1F70091294010912A4020912B403091D8
S1130A602C40A2960CAF1DAF2EAF3FAFA29795E0DE
S1130A70EDE2F0E4DE019E9601900D929A95E1F785
S1130A8096E0E2E3F0E4DE011F9601900D929A9560
S1130A90E1F795E0E8E3F0E4DE01999601900D9228
S1130AA09A95E1F795E0EDE3F0E4DE019496019088
S1130AB00D929A95E1F795E0E2E4F0E4DE015F96A9
S1130AC001900D929A95E1F797E0E7E4F0E4DE01F6
S1130AD0189601900D929A95E1F795E0EEE4F0E412
S1130AE0DE015A9601900D929A95E1F700915340D8
S1130AF01091544020915540309156406E960CAF61
S1130B001DAF2EAF3FAF6E970091574010915840E4
S1130B102091594030915A406A960CAF1DAF2EAFC8
S1130B203FAF6A9700915B4010915C4020915D401B
S1130B3030915E4066960CAF1DAF2EAF3FAF669707
S1130B4062964CAF5DAF6EAF7FAF629795E0EFE515
S1130B50F0E4DE01559601900D929A95E1F797E045
S1130B60E4E6F0E4DE01119601900D929A95E1F726
S1130B7040916B4050916C4060916D4070916E401B
S1130B802E964CAF5DAF6EAF7FAF2E9740916F4006
S1130B905091704060917140709172402A964CAFB0
S1130BA05DAF6EAF7FAF2A97409173405091744010
S1130BB0609175407091764026964CAF5DAF6EAFF4
S1130BC07FAF269790E0FC01B497EF32F10508F06F
S1130BD086C0E658FF4F0C94052323E0AE01465926
S1130BE05F4F86C024E0AE014E595F4F81C025E0BF
S1130BF0AE01485C5F4F7CC025E0AE014D5C5F4FA9
S1130C0077C024E0AE01425A5F4F72C025E0AE01C6
S1130C10425D5F4F6DC026E0AE01415F5F4F68C02B
S1130C2025E0AE01475D5F4F63C025E0AE014C5D3A
S1130C305F4F5EC023E0AE014A585F4F59C025E0C4
S1130C40AE01415E5F4F54C027E0AE01485F5F4F85
S1130C504FC025E0AE01465E5F4F4AC024E0AE01BE
S1130C60465A5F4F45C024E0AE014A5A5F4F40C028
S1130C7024E0AE014E5A5F4F3BC024E0AE01425B1C
S1130C805F4F36C025E0AE014B5E5F4F31C027E0B9
S1130C90AE014F5F5F4F2CC024E0AE01465B5F4F57
S1130CA027C024E0AE014A5B5F4F22C024E0AE01BE
S1130CB04E5B5F4F1DC023E0AE014D585F4F18C01F
S1130CC025E0AE01435C5F4F13C023E0AE01405901
S1130CD05F4F0EC023E0AE0143595F4F09C023E0CC
S1130CE0AE0147585F4F04C024E0AE014A595F4F3C
S1130CF060E48CE30E944E0391E0843009F090E0BC
S1130D00892FC558DF4FCDBFDEBFDF91CF911F9133
S1130D100F91EF90DF90CF900895CF92DF92EF92F2
S1130D20FF920F931F93CF93DF93CDB7DEB76497F2
S1130D30CDBFDEBF11E000E094E1C92ECE010196E3
S1130D407C01802F90E088309105B8F4FC01E755D0
S1130D50FF4F0C94052380EB0DC081EB0BC082EB9D
S1130D6009C083EB07C084EB05C085EB03C086EBA9
S1130D7001C087EB0E94760418230F5F0930D1F07D
S1130D8080E00E947604D82E80E10E9476048D21B2
S1130D90182387E0D82EF7018C2D11928A95E9F754
S1130DA024E1A70160E48CE30E944E03DA94D1109D
S1130DB0F2CFC7CF812F6496CDBFDEBFDF91CF9135
S1130DC01F910F91FF90EF90DF90CF900895CF93F4
S1130DD06FE388EA0E948D04C82F60E083ED0E94CF
S1130DE08D048C23C82FC17080E40E947604C8232C
S1130DF080EA0E947604C82380EC0E947604C8230B
S1130E0062E08AED0E948D04C8236FE781E80E94A6
S1130E108D04C82384EA0E947604C82386EA0E94CB
S1130E207604C82360E885ED0E948D04C82364E13C
S1130E308DE80E948D04C8238FEA0E947604C8239B
S1130E400E948D068C23CF910895EF92FF920F9309
S1130E501F93CF93DF93D82F8B01E42E80E00E9461
S1130E607604C82F80E10E9476048C23C82FC170B9
S1130E708D2F90E0FC013197E730F105B0F4EF5489
S1130E80FF4F0C94052381EB0E947604C823D0E025
S1130E900EC082EBF9CF83EBF7CF84EBF5CF85EB74
S1130EA0F3CF86EBF1CF87EBEFCF80EBEDCFF801FB
S1130EB0ED0FF11D80810E94A604F82E80E20E94AD
S1130EC0A6048F21C823DF5FED1688F78C2FDF91EE
S1130ED0CF911F910F91FF90EF900895CF93DF93DF
S1130EE0CDB7DEB72897CDBFDEBF20911242309137
S1130EF01342232B89F4E2E1F2E428EB3BE0219353
S1130F0031932D5F3F4F233747E13407C1F72091D9
S1130F1060042F6020936004FE01319648E0DF01F5
S1130F201D924A95E9F7DC019F01AC01485F5F4FD0
S1130F308D919C9111978536910510F084E690E08F
S1130F408D939D93880F991FFC01EE5EFD4B80816C
S1130F509181F901819391939F01A417B50741F7FA
S1130F6089819A818093280A9093290A1092200AF1
S1130F701092210A809164048160809364048091BA
S1130F80000A81608093000A2896CDBFDEBFDF91FE
S1130F90CF9108951F920F920FB60F9211240BB6A2
S1130FA00F928F93EF93FF93E4E6F4E080818E7FBA
S1130FB08083EBE0FAE0808180618083E0E0FAE006
S1130FC080818E7F8083FF91EF918F910F900BBE74
S1130FD00F900FBE0F901F9018958F929F92AF9213
S1130FE0BF92CF92DF92EF92FF920F931F93CF9312
S1130FF0DF93CDB7DEB7A397CDBFDEBF182F8091A7
S1131000FB4B882379F01092FB4B89E49AE40E940D
S1131010F9109091484A811102C0892F01C0892B8F
S11310208093484A8091AD4A833080F01092AD4A53
S113103089E49AE40E94C10A9091484A811102C04D
S1131040892F02C0880F892B8093484A8091AE4A29
S1131050823098F01092AE4A89E49AE40E94740DAA
S11310602091484A811102C0822F05C038E0839F35
S1131070C0011124822B8093484A8091AA4A882374
S113108099F01092AA4A89E49AE40E94770B20917D
S1131090484A811102C0822F05C044E0849FC001E8
S11310A01124822B8093484A8091AC4A883030F0D6
S11310B01092AC4A89E49AE40E946A178091A94A82
S11310C0882329F11092A94A8CEE99E40E941C0409
S11310D08093E4499093E54925E0FE0131967F0130
S11310E0322F11923A95E9F79F938F9386E092E419
S11310F09F938F931F922F93FF92EF920E948E27BC
S1131100482FB70183E00E942507CDBFDEBF809141
S1131110AB4A823308F472C015FF70C01092AB4A18
S11311208AE0D82E5E015AE1A50EB11CF5013D2DD1
S113113011923A95E9F77E0140E1E40EF11CF701C2
S11311403D2D11923A95E9F79FE0C92EAE014F5F0C
S11311505F4F4A01FA013C2D11923A95E9F78091CB
S1131160704A8F9380916F4A8F9380916E4A8F93C8
S113117080916D4A8F9309E012E41F930F931F929D
S1131180DF92BF92AF920E948E27482FB50180E074
S11311900E9425078091744A8F938091734A8F939C
S11311A08091724A8F938091714A8F931F930F930A
S11311B01F92DF92FF92EF920E948E27482FB70171
S11311C081E00E9425078091784A8F938091774A25
S11311D08F938091764A8F938091754A8F931F9352
S11311E00F931F92CF929F928F920E948E27482F27
S11311F0B40182E00E942507CDBFDEBF8091AF4AD3
S1131200823030F01092AF4A84EE99E40E946E0767
S1131210A396CDBFDEBFDF91CF911F910F91FF90B9
S1131220EF90DF90CF90BF90AF909F908F900895F4
S11312305F926F927F928F929F92AF92BF92CF9262
S1131240DF92EF92FF920F931F93CF93DF93CDB76B
S1131250DEB72897CDBFDEBF522E632E742E852EA7
S1131260962EB72FF82FE92F19821A821B821C821F
S11312701D821E821F82188629813A814B815C81DE
S11312806D817E818F819885A1E00E94402329830E
S11312903A834B835C836D837E838F839887A52CED
S11312A0B62CC72CD82CE92CFB2E0F2F1E2F0E94F6
S11312B04C2310F32896CDBFDEBFDF91CF911F9151
S11312C00F91FF90EF90DF90CF90BF90AF909F90E1
S11312D08F907F906F905F900895FF920F931F936C
S11312E0CF93DF938091400080FF0AC020EA36E864
S11312F041E050E060E070E080E090E00E94180976
S113130094E288ED84BF909368008091650081FF2A
S1131310FCCF0E947315082F0E94F0010E94310334
S11313200E94D403C82F0E94410DD82F0E94440B61
S1131330182F0E946D0AF82E0E94E7069091400132
S11313409560909340019091420192609093420184
S113135020E030E820934C0130934D019091000A35
S113136096609093000A90910A0A906190930A0AF9
S11313709091000B93609093000B9091050B9160FA
S11313809093050B20E63AEE20930C0B30930D0B53
S11313909091100B93609093100B9091150B9160AA
S11313A09093150B2DE531EE20931C0B30931D0B00
S11313B07894FF0C34E0139FB00111246F29602B43
S11313C098E0D99FA0011124462B90E1C99F900178
S11313D01124242B30E2839FC0011124822BDF913E
S11313E0CF911F910F91FF900895CF930E946D09A3
S11313F0C82F8F718F3121F48C2F0E94ED07FCCF01
S113140080E090E0CF9108951F920F920FB60F9253
S113141011248F939F93AF93BF938091A54A90918A
S1131420A64AA091A74AB091A84A0196A11DB11D50
S11314308093A54A9093A64AA093A74AB093A84A3A
S11314408091A94A8F5F8093A94A82E080934301E7
S1131450BF91AF919F918F910F900FBE0F901F90EE
S113146018951F920F920FB60F9211248F938091AB
S1131470AF4A8F5F8093AF4A8091AB4A8F5F80936E
S1131480AB4A8091AD4A8F5F8093AD4A8091AC4A5C
S11314908F5F8093AC4A8091AE4A8F5F8093AE4A4F
S11314A081E08093060B8F910F900FBE0F901F90D9
S11314B018951F920F920FB60F9211248F9380915B
S11314C0AA4A8F5F8093AA4A81E08093160B8F917A
S11314D00F900FBE0F901F9018950F931F93CF93EB
S11314E0DF931F92CDB7DEB7198201E09E012F5F13
S11314F03F4F4FE867E081E40E940F02182F27E076
S11315004EE067E081E40E94AF028123182F12703D
S11315102CE540E167E081E40E94AF02182322E158
S113152041E167E081E40E94AF02182381E01230B8
S113153009F080E00F90DF91CF911F910F910895F2
S11315400E94D61B2AE037ED43E252E40E942E1B90
S113155020E836EE45EC57E40E942E1B2FE135EDD2
S113156042E45EE30E94681D20E030E040E85FE36F
S11315700E94451A24EC3AE24DE257EC0E94FB1C0F
S11315800895EF92FF920F93CF93DF93CDB7DEB719
S11315902797CDBFDEBF7C011D821E821F8203E020
S11315A09E012B5F3F4F48EA67E081E40E940F02EF
S11315B0823009F05DC08F8190E0A0E0B0E0DC01F2
S11315C0992788272D81820F911DA11DB11D2E8180
S11315D030E0322F2227820F931FA11DB11DE0910D
S11315E0FA4B21E02E0F2093FA4B34E0E39FF001F5
S11315F01124E654F44B80839183A283B383203176
S1131600C8F119821A821B821C82EAEBFBE4419125
S113161051916191719189819A81AB81BC81840FCF
S1131620951FA61FB71F89839A83AB83BC838BE462
S1131630EA3FF80761F789819A81AB81BC8124E094
S1131640B695A795979587952A95D1F789839A8317
S1131650AB83BC8369817A818B819C810E94A00ABF
S1131660F70160AB71AB82AB93AB1092FA4B02C043
S113167080E001C081E02796CDBFDEBFDF91CF912E
S11316800F91FF90EF9008950F931F93CF93DF93E3
S11316901F92CDB7DEB7198201E09E012F5F3F4F45
S11316A04FE866E081E40E940F02182F20E540E134
S11316B066E081E40E94AF028123182F127024E5B2
S11316C041E166E081E40E94AF02182328EC47E17F
S11316D066E081E40E94AF02182381E0123009F031
S11316E080E00F90DF91CF911F910F9108952F9279
S11316F03F924F925F926F927F928F929F92AF929E
S1131700BF92CF92DF92EF92FF920F931F93CF93EA
S1131710DF93CDB7DEB7AA97CDBFDEBF7C016E01E4
S113172029E1C20ED11C8CE0D6011D928A95E9F7FD
S11317300CE0960142EA66E081E40E940F028230E6
S113174009F088C11091B94BF601412F50E0440FC4
S1131750551F20E030E0BA01620F731FDB01A75769
S1131760B44B878190E0982F88270681800F911DC4
S11317708D939C93675A744B818190E0982F8827AE
S1131780A0818A0F911DDB018D939C933296205F7B
S11317903F4F20333105F9F681E0810F883018F48A
S11317A08093B94B55C11092B94B8CE0FE013D9624
S11317B0DF01282F1D922A95E9F78E010F5F1F4F35
S11317C0D8011D928A95E9F749E85BE469E57BE471
S11317D020E030E080E090E0F901EE0FFF1FEE0F13
S11317E0FF1FE00FF11F1F01BCE02B0E311CD101C4
S11317F04D905D906D907C906A01C80ED91ED60103
S1131800CD90DC904601DD0CAA08BB08840C951C25
S1131810A61CB71CD1018D929D92AD92BC921397D8
S113182040805180628073806B01C80ED91ED6013E
S1131830CD90DC904601DD0CAA08BB08840C951CF5
S1131840A61CB71C80829182A282B3820296803148
S1131850910569F684859585A685B785689412F8FF
S1131860B595A795979587951694D1F7848795870D
S1131870A687B78780819181A281B381689412F889
S1131880B595A795979587951694D1F780839183FD
S1131890A283B3832F5F3F4F405F5F4F605F7F4FF3
S11318A02330310509F096CF8091A54A9091A64A3C
S11318B0A091A74AB091A84A892B8A2B8B2BF1F4CB
S11318C089819A81AB81BC8191958195910980939D
S11318D0534B9093544B8D819E81AF81B8858093F7
S11318E0554B9093564B89859A85AB85BC859195CC
S11318F0819591098093574B9093584B89819A8194
S1131900AB81BC812091534B3091544B820F931F78
S11319109195819591098DA39EA38D819E81AF811F
S1131920B8852091554B3091564B821B930B8FA356
S113193098A789859A85AB85BC852091574B3091B2
S1131940584B820F931F91958195910989A79AA766
S11319506E01E5E2CE0ED11C87015701FCE0AF0E0B
S1131960B11CD6016D917D916D01072E000C880B81
S1131970990B0E94D81B20E030E04AEF53E40E9408
S1131980FB1C20E030E040E058E30E94FB1C2BED00
S11319903FE049E450E40E94FB1C20E030E044E3D3
S11319A053E40E942E1BF8016193719381939193E8
S11319B08F01AE16BF06A9F66D857E858F85988941
S11319C00E94D81B9B01AC010E94461A20E030E023
S11319D040E058E30E94FB1CD7011C966D937D9355
S11319E08D939C931F9789899A89AB89BC899C01A3
S11319F0AD0166277727CB01621B730B840B950B14
S1131A000E94D81B9B01AC010E94461A20E030E0E2
S1131A1040E058E30E94FB1CD70150966D937D93E0
S1131A208D939C9353976D897E898F89988D0E949D
S1131A30D81B9B01AC010E94461A20E030E040E034
S1131A4058E30E94FB1CF701648B758B868B978B84
S1131A5081E001C080E0AA96CDBFDEBFDF91CF91C7
S1131A601F910F91FF90EF90DF90CF90BF90AF90B8
S1131A709F908F907F906F905F904F903F902F90AA
S1131A8008950F931F93CF93DF931F92CDB7DEB7C3
S1131A90198224E342E663E082E40E94AF02182F35
S1131AA001E09E012F5F3F4F4FEC63E082E40E9410
S1131AB00F028123182F12702CE840E663E082E4C1
S1131AC00E94AF02182321E041E663E082E40E9411
S1131AD0AF02182381E0123009F080E00F90DF910B
S1131AE0CF911F910F9108952F923F924F925F9241
S1131AF06F927F928F929F92AF92BF92CF92DF921A
S1131B00EF92FF920F931F93CF93DF93CDB7DEB77E
S1131B106297CDBFDEBF5C019E01235F3F4F86E02D
S1131B20D9011D928A95E9F706E048EE63E082E464
S1131B300E940F02823009F086C14091524B842FDB
S1131B4090E0FC01EE0FFF1FEE50F54B2E8530E0C8
S1131B50322F22275D85250F311D20833183FC011F
S1131B60EE0FFF1FEE5EF44B288930E0322F222760
S1131B705F85250F311D20833183880F991FFC0158
S1131B80EE5CF44B8A8990E0982F88272989820F8C
S1131B90911D808391834F5F403118F44093524BE1
S1131BA050C11092524BFE0131964F018CE0DF017F
S1131BB01D928A95E9F7E0EEFAE496EE292E9AE46E
S1131BC0392E4CEE5AE462EF7AE420E030E080E013
S1131BD090E08901000F111F000F111F080D191D3E
S1131BE0D8014D905D906D907C906B01C80ED91E0C
S1131BF0D601ED90FC906701FF0CEE08FF08C40CC1
S1131C00D51CE61CF71CD801CD92DD92ED92FC9216
S1131C10139702968032910519F7CD90DD90ED90DF
S1131C20FC90139784E0F594E794D794C7948A952D
S1131C30D1F7CD92DD92ED92FC9213974D905D9089
S1131C406D907C90DA018D919C916C01092E000CB1
S1131C50EE08FF08D801C414D504E604F704E4F43C
S1131C604D905D906D907C90DA014D925C92D10123
S1131C708D919C91820157FE04C0002711270419FD
S1131C8015097C0197FF04C0EE24FF24E81AF90A21
S1131C900E151F055CF52FC04D905D906D907C90E6
S1131CA0D101ED90FC906701FF0CEE08FF084C1485
S1131CB05D046E047F044CF5D8014D905D906D90E9
S1131CC07C906201D1014D925C927C0197FF04C02B
S1131CD0EE24FF24E81AF90A8201D7FE04C0002783
S1131CE0112704191509E016F1062CF4481A590AAB
S1131CF04082518204C08419950980839183808134
S1131D00918195958795808391832F5F3F4F32967C
S1131D10B2E02B0E311C4E5F5F4F605E7F4F23306D
S1131D20310509F054CF8091A54A9091A64AA0911B
S1131D30A74AB091A84A0397A105B10508F481C048
S1131D408D819E81AF81B885C090E24AD090E34AEC
S1131D500D2C000CEE08FF08BC01CD016C197D09A7
S1131D608E099F090E94D81B2B013C01C701B601B3
S1131D700E94D81B9B01AC010E94461A9B01AC0136
S1131D80C301B2010E942E1BF501608F718F828FF7
S1131D90938F89819A81AB81BC81C090E04AD090B5
S1131DA0E14A0D2C000CEE08FF08BC01CD016C19B2
S1131DB07D098E099F090E94D81B2B013C0177FAEB
S1131DC0709477F87094C701B6010E94D81B9B01E8
S1131DD0AC010E94461A9B01AC01C301B2010E94EE
S1131DE02E1BD5015C966D937D938D939C935F9789
S1131DF089859A85AB85BC85C090E44AD090E54A34
S1131E000D2C000CEE08FF08BC01CD016C197D09F6
S1131E108E099F090E94D81B2B013C01C701B60102
S1131E200E94D81B9B01AC010E94461A9B01AC0185
S1131E30C301B2010E942E1BF50160A371A382A30A
S1131E4093A381E001C080E06296CDBFDEBFDF9145
S1131E50CF911F910F91FF90EF90DF90CF90BF90A3
S1131E60AF909F908F907F906F905F904F903F9036
S1131E702F9008954F925F926F927F928F929F92CC
S1131E80AF92BF92CF92DF92EF92FF920F931F9384
S1131E90CF93DF93CDB7DEB76A97CDBFDEBF4901DD
S1131EA05A01ED86FE860F87188BC98EDA8E0E9442
S1131EB0D81B20E03BE147EB5AE40E942E1B2BED9C
S1131EC03FE049E450E40E94FB1C20E030E044E39E
S1131ED053E40E942E1B2B013C01C501B4010E9456
S1131EE0D81B20E03BE147EB5AE40E942E1B2BED6C
S1131EF03FE049E450E40E94FB1C20E030E044E36E
S1131F0053E40E942E1B6B017C01C301B2010E94A9
S1131F10B81D69837A838B839C839B01AC010E94E7
S1131F20FB1C28E136EF4BE358E30E94FB1C9B01AA
S1131F30AC0160E070E080E89FE30E94451A0E94D3
S1131F40C61D9B01AC0162E375EA82EC9AE40E942F
S1131F502E1B4B015C01C301B2010E94291B698B3A
S1131F607A8B8B8B9C8B2D853E854F855889C5013B
S1131F70B4010E94461A29893A894B895C890E94D6
S1131F80FB1C2B013C01C701B6010E94291B698778
S1131F907A878B879C879B01AC01C301B2010E94A5
S1131FA0FB1C6D837E838F839887C701B6010E94D3
S1131FB0B81D6B017C019B01AC01C301B2010E94FD
S1131FC0FB1C2B013C0120E13DEF4FE75FE3C50122
S1131FD0B4010E94FB1C2D853E854F8558890E94C3
S1131FE0461A29813A814B815C810E94FB1C4B017A
S1131FF05C018091BC4A811120C091E09093BC4A5D
S11320002D813E814F8158852093B04A3093B14A47
S11320104093B24A5093B34A4092B44A5092B54A5C
S11320206092B64A7092B74A8092B84A9092B94A7E
S1132030A092BA4AB092BB4AC8C02091B04A30912B
S1132040B14A4091B24A5091B34A6D817E818F81E9
S113205098850E94451A6D837E838F83988720918B
S1132060B44A3091B54A4091B64A5091B74AC30137
S1132070B2010E94451A6D8B7E8B8F8B988F69817C
S11320807A818B819C81905829853A854B855C8522
S11320900E94FB1C2D813E814F8158850E94FB1CB0
S11320A02B013C01A701960169817A818B819C8176
S11320B00E94FB1C2D893E894F89588D0E94FB1C70
S11320C09B01AC01C301B2010E94451A2B013C01E2
S11320D02091B84A3091B94A4091BA4A5091BB4ACA
S11320E0C501B4010E94451A29893A894B895C8942
S11320F00E94FB1C9B01AC01C301B2010E94461A61
S113210020ED3CEC4CEC5DE30E94FB1C4B015C01BC
S113211026E636E646E65FE3E98DFA8D6081718155
S1132120828193810E94FB1C9B01AC01C501B40117
S11321300E94461AE98DFA8D6083718382839383AA
S1132140C701B60190582D813E814F8158850E9468
S1132150FB1C4B015C012D893E894F89588D698593
S11321607A858B859C850E94FB1C9B01AC01C50173
S1132170B4010E94461A20ED3CEC4CEC5DE30E9455
S1132180FB1C6B017C0126E636E646E65FE3E98D3F
S1132190FA8D64817581868197810E94FB1C9B0165
S11321A0AC01C701B6010E94461AE98DFA8D648319
S11321B07583868397838D859E85AF85B889B0584E
S11321C080879187A287B38781E06A96CDBFDEBFFF
S11321D0DF91CF911F910F91FF90EF90DF90CF90FF
S11321E0BF90AF909F908F907F906F905F904F9033
S11321F008952F923F924F925F926F927F928F92A7
S11322009F92AF92BF92CF92DF92EF92FF920F9381
S11322101F93CF93DF93CDB7DEB7CF58D109CDBF8E
S1132220DEBFAC018DE0E7E7F0E4DE01AB59BF4F60
S113223001900D928A95E1F78E010F5F1F4F84E69E
S1132240D8011D928A95E9F79FEF80E020E0309154
S1132250FC4B2317B9F1622F70E0DB01A350B44BA0
S11322603C91DD24D394D20E343211F4922F21C048
S11322703C913A3271F49F3F61F0ED2DF0E0E35070
S1132280F44BD080E2E0E20FF0E0E350F44BC08086
S11322901CC03C913C3269F49F3F91F0E5E6EE2E80
S11322A0F12CEC0EFD1EE80EF11CF70120838F5F6C
S11322B002C09F3F29F02C91D801A60FB71F2C9381
S11322C02D2DC5CFC12CD12C2FEF1092FC4B9F3F4D
S11322D011F480E0D6C32F3FE1F3E2E0F0E0EC0F2D
S11322E0FD1FE90FF11D97FDFA9580819E5F022E77
S11322F0000C330B692F70E0261737073CF0F80108
S1132300E60FF71F608186279F5FF4CF1A017E01D5
S1132310FFE7EF0EF11CD7011D921D921C92282F8E
S1132320082E000C330B3F938F938FE092E49F931E
S11323308F931F9283E08F93FF92EF920E948E27D8
S1132340CDBFDEBF813039F4D7018C9111968C93C7
S1132350119780E38C93F70180818D11BACF81812D
S1132360C812B7CFA8968FADA897082E000C990B6A
S1132370A7962FADA797022E000C330BAC01421B7E
S1132380530B4130510549F0E2E0F0E0EC0FFD1F42
S1132390E20FF31F20812093DF4AE1962FADE197EE
S11323A0022E000C330BE2964FADE297042E000C84
S11323B0550B421B530B4130510549F0E2E0F0E06C
S11323C0EC0FFD1FE20FF31F20812093DE4A2091C2
S11323D0DF4A213409F07DCF2091DE4A213409F00F
S11323E078CFA996EFACA9970E2C000CFF089701A3
S11323F0281B390B2130310509F490C0E2E0F0E0EC
S1132400EC0FFD1FE80FF91F2081ED962FAFED971C
S1132410FE01E80FF91F2381EE962FAFEE97EF969A
S11324201FAEEF97FE01E80FF91F2481E9962FAF45
S1132430E997FE01E80FF91F2581EA962FAFEA9785
S1132440EB961FAEEB97FE01E80FF91F2781E39689
S11324502FAFE397FE01E80FF91F2085E4962FAF15
S1132460E497FE01E80FF91F2185E5962FAFE59764
S1132470FE01E80FF91F2285E6962FAFE697FE01CD
S1132480E80FF91F8385E7968FAFE797E8961FAEAD
S1132490E897CE0184589F4F0E94FF252B013C01F1
S11324A0CE0188589F4F0E94FF254B015C01CE014D
S11324B08E589F4F0E94FF25CE57DF4F6883798344
S11324C08A839B83C258D040E091DD4A24E0E29F96
S11324D0F0011124E353F54BACE3B0E0A301920106
S11324E00E940E239B01AC01280D391D4A1D5B1D62
S11324F060EA76E881E090E00E94F522CE57DF4F53
S1132500288139814A815B81C258D040260F371F08
S1132510481F591F2083318342835383AA96EFAD0A
S1132520AA970E2E000CFF0BCF018E199F0901975D
S113253051F18091DD4A34E0839F60011124D6017A
S1132540A353B54B6D917D918D919C91A2E0B0E028
S1132550AC0FBD1FAE0DBF1D2C912E3421F02FEFFB
S11325603FEFA90104C021E030E040E050E0D60193
S1132570A353B54B7D010E94F522D7016D937D9342
S11325808D939C931397AB96EFACAB970E2C000CEA
S1132590FF08C7018E1B9F0B019709F49EC0A2E0A0
S11325A0B0E0AC0FBD1FAE0FBF1F8C91E9968FAF8B
S11325B0E997DE01AE0FBF1F13968C91EA968FAF99
S11325C0EA97DE01AE0FBF1F14968C91EB968FAF86
S11325D0EB97EC961FAEEC97DE01AE0FBF1F15967E
S11325E08C91ED968FAFED97DE01AE0FBF1F16965F
S11325F08C91EE968FAFEE97EF961FAEEF97DE01BC
S1132600AE0FBF1F18968C91E3968FAFE397DE0150
S1132610AE0FBF1F19968C91E4968FAFE497DE013D
S1132620AE0FBF1F1A968C91E5968FAFE597DE012A
S1132630AE0FBF1F1B968C911B97E6968FAFE69744
S1132640FD018485E7968FAFE797E8961FAEE8977C
S1132650CE0188589F4F0E94FF254B015C01CE019B
S113266084589F4F0E94FF252B013C01CE018E58B8
S11326709F4F0E94FF25CE57DF4F688379838A835B
S11326809B83C258D040E091DD4AB4E0EB9FF00157
S11326901124E354F54BACE3B0E0A50194010E948E
S11326A00E239B01AC01240D351D461D571D60EA08
S11326B076E881E090E00E94F522CE57DF4F288132
S11326C039814A815B81C258D040260F371F481F89
S11326D0591F2083318342835383AC96DFACAC977C
S11326E0ED2D0D2C000CFF0BCF018E199F090197C6
S11326F051F18091DD4A34E0839F50011124D501CA
S1132700A354B54B6D917D918D919C91A2E0B0E065
S1132710AC0FBD1FAE0DBF1D2C91273529F021E054
S113272030E040E050E003C02FEF3FEFA901D501B6
S1132730A354B54B7D010E94F522D7016D937D937F
S11327408D939C931397AD96BFACAD97EB2C0B2C4C
S1132750000CFF08C7018E1B9F0B0197E9F19B2D0D
S11327609D196E01B2E7CB0ED11C86E0D6011D92F5
S11327708A95E9F73196E00FF11FD6018A2F8C195B
S1132780891718F481918D93F9CF4101B4E58B0E2B
S1132790911C26E636E646E65FE3F401608171812A
S11327A0828193810E94FB1C2B013C01BE0168586D
S11327B07F4FC6010E9485242DEC3CEC4CEC5DE37C
S11327C00E94FB1CA30192010E94461AD4016D933E
S11327D07D938D939C931397AE968FADAE97282FD0
S11327E0082E000C330B2E193F092130310501F15D
S11327F0982F9B19BFEFEB1AFB0AF801EE0DFF1D92
S11328009E012E583F4FD9018A2F821B891718F435
S113281081918D93F9CFBE0168587F4FC9010E9401
S11328208524F101E85AFF4F608371838283938387
S11328308091DD4A8F5F843018F48093DD4A49CD5E
S11328401092DD4AEDECFAE4CE57DF4FE883F983CA
S1132850C258D040ADEBBAE4C457DF4FA883B98364
S1132860CC58D040612C712C812C912CC857DF4F4F
S11328701882C858D040C757DF4F1882C958D04073
S1132880C657DF4F1882CA58D040C557DF4F188249
S1132890CB58D040B0E0A0E0C257DF4F1882CE58EA
S11328A0D040C157DF4F1882CF58D040CA57DF4FAE
S11328B01882C658D040C957DF4F1882C758D04035
S11328C0412C512CCE57DF4FE881F981C258D040BA
S11328D06191719181919191CE57DF4FE883F98392
S11328E0C258D0406B017C01FF0CCC08DC2C760173
S11328F09B01AC016C2D7C2D8C2D9C2DAB2EBA2E06
S1132900C257DF4FC880CE58D040C157DF4FD88060
S1132910CF58D040CA57DF4FE880C658D040C95777
S1132920DF4FF880C758D04082010E943723B22F6E
S1132930A32FC257DF4F4883CE58D040C157DF4F33
S11329405883CF58D040CA57DF4F6883C658D04009
S1132950C957DF4F7883C758D0402C01C457DF4F85
S1132960E881F981CC58D040619171918191919124
S1132970C457DF4FE883F983CC58D0406B017C0106
S1132980FF0CCC08DC2C76019B01AC016C2D7C2D5A
S11329908C2D9C2D53016401C857DF4FE880C85823
S11329A0D040C757DF4FF880C958D040C657DF4FD3
S11329B00881CA58D040C557DF4F1881CB58D04042
S11329C00E94372339014A01C857DF4F6883C8582A
S11329D0D040C757DF4F7883C958D040C657DF4F20
S11329E08883CA58D040C557DF4F9883CB58D0400E
S11329F02DED3AE4CE57DF4FE881F981C258D0403B
S1132A002E173F0709F05ECF930102E00E941923BD
S1132A1039014A01C101805C9F4FFC0160827182CF
S1132A20828293822B2F3A2FC257DF4F4881CE5890
S1132A30D040C157DF4F5881CF58D040CA57DF4FDD
S1132A406881C658D040C957DF4F7881C758D040F5
S1132A50C2010E941923B901CA01349620837183EB
S1132A60428393836101F4E3CF0ED11CD101D0964C
S1132A70ED90FD900D911C91D3979301A4010E94B8
S1132A803A0FC157DF4FCDBFDEBFDF91CF911F910A
S1132A900F91FF90EF90DF90CF90BF90AF909F90F9
S1132AA08F907F906F905F904F903F902F900895FC
S1132AB0282FFC0190E48E2F821B861750F48191FD
S1132AC0809362088091640886FFFCCF9093640829
S1132AD0F2CF28EE33E040E050E060E070E080E0C8
S1132AE090E00C941809CF93DF93CDB7DEB7C257AB
S1132AF0D140CDBFDEBF84EC99E080936808909309
S1132B006908809120048160809320048091650885
S1132B1080688093650880916608806C809366085D
S1132B202AE030E040E050E060E070E080E090E0D7
S1132B300E9418098091610882FF0AC080ED90E02C
S1132B40809368089093690884E08093610814C0B6
S1132B508CE1E4E8F0E4DE01119601900D928A958F
S1132B60E1F76CE1CE0101960E94581580ED90E0EA
S1132B70809368089093690820EA36E841E050E0C1
S1132B8060E070E080E090E00E94180980E1E0EAF3
S1132B90F0E4DE01A35EBE4F01900D928A95E1F749
S1132BA060E1CE01835E9E4F0E94581580E1E0EB08
S1132BB0F0E4DE01A35FBE4F01900D928A95E1F728
S1132BC060E1CE01835F9E4F0E94581580E1E0ECE6
S1132BD0F0E4DE01A350BF4F01900D928A95E1F716
S1132BE060E1CE0183509F4F0E94581580E1E0EDD3
S1132BF0F0E4DE01A351BF4F01900D928A95E1F7F5
S1132C0060E1CE0183519F4F0E94581580E1E0EEB0
S1132C10F0E4DE01A352BF4F01900D928A95E1F7D3
S1132C2060E1CE0183529F4F0E94581580E1E0EF8E
S1132C30F0E4DE01A353BF4F01900D928A95E1F7B2
S1132C4060E1CE0183539F4F0E94581580E1E0E07C
S1132C50F1E4DE01A354BF4F01900D928A95E1F790
S1132C6060E1CE0183549F4F0E94581580E1E0E15A
S1132C70F1E4DE01A355BF4F01900D928A95E1F76F
S1132C8060E1CE0183559F4F0E94581580E1E0E238
S1132C90F1E4DE01A356BF4F01900D928A95E1F74E
S1132CA060E1CE0183569F4F0E94581580E1E0E316
S1132CB0F1E4DE01A357BF4F01900D928A95E1F72D
S1132CC060E1CE0183579F4F0E94581580E1E0E4F4
S1132CD0F1E4DE01A358BF4F01900D928A95E1F70C
S1132CE060E1CE0183589F4F0E94581580E1E0E5D2
S1132CF0F1E4DE01A359BF4F01900D928A95E1F7EB
S1132D0060E1CE0183599F4F0E94581580E1E0E6AF
S1132D10F1E4DE01A35ABF4F01900D928A95E1F7C9
S1132D2060E1CE01835A9F4F0E94581580E1E0E78D
S1132D30F1E4DE01A35BBF4F01900D928A95E1F7A8
S1132D4060E1CE01835B9F4F0E94581580E1E0E86B
S1132D50F1E4DE01DD9601900D928A95E1F760E1E0
S1132D60CE01CD960E94581580E1E0E9F1E4DE0140
S1132D709D9601900D928A95E1F760E1CE018D96C2
S1132D800E94581580E1E0EAF1E4DE015D960190CD
S1132D900D928A95E1F760E1CE014D960E94581597
S1132DA080E1E0EBF1E4DE01119601900D928A9549
S1132DB0E1F760E1CE0101960E9458158EE0E0EC47
S1132DC0F1E4DE01AB59BE4F01900D928A95E1F713
S1132DD06EE0CE018B599E4F0E9458158EE0EEECAA
S1132DE0F1E4DE01A95ABE4F01900D928A95E1F7F4
S1132DF06EE0CE01895A9E4F0E9458158EE0ECED8C
S1132E00F1E4DE01A75BBE4F01900D928A95E1F7D4
S1132E106EE0CE01875B9E4F0E9458158EE0EAEE6D
S1132E20F1E4DE01A55CBE4F01900D928A95E1F7B5
S1132E306EE0CE01855C9E4F0E9458158EE0E8EF4F
S1132E40F1E4DE01A35DBE4F01900D928A95E1F796
S1132E506EE0CE01835D9E4F0E94581580916108FB
S1132E6082FB882780F991E08927CE58DE4FCDBFB9
S1132E70DEBFDF91CF9108951F920F920FB60F928C
S1132E8011240BB60F922F938F939F93EF93FF937D
S1132E9091E08091640887FF11C0809160088A30B6
S1132EA011F49093FB4BE091FC4B21E02E0F209307
S1132EB0FC4BF0E0E350F44B8083EBCFFF91EF91B8
S1132EC09F918F912F910F900BBE0F900FBE0F907B
S1132ED01F9018952F923F924F925F926F927F921C
S1132EE08F929F92AF92BF92CF92DF92EF92FF9216
S1132EF00F931F93CF93DF93CDB7DEB7AD97CDBFBD
S1132F00DEBF8CA79DA7DC015496CD90DD90ED909B
S1132F10FC90579750968D909D90AD90BC90539790
S1132F20A7019601C501B4010E94C51A6D8B7E8B61
S1132F308F8B988F9B01AC010E942F1EECA5FDA5E1
S1132F40F4A1FD87ACA5BDA59596BC91BE87ECA563
S1132F50FDA5F6A1FF87ACA5BDA59796BC91B88B3E
S1132F60882339F0ED85ED8BFE85FE8B8F858F8B65
S1132F70B88FA5019401C501B4010E94FB1C4B014B
S1132F805C01A7019601C701B6010E94FB1C9B01CD
S1132F90AC01C501B4010E94461A0E94C61D9B01E2
S1132FA0AC01ECA5FDA584859585A685B785BC01F6
S1132FB0CD0190580E94C51A698F7A8F8B8F9C8F90
S1132FC09B01AC010E942F1EACA5BDA598961C9137
S1132FD0989799960C9199979A963C909A979B9664
S1132FE02C90882321F0198F0A8F3B8E2C8E1CA3E2
S1132FF00DA33EA22FA2612F702F832D922D0E942C
S1133000291B6D8F7E8F8F8F98A3BD85B98BEE851D
S1133010E9A3FF85FAA388898BA36B2F7E2F8F2FBB
S113302098890E94B81D6D837E838F839887612F52
S1133030702F832D922D0E94B81D4B015C01ACA50D
S1133040BDA55C968D919D910D90BC91A02D898319
S11330509A83AB83BC836D857E858F8598890E9416
S1133060291B69877A878B879C87ECA5FDA5C0A05F
S1133070D1A0E2A0F3A0208D318D428D538D6D8DB2
S11330807E8D8F8D98A10E94FB1C2B013C01A50114
S113309094016D817E818F8198850E94FB1C29811A
S11330A03A814B815C810E94FB1C9B01AC01C301F2
S11330B0B2010E94461A2B013C0129853A854B85B1
S11330C05C85C501B4010E94FB1CA70196010E9406
S11330D0FB1C9B01AC01C301B2010E94461A4B01C7
S11330E05C0129853A854B855C8569817A818B8170
S11330F09C810E94FB1C2B013C01A70196016D8160
S11331007E818F8198850E94FB1C9B01AC01C301C9
S1133110B2010E94451AA50194010E94C51A2B010F
S11331203C0177FA709477F87094A3019201C3017B
S1133130B2010E942F1EACA5BDA59C96BC91B8A758
S1133140ECA5FDA5F5A5F9A7ACA5BDA59E96BC91DA
S1133150BAA7ECA5FDA5F7A5FBA7882331F088A5A0
S113316099A5AB2FBF2F2C013D0120E030E0A90130
S1133170C301B2010E94241B181654F02BED3FE04A
S113318049EC50E4C301B2010E94461A2B013C01F0
S1133190C8A4D9A4EAA4FBA4612F702F832D922D77
S11331A00E94A01B9B0177FF04C022273327261B04
S11331B0370BB901330F880B990B0E94D81B2BEDE9
S11331C03FE049EC5FE30E94451A0E94A01B9B016B
S11331D077FF04C022273327261B370BB901330F8F
S11331E0880B990B0E94D81B23EC38EB42EB5DE370
S11331F00E94EE1C18160CF0BCC0612F702F832D9A
S1133200922D0E940A1E4B015C01ACA5BDA514962B
S1133210CD90DD90ED90FC90179718968D919D912F
S11332200D90BC91A02D89839A83AB83BC83A501A7
S113323094016D817E818F8198850E94FB1CA7017A
S113324096010E94FB1CECA5FDA5208131814281E1
S113325053810E94461A698B7A8B8B8B9C8BA501B8
S1133260940169857A858B859C850E94FB1C298144
S11332703A814B815C810E94FB1C9B01AC016989F2
S11332807A898B899C890E94461A2AE037ED43E2A9
S11332905DE30E94FB1C9B01AC016D857E858F85DF
S11332A098890E94461A698B79A38AA39BA3A701D4
S11332B0960169857A858B859C850E94FB1C4B0150
S11332C05C0129813A814B815C816D817E818F8192
S11332D098850E94FB1C9B01AC01C501B4010E94AE
S11332E0451A2AE037ED43E25DE30E94FB1C9B0193
S11332F0AC01612F702F832D922D0E94461A6CA36E
S11333007DA38EA39FA32D8D3E8D4F8D58A16D81DE
S11333107E818F8198850E942E1BA70196010E94B1
S1133320FB1C6B017C012D8D3E8D4F8D58A1698551
S11333307A858B859C850E942E1B29813A814B813D
S11333405C810E94FB1C9B01AC01C701B6010E9479
S1133350461A2AE037ED43E25DE30E94FB1C9B0121
S1133360AC0168A579A58AA59BA50E94461A6B01A4
S11333707C01298939A14AA15BA16D897E898F8944
S1133380988D0E94451A2DEC3CEC4CE45DE30E94C0
S1133390FB1C298939A14AA15BA10E94461AACA54C
S11333A0BDA594966D937D938D939C9397972CA133
S11333B03DA14EA15FA1698D7A8D8B8D9C8D0E945C
S11333C0451A2DEC3CEC4CE45DE30E94FB1C2CA163
S11333D03DA14EA15FA10E94461AECA5FDA560A7E0
S11333E071A782A793A79601A701C301B2010E9406
S11333F0451A4B015C010E94A01B9B0177FF04C08E
S113340022273327261B370BB901330F880B990B5F
S11334100E94D81B2BED3FE049E450E40E94EE1CCF
S113342018167CF02DEC3CEC4CE45DE3C501B401D2
S11334300E94FB1C9601A7010E94461A362F272FD3
S113344003C0342D252DC301432F522FBC01ACA53D
S1133450BDA59C964D935D936D937C939F97AD967C
S1133460CDBFDEBFDF91CF911F910F91FF90EF9001
S1133470DF90CF90BF90AF909F908F907F906F9090
S11334805F904F903F902F9008955058BB27AA27E4
S11334900E945D1A0C94A01C0E94671C38F00E94C4
S11334A06E1C20F039F49F3F19F426F40C943D1C53
S11334B00EF4E095E7FB0C94371CE92F0E94C51C21
S11334C058F3BA17620773078407950720F079F455
S11334D0A6F50C94E71C0EF4E0950B2EBA2FA02D44
S11334E00B01B90190010C01CA01A0011124FF27AD
S11334F0591B99F0593F50F4503E68F11A16F040A8
S1133500A22F232F342F4427585FF3CF46953795A6
S11335102795A795F0405395C9F77EF41F16BA0B6B
S1133520620B730B840BBAF09150A1F0FF0FBB1F19
S1133530661F771F881FC2F70EC0BA0F621F731F62
S1133540841F48F4879577956795B795F7959E3FBF
S113355008F0B0CF9395880F08F09927EE0F979550
S1133560879508950E94671C60F080E891E009F453
S11335709EEF0E946E1C28F040E851E071F45EEF6B
S11335800CC00C943D1C0C94E71CE92FE0780E94BD
S1133590C51C40F3092E052AB1F32617370748073F
S11335A0590738F00E2E07F8E02569F0E025E064AD
S11335B00AC0EF6307F8009407FADB01B9019D0123
S11335C0DC01CA01AD01EF930E94451B0E94A01CBF
S11335D00E94F51A5F91552339F02BED3FE049E441
S11335E050FD49EC0C94461A0895DF93DD27B92F5A
S11335F0BF7740E85FE31616170648075B0718F421
S1133600D92F0E94F31C9F938F937F936F930E94F3
S1133610061EE0E7F1E00E94401C0E94A01C2F91CE
S11336203F914F915F910E940E1DDD2351F0905800
S1133630A2EA2AED3FE049EC5FE3D0785D270E94DF
S11336405D1ADF910C94A01C0E94131C08F481E005
S113365008950E94771CE3950C94B11C0E94421BB0
S11336600C94A01C0E946E1C58F00E94671C40F031
S113367029F45F3F29F00C94371C51110C94E81C79
S11336800C943D1C0E94C51C68F39923B1F3552387
S113369091F3951B550BBB27AA2762177307840761
S11336A038F09F5F5F4F220F331F441FAA1FA9F3F7
S11336B035D00E2E3AF0E0E832D091505040E695E5
S11336C0001CCAF72BD0FE2F29D0660F771F881F46
S11336D0BB1F261737074807AB07B0E809F0BB0B39
S11336E0802DBF01FF2793585F4F3AF09E3F51054D
S11336F078F00C94371C0C94E81C5F3FE4F3983E7C
S1133700D4F3869577956795B795F7959F5FC9F735
S1133710880F911D9695879597F90895E1E0660FB6
S1133720771F881FBB1F621773078407BA0720F02F
S1133730621B730B840BBA0BEE1F88F7E095089598
S11337400E94A71B6894B1110C94E81C08950E9470
S1133750CD1C88F09F5798F0B92F9927B751B0F036
S1133760E1F0660F771F881F991F1AF0BA95C9F701
S113377014C0B13091F00E94E71CB1E008950C949C
S1133780E71C672F782F8827B85F39F0B93FCCF34F
S1133790869577956795B395D9F73EF4909580957E
S11337A0709561957F4F8F4F9F4F0895E89409C09E
S11337B097FB3EF490958095709561957F4F8F4F60
S11337C09F4F9923A9F0F92F96E9BB279395F69576
S11337D0879577956795B795F111F8CFFAF4BB0FF4
S11337E011F460FF1BC06F5F7F4F8F4F9F4F16C058
S11337F0882311F096E911C0772321F09EE8872FE2
S1133800762F05C0662371F096E8862F70E060E09D
S11338102AF09A95660F771F881FDAF7880F969516
S1133820879597F90895990F0008550FAA0BE0E8BA
S1133830FEEF16161706E807F907C0F0121613066E
S1133840E407F50798F0621B730B840B950B39F4AE
S11338500A2661F0232B242B252B21F408950A2614
S113386009F4A140A6958FEF811D811D089597F954
S11338709F6780E870E060E008959FEF80EC089512
S1133880DF93CF931F930F93FF92EF92DF927B010D
S11338908C01689406C0DA2EEF010E940E1DFE0111
S11338A0E894A5912591359145915591A6F3EF01A1
S11338B00E945D1AFE019701A801DA9469F7DF906E
S11338C0EF90FF900F911F91CF91DF910895002405
S11338D00A941616170618060906089500240A9471
S11338E0121613061406050608950C943D1C0E9436
S11338F0CD1CD8F3E894E0E0BB279F57F0F02AED05
S11339003FE049EC06C0EE0FBB0F661F771F881F10
S113391028F0B23A62077307840728F0B25A620BA0
S1133920730B840BE3959A9572F7803830F49A956B
S1133930BB0F661F771F881FD2F790480C94701E28
S1133940092E0394000C11F4882352F0BB0F40F4A9
S1133950BF2B11F460FF04C06F5F7F4F8F4F9F4FE9
S11339600895EF93E0FF07C0A2EA2AED3FE049EC97
S11339705FEB0E945D1A0E94A01C0F90039401FC4F
S11339809058EDE9F1E00C94831E57FD9058440FD4
S1133990551F59F05F3F71F04795880F97FB991FAA
S11339A061F09F3F79F08795089512161306140667
S11339B0551FF2CF4695F1DF08C0161617061806F4
S11339C0991FF1CF86957105610508940895E894CF
S11339D0BB2766277727CB0197F908950E94131C0C
S11339E008F48FEF08959B01AC0160E070E080E87B
S11339F09FE30C942E1B0E940E1D0C94A01C0E948D
S1133A00671C38F00E946E1C20F0952311F00C9472
S1133A10371C0C943D1C11240C94E81C0E94C51CFA
S1133A2070F3959FC1F3950F50E0551F629FF0010D
S1133A30729FBB27F00DB11D639FAA27F00DB11D26
S1133A40AA1F649F6627B00DA11D661F829F2227AF
S1133A50B00DA11D621F739FB00DA11D621F839F36
S1133A60A00D611D221F749F3327A00D611D231F0C
S1133A70849F600D211D822F762F6A2F11249F575A
S1133A8050409AF0F1F088234AF0EE0FFF1FBB1F5D
S1133A90661F771F881F91505040A9F79E3F51051C
S1133AA080F00C94371C0C94E81C5F3FE4F3983EC0
S1133AB0D4F3869577956795B795F795E7959F5FC6
S1133AC0C1F7FE2B880F911D9695879597F9089558
S1133AD0FA01EE0FFF1F309621053105A1F16115A2
S1133AE0710561F48038BFE39B0749F1689490380D
S1133AF0810561F08038BFEF9B0741F099234AF5B7
S1133B00FF3FE1053105210519F1E8940894E79593
S1133B10D901AA2329F4AB2FBE2FF85FD0F310C02C
S1133B20FF5F70F4A695E0F7F73950F019F0FF3A0B
S1133B3038F49F779F930DD00F9007FC9058089509
S1133B4046F00C943D1C60E070E080E89FE308952B
S1133B504FE79F775F934F933F932F930E94D91E14
S1133B602F913F914F915F910E94FB1C0C943C1E3E
S1133B709F930E94771C0F9007FCEE5F0C94B11C7E
S1133B8019F416F40C943D1C0C946E1E0E94CD1C6A
S1133B90B8F39923C9F3B6F39F57550B87FF0E94D7
S1133BA07C1E0024A0E640EA900180585695979523
S1133BB028F4805C660F771F881F20F026173707CC
S1133BC0480730F4621B730B840B202931294A2BDC
S1133BD0A69517940794202531254A2758F7660F90
S1133BE0771F881F20F026173707480730F4620B29
S1133BF0730B840B200D311D411DA09581F7B90174
S1133C00842F9158880F9695879508959B01AC0150
S1133C100C94FB1CDF93D92F0E94771CE695D79553
S1133C202AED3FE049E45FE3B33A62077307840790
S1133C309507D7953AF0A2EA49EC90680E945D1A7C
S1133C400E94A01CEBEBF1E00E94831EDD0F13F039
S1133C500E94F31CDD0F0BF49058DF9108950E942D
S1133C60131C880B990B089529F416F00C94371C37
S1133C700C94E71C0C943D1C0E94CD1CA8F39638B0
S1133C80A0F707F80F92E8942BE33AEA48EB5FE7D2
S1133C900E94111D0F920F920F924DB75EB70F92B3
S1133CA00E94211FEEEDF1E00E94401C4F915F91B4
S1133CB0EF91FF91E595EE1FFF1F49F0FE57E06875
S1133CC04427EE0F441FFA95E1F74195550B0E94E6
S1133CD09B1E0F9007FE0C94F31C08959F3F31F038
S1133CE0915020F4879577956795B795880F911D26
S1133CF09695879597F9089591505040660F771FD0
S1133D00881FD2F708959F938F937F936F93FF93A8
S1133D10EF939B01AC010E94FB1CEF91FF910E9469
S1133D20401C2F913F914F915F910C94FB1C0C947C
S1133D30371C0C946E1E0E94CD1CD8F39923C9F332
S1133D40940F511DA3F39150504094F059F08823DF
S1133D5032F0660F771F881F91505040C1F79E3F85
S1133D6051052CF7880F911D9695879597F908951D
S1133D705F3FACF0983E9CF0BB278695779567959E
S1133D80B79508F4B1609395C1F7BB0F58F711F4D8
S1133D9060FFE8CF6F5F7F4F8F4F9F4FE3CF0C944F
S1133DA0E81C16F00C946E1E0C943D1C68940C9444
S1133DB0371C0E94CD1CA8F39923C1F3AEF3DF9303
S1133DC0CF931F930F93FF92C92FDD2788232AF0E7
S1133DD02197660F771F881FDAF720E030E040E86C
S1133DE05FEB9FE3883920F0803E38F021968F778F
S1133DF00E94461AE6E0F2E004C00E94461AE3E399
S1133E00F2E00E94401C8B01BE01EC01FB2E6F57B7
S1133E1071097595771F880B990B0E94D81B28E1AF
S1133E2032E741E35FE30E940E1DAF2D9801AE011E
S1133E30FF900F911F91CF91DF910E945D1A0C9416
S1133E40A01CFA01DC01AA0FBB1F9B01AC01BF57E8
S1133E5028F4222733274427507820C0B75190F400
S1133E60AB2F0024469537952795011CA395D2F3D3
S1133E70002071F0220F331F441FB395DAF30ED0E4
S1133E800C94451A61307105A0E88A07B94630F4EC
S1133E909B01AC016627772788279078309621F01C
S1133EA0208331834283538308952F923F924F920C
S1133EB05F926F927F928F929F92AF92BF92CF92B6
S1133EC0DF92EF92FF920F931F93CF93DF93CDB7BF
S1133ED0DEB76097CDBFDEBF7C011B016A01FC0128
S1133EE016821782838181FF44C39E012F5F3F4F57
S1133EF03901F7019381F10193FD859193FF81913C
S1133F001F01882309F431C3853239F493FD859167
S1133F1093FF81911F01853239F4B70190E00E942B
S1133F20522756016501E5CF10E0512C912CFFE199
S1133F30F915D8F08B3279F038F4803279F0833285
S1133F40A1F4F92DF0612EC08D3261F0803369F453
S1133F50292D21602DC0392D3260932E892D846046
S1133F60982E2AC0E92DE86015C097FC2DC020EDDD
S1133F70280F2A3088F496FE06C03AE0139F200DDD
S1133F801124122F19C08AE0589E200D1124522E9C
S1133F90E92DE0629E2E10C08E3231F496FCE5C20B
S1133FA0F92DF0649F2E08C08C3621F4292D206849
S1133FB0922E02C0883641F4F10193FD859193FF5E
S1133FC081911F018111B3CF9BEB980F933020F4A3
S1133FD0992D9061805E07C09BE9980F933008F09B
S1133FE066C1992D9F7E96FF16E09F73992E8536A4
S1133FF019F49064992E08C0863621F4392F30685C
S1134000932E02C01111115097FE07C01C3350F4B7
S113401044244394410E27E00BC0183038F027E0C5
S113402017E005C027E09CE3492E02C0212F412C54
S1134030560184E0A80EB11CF60160817181828171
S11340409381042DA3010E9426266C01F981FC872B
S1134050F0FF02C0F3FF06C091FC06C092FE06C04A
S113406000E205C00DE203C00BE201C000E08C8554
S11340708C7019F001115AC29BC297FE10C04C0CEF
S1134080FC85F4FF04C08A81813309F44A94141432
S113409074F528E0241578F588E0482E2CC096FCA9
S11340A02AC0812F90E08C159D059CF03CEFC3162F
S11340B03FEFD30674F0892D8068982E0AC0E2E0A1
S11340C0F0E0EC0FFD1FE10FF11D8081803319F446
S11340D011501111F4CF97FE0EC044244394410EA5
S11340E0812F90E0C816D9062CF41C1904C044246E
S11340F0439401C010E097FE06C01C141D0434F460
S1134100C601019605C085E090E002C081E090E020
S113411001110196112331F0212F30E02F5F3F4F21
S1134120820F931F252D30E08217930714F4581A39
S113413001C0512C892D897049F4552039F0B701FB
S113414080E290E00E9452275A94F7CF002329F08E
S1134150B701802F90E00E94522793FC09C055209C
S113416039F0B70180E390E00E9452275A94F7CFC8
S113417097FE4CC04601D7FE02C0812C912CC6018B
S113418088199909F301E80FF91FED87FE87960155
S1134190241931092F87388B012F10E011950195CF
S11341A011093FEF8316930629F4B7018EE290E0DC
S11341B00E945227C814D9044CF08F859889881519
S11341C0990524F4ED85FE85818101C080E3F1E049
S11341D08F1A91082D853E852F5F3F4F2D873E878F
S11341E0801691062CF0B70190E00E945227D9CF97
S11341F0C814D90441F49A81963320F4953319F400
S11342003C8534FF81E3B70190E04EC08A8181335D
S113421019F09C859F7E9C87B70190E00E945227ED
S1134220111105C094FC18C085E690E017C0B701D1
S11342308EE290E00E9452271E5F82E001E0080FA8
S1134240F301E80FF11D8081B70190E00E9452272D
S1134250802F0113F3CFE6CF85E490E0B7010E94ED
S11342605227D7FC06C0C114D10441F4EC85E4FF05
S113427005C0D194C194D1088DE201C08BE2B7018D
S113428090E00E94522780E32AE0C216D1042CF069
S11342908F5FFAE0CF1AD108F7CFB70190E00E9400
S11342A05227B701C601C0960E94522754C18336D3
S11342B031F0833779F0833509F056C020C05601B8
S11342C032E0A30EB11CF6018081898301E010E085
S11342D0630112C05601F2E0AF0EB11CF601C080BA
S11342E0D18096FE03C0612F70E002C06FEF7FEFB4
S11342F0C6010E942A278C01F92DFF7714C05601AC
S113430022E0A20EB11CF601C080D18096FE03C04B
S1134310612F70E002C06FEF7FEFC6010E941F277C
S11343208C01F92DF0689F2EF3FD1AC0852D90E0C5
S113433008171907A8F4B70180E290E00E945227F9
S11343405A94F4CFF60197FC859197FE81916F0101
S1134350B70190E00E94522751105A94015011095C
S11343600115110579F7F7C0843611F0893661F526
S1134370560197FE09C024E0A20EB11CF60160812B
S11343807181828193810AC0F2E0AF0EB11CF60103
S113439060817181072E000C880B990BF92DFF7633
S11343A09F2E97FF09C090958095709561957F4FDA
S11343B08F4F9F4FF0689F2E2AE030E0A3010E94A8
S11343C0C527C82EC6183FC0092D853721F40F7E96
S11343D02AE030E01DC0097F8F3691F018F488354B
S11343E059F0C3C0803719F0883711F0BEC000619E
S11343F004FF09C0046007C094FE08C0066006C03C
S113440028E030E005C020E130E002C020E132E0E5
S1134410560107FF09C084E0A80EB11CF6016081B3
S113442071818281938108C0F2E0AF0EB11CF60164
S11344306081718180E090E0A3010E94C527C82EAD
S1134440C6180F77902E96FE0BC0092D0E7FC1164D
S113445050F494FE0AC092FC08C0092D0E7E05C0DB
S1134460DC2C092D03C0DC2C01C0D12E04FF0DC0AF
S1134470FE01EC0DF11D8081803311F4097E09C029
S113448002FF06C0D394D39404C0802F867809F029
S1134490D39403FD11C000FF06C01C2DD51480F475
S11344A0150D1D190DC0D51458F4B70180E290E024
S11344B00E945227D394F7CFD51410F45D1801C08D
S11344C0512C04FF10C0B70180E390E00E945227F2
S11344D002FF17C001FD03C088E790E002C088E531
S11344E090E0B7010CC0802F867859F001FF02C01C
S11344F08BE201C080E207FD8DE2B70190E00E94EB
S11345005227C11638F4B70180E390E00E94522785
S11345101150F7CFCA94F301EC0DF11D8081B7015E
S113452090E00E945227C110F5CF15C0F4E0F515B4
S113453060F584E0581A93FE1FC0011127C02C8532
S113454023FF2AC000E612E0392D3071932EF801C2
S11345508491811124C0552009F4E4CCB70180E290
S113456090E00E9452275A94F6CFF70186819781F2
S113457026C08FEF9FEF23C0B70180E290E00E9436
S113458052275A945110F8CFD8CF512CB701802F0D
S113459090E00E945227D3CF04E612E0D5CF9110C9
S11345A08052B70190E00E9452270F5F1F4FCFCF78
S11345B023E0251510F483E0BDCF512CC0CF6096C5
S11345C0CDBFDEBFDF91CF911F910F91FF90EF9090
S11345D0DF90CF90BF90AF909F908F907F906F901F
S11345E05F904F903F902F900895DB018F939F939E
S11345F00E940E23BF91AF91A29F800D911DA39F96
S1134600900DB29F900D11240895EE0FFF1F00240A
S1134610001C0BBE0790F691E02D09940E945523CF
S1134620A59F900DB49F900DA49F800D911D112402
S1134630089597FB10F8169400080F93083098F02B
S11346400850232F342F452F562F672F782F892F6B
S1134650902DF4CF05949795879577956795579501
S11346604795379527950A95AAF70F9108952A0D2E
S11346703B1D4C1D5D1D6E1D7F1D801F911F0895E8
S11346800024A7FD00942A0F301D401D501D601DFD
S1134690701D801D901D08952A153B054C055D0570
S11346A06E057F05800791070895A29FB001B39F0F
S11346B0C001A39F700D811D1124911DB29F700D27
S11346C0811D1124911D08950F931F93CF93DF93A0
S11346D08230910510F482E090E0E091FF4CF0917B
S11346E0004D20E030E0A0E0B0E0309719F14081C7
S11346F051810281138148175907C8F0841795071F
S113470069F4109731F012960C93129713961C9338
S113471027C00093FF4C1093004D22C02115310592
S113472019F04217530718F49A01BD01EF01DF0194
S1134730F801DBCF21153105F9F0281B390B2430A2
S1134740310580F48A819B816115710521F0FB019B
S11347508283938304C08093FF4C9093004DFE01A9
S1134760329644C0FE01E20FF31F819391932250CD
S11347703109288339833AC02091FD4C3091FE4C95
S1134780232B41F420910240309103402093FD4CAF
S11347903093FE4C209100403091014021153105A9
S11347A041F42DB73EB74091044050910540241B7D
S11347B0350BE091FD4CF091FE4CE217F307A0F4A9
S11347C02E1B3F0B2817390778F0AC014E5F5F4F63
S11347D02417350748F04E0F5F1F4093FD4C50934C
S11347E0FE4C8193919302C0E0E0F0E0CF01DF91B1
S11347F0CF911F910F910895CF93DF93009709F400
S113480081C0FC01329712821382A091FF4CB091B7
S1134810004D109781F420813181820F931F2091E4
S1134820FD4C3091FE4C2817390751F5E093FD4CAF
S1134830F093FE4C67C0ED0120E030E0CE17DF07B7
S113484040F44A815B819E0141155105F1F0EA0172
S1134850F5CFC283D38340815181840F951FC8173C
S1134860D90759F488819981840F951F0296808312
S113487091838A819B81828393832115310529F455
S1134880E093FF4CF093004D3DC0E901EA83FB83C4
S113489049915991C40FD51FEC17FD0761F480812C
S11348A09181840F951F0296E901888399838281FF
S11348B093818A839B83E0E0F0E012968D919C9132
S11348C01397009719F0FD01DC01F7CF8D919C91AE
S11348D011979D012E5F3F4F820F931F2091FD4C36
S11348E03091FE4C2817390769F4309729F4109257
S11348F0FF4C1092004D02C012821382A093FD4C13
S1134900B093FE4CDF91CF9108958F929F92AF9216
S1134910BF92CF92DF92EF92FF920F931F93CF93A8
S1134920DF93EC016B016115710519F0FB018083C4
S113493091837E01FFEFEF1AFF0A0881802F90E038
S11349400E94FE26892B11F0E701F3CF0D3239F4D2
S11349507E0182E0E80EF11C098111E008C00B32EF
S113496029F47E0192E0E90EF11C098110E0E701CF
S1134970219743E050E060E772E0CE010E940727F0
S1134980892BC1F4239645E050E06BE672E0CE013A
S11349900E940727892B09F42596C114D10419F024
S11349A0F601C083D1831111F6C060E070E080E8A5
S11349B09FE7FAC043E050E068E672E0CE010E944F
S11349C00727892B59F4C114D10409F4E9C0F2E092
S11349D0EF0EF11CF601E082F182E2C020E030E04B
S11349E0A901C0E0D0E0F70160EDA62EA00E89E099
S11349F08A1530F1912F9260B92E812F887012FFA1
S1134A0004C0811124C0219622C081112197A5E000
S1134A10B0E00E940E23DC01CB01880F991FAA1F6E
S1134A20BB1F9C01AD012A0D311D411D511D2839AB
S1134A3089E93807480789E1580748F0166006C035
S1134A409EEFA9120AC013FD40C01860B12E8FEF6B
S1134A50E81AF80A00811B2DC6CF802F8F7D85347C
S1134A60A1F580818D3211F4106106C08B3221F0E2
S1134A70319661E070E004C08181329662E070E0BA
S1134A8080538A3018F0E61BF70B1FC060E070E01B
S1134A9060389CE079075CF4DB01AA0FBB1FAA0F06
S1134AA0BB1F6A0F7B1F660F771F680F711D31963E
S1134AB0DF0111978C9180538A3050F314FF03C0A7
S1134AC0719561957109C60FD71F11FF08C0C114F4
S1134AD0D10429F0CF010197F60180839183CA01A3
S1134AE0B9010E94D61B212F2370233019F04B01EA
S1134AF05C0106C04B015C01B7FAB094B7F8B094FE
S1134B0020E030E0A901C501B4010E94241B8823E0
S1134B1009F43EC0D7FF06C0D195C195D10907E875
S1134B2012E002C00FE912E06801F8E1CF1AD108DF
S1134B3090E2E92EF12CCE15DF0574F0F8012591F1
S1134B40359145915491C501B4010E94FB1C4B0160
S1134B505C01CE19DF09EFCF04501109F594E794F5
S1134B600C151D0541F78A2D880F8B2D881F8F3F4B
S1134B7049F020E030E0A901C501B4010E94241BE2
S1134B80811106C082E290E08093014D9093024D22
S1134B90C501B40109C060E070E080E89FEF04C083
S1134BA060E070E080EC9FE7DF91CF911F910F915F
S1134BB0FF90EF90DF90CF90BF90AF909F908F9039
S1134BC00895FC0188279927E89421912032E9F37C
S1134BD0293010F02E30C8F32B3241F02D3239F445
S1134BE0689404C00E944A27820F911D219120538A
S1134BF02A30C0F31EF4909581959F4F08951F931A
S1134C00FC0199278827BC01E89411911032E9F33B
S1134C10193010F01E30C8F31B3251F01D3249F424
S1134C20689406C00E943527610F711D811D911D76
S1134C30119110531A30B0F33EF49095809570950D
S1134C4061957F4F8F4F9F4F1F910895283008F033
S1134C5027E03327DA01990F311D87FD9160009613
S1134C606105710539F432602E5F3D9330E32A9576
S1134C70E1F708959F3F30F080387105610509F030
S1134C803C5F3C5F3D93913008F08068911DDF9359
S1134C90CF931F930F93FF92EF92192F987F9695BE
S1134CA0E92F96959695E90FFF27E350FD4F992735
S1134CB03327EE24FF24A701E70105900894079405
S1134CC028F4360FE71EF81E491F511D660F771F83
S1134CD0881F991F0694A1F70590079428F4E70EFE
S1134CE0F81E491F561FC11D770F881F991F661F85
S1134CF00694A1F70590079428F4F80E491F561F4F
S1134D00C71FD11D880F991F661F771F0694A1F72F
S1134D100590079420F4490F561FC71FD81F990FF9
S1134D20661F771F881F0694A9F784911095177042
S1134D3041F0D695C79557954795F794E7941A95FA
S1134D40C1F7E3EAF2E06894159015913591659105
S1134D50959105907FE27395E118F10A430B560B88
S1134D60C90BD009C0F7E10CF11E431F561FC91F20
S1134D70D01D7EF4703311F48A95E6CFE894015087
S1134D8030F0080F0AF40027021708F4202F2395A7
S1134D90022F7A3328F079E37D932A95E9F710C03E
S1134DA07D932A9589F60694979567953795179577
S1134DB01794E118F10A430B560BC90BD00998F06C
S1134DC023957E9173957A3308F070E37C932013D6
S1134DD0B8F77E9170617D9330F0839571E37D9394
S1134DE070E32A95E1F71124EF90FF900F911F9142
S1134DF0CF91DF91992787FD9095089591110C9497
S1134E002328803219F089508550C8F70895FB0192
S1134E10DC014150504088F08D9181341CF08B3579
S1134E200CF4805E659161341CF06B350CF4605EAB
S1134E30861B611171F3990B0895881BFCCFFC014B
S1134E400590615070400110D8F7809590958E0FB1
S1134E509F1F0895FC016150704001900110D8F724
S1134E60809590958E0F9F1F0895592F482F372FA7
S1134E70262F660F771F881F991F660F771F881FBD
S1134E80991F620F731F841F951F660F771F881F5A
S1134E90991F08957AE0979F902D879F802D910DFB
S1134EA0112408950F931F93CF93DF93FB01238164
S1134EB021FD03C08FEF9FEF2CC022FF16C0468157
S1134EC05781248135814217530744F4A081B1816D
S1134ED09D012F5F3F4F208331838C93268137813F
S1134EE02F5F3F4F2683378314C08B01EC01FB01F6
S1134EF00084F185E02D0995892BE1F6D8011696F9
S1134F008D919C911797019616968D939C93179764
S1134F10CE01DF91CF911F910F9108950F931F93AD
S1134F20CF93DF93CDB7DEB72E97CDBFDEBF0D890C
S1134F301E898F89988D26E02C8309831A8397FF15
S1134F4002C080E090E801978D839E83AE01455EA8
S1134F505F4F698D7A8DCE0101960E94551F4D8158
S1134F605E8157FD0AC02F813885421753070CF420
S1134F709A01F801E20FF31F10822E96CDBFDEBF17
S1134F80DF91CF911F910F910895FA01AA2728303C
S1134F9051F1203181F1E8946F936E7F6E5F7F4F02
S1134FA08F4F9F4FAF4FB1E03ED0B4E03CD0670F7E
S1134FB0781F891F9A1FA11D680F791F8A1F911DD1
S1134FC0A11D6A0F711D811D911DA11D20D009F421
S1134FD068943F912AE0269F11243019305D319363
S1134FE0DEF6CF010895462F4770405D4193B3E04C
S1134FF00FD0C9F7F6CF462F4F70405D4A3318F0F3
S1135000495D31FD4052419302D0A9F7EACFB4E0A3
S1135010A6959795879577956795BA95C9F700975B
S11350206105710508959B01AC010A2E06945795FC
S1135030479537952795BA95C9F7620F731F841F53
S1135040951FA01D0895992788270895F894FFCFE8
S11350500000034D20000808082060000207024FEA
S113506049FF49793E41413E427F407949494F4198
S113507049495536101814127F4F4949791C2A4959
S11350802910412111090503142A492A14462A1911
S11350900A041C225151727F02040810207F7F02EF
S11350A004027F7F08087F7F4949497F4040407F51
S11350B009192640401014021410401C2241227F7A
S11350C01111017F41221CFFFFFFFFFFFFFFFFFFC4
S11350D0FFFFFFFFB5620600140001000000D008C6
S11350E000000008070007000300000000000CBCDB
S11350F0B56206010800F00A00000000000009691A
S1135100B56206010800F04400000000000043FFFF
S1135110B56206010800F009000000000000086202
S1135120B56206010800F000000000000000FF2343
S1135130B56206010800F001000000000000002A2A
S1135140B56206010800F04300000000000042F8C8
S1135150B56206010800F04200000000000041F1C1
S1135160B56206010800F00D0000000000000C7E8E
S1135170B56206010800F0400000000000003FE3B3
S1135180B56206010800F006000000000000054DAD
S1135190B56206010800F0020000000000000131C1
S11351A0B56206010800F007000000000000065484
S11351B0B56206010800F003000000000000023898
S11351C0B56206010800F00E0000000000000D8525
S11351D0B56206010800F04100000000000040EA4A
S11351E0B56206010800F00F0000000000000E8CFC
S11351F0B56206010800F005000000000000044646
S1135200B56206010800F008000000000000075B1A
S1135210B562060806007D000100000092A6B56292
S1135220060806007D000100010093A8B562060887
S113523006007D000100020094AAB562060806007B
S11352407D000100030095ACB562060806007D00F0
S11352500100040096AE25640025332E3266002535
S10552605800F0
S9030000FC
